{
  "_format": "hh-sol-artifact-1",
  "contractName": "GasAudit",
  "sourceName": "contracts/GasAudit.sol",
  "abi": [
    {
      "anonymous": false,
      "inputs": [
        {
          "indexed": true,
          "internalType": "address",
          "name": "portAddress",
          "type": "address"
        },
        {
          "indexed": true,
          "internalType": "bytes32",
          "name": "channelId",
          "type": "bytes32"
        },
        {
          "indexed": false,
          "internalType": "string",
          "name": "counterpartyPortId",
          "type": "string"
        },
        {
          "indexed": false,
          "internalType": "bytes32",
          "name": "coutnerpartyChannelId",
          "type": "bytes32"
        }
      ],
      "name": "OpenIbcChannel1",
      "type": "event"
    },
    {
      "anonymous": false,
      "inputs": [
        {
          "indexed": true,
          "internalType": "address",
          "name": "portAddress",
          "type": "address"
        },
        {
          "indexed": false,
          "internalType": "string",
          "name": "channelId",
          "type": "string"
        },
        {
          "indexed": false,
          "internalType": "string",
          "name": "counterpartyPortId",
          "type": "string"
        },
        {
          "indexed": false,
          "internalType": "string",
          "name": "coutnerpartyChannelId",
          "type": "string"
        }
      ],
      "name": "OpenIbcChannel2",
      "type": "event"
    },
    {
      "inputs": [
        {
          "internalType": "address",
          "name": "portAddress",
          "type": "address"
        },
        {
          "internalType": "bytes32",
          "name": "channelId",
          "type": "bytes32"
        },
        {
          "internalType": "string",
          "name": "counterpartyPortId",
          "type": "string"
        },
        {
          "internalType": "bytes32",
          "name": "coutnerpartyChannelId",
          "type": "bytes32"
        }
      ],
      "name": "callWithBytes32",
      "outputs": [],
      "stateMutability": "nonpayable",
      "type": "function"
    },
    {
      "inputs": [
        {
          "internalType": "address",
          "name": "portAddress",
          "type": "address"
        },
        {
          "internalType": "string",
          "name": "channelId",
          "type": "string"
        },
        {
          "internalType": "string",
          "name": "counterpartyPortId",
          "type": "string"
        },
        {
          "internalType": "string",
          "name": "coutnerpartyChannelId",
          "type": "string"
        }
      ],
      "name": "callWithString",
      "outputs": [],
      "stateMutability": "nonpayable",
      "type": "function"
    }
  ],
  "bytecode": "0x608060405234801561001057600080fd5b506103a1806100206000396000f3fe608060405234801561001057600080fd5b50600436106100365760003560e01c8063485b39b51461003b578063fca6eb2914610050575b600080fd5b61004e6100493660046101b8565b610063565b005b61004e61005e366004610263565b6100ea565b60018087876040516100769291906102c5565b908152604051908190036020018120805492151560ff19909316929092179091556001600160a01b038816907f57ddcf2e4fd363065bccadcdb56928237fb413c06e42c021b0dca4a3b8e58051906100d9908990899089908990899089906102fe565b60405180910390a250505050505050565b60008481526020819052604090819020805460ff191660011790555184906001600160a01b038716907f9bfa7e679cc290246349f80646c1c53a881353ed5b17ad82b5eb6ba2837181559061014490879087908790610347565b60405180910390a35050505050565b80356001600160a01b038116811461016a57600080fd5b919050565b60008083601f84011261018157600080fd5b50813567ffffffffffffffff81111561019957600080fd5b6020830191508360208285010111156101b157600080fd5b9250929050565b60008060008060008060006080888a0312156101d357600080fd5b6101dc88610153565b9650602088013567ffffffffffffffff808211156101f957600080fd5b6102058b838c0161016f565b909850965060408a013591508082111561021e57600080fd5b61022a8b838c0161016f565b909650945060608a013591508082111561024357600080fd5b506102508a828b0161016f565b989b979a50959850939692959293505050565b60008060008060006080868803121561027b57600080fd5b61028486610153565b945060208601359350604086013567ffffffffffffffff8111156102a757600080fd5b6102b38882890161016f565b96999598509660600135949350505050565b8183823760009101908152919050565b81835281816020850137506000828201602090810191909152601f909101601f19169091010190565b60608152600061031260608301888a6102d5565b82810360208401526103258187896102d5565b9050828103604084015261033a8185876102d5565b9998505050505050505050565b60408152600061035b6040830185876102d5565b905082602083015294935050505056fea2646970667358221220e3aff61b4bc10581e6d89de01d137674c0d2ed9798cdd4ee4d52012d719e86c064736f6c63430008090033",
  "linkReferences": {},
  "deployedLinkReferences": {}
}