{
  "_format": "hh-sol-artifact-1",
  "contractName": "Mars",
  "sourceName": "contracts/Mars.sol",
  "abi": [
    {
      "anonymous": false,
      "inputs": [
        {
          "indexed": true,
          "internalType": "address",
          "name": "previousOwner",
          "type": "address"
        },
        {
          "indexed": true,
          "internalType": "address",
          "name": "newOwner",
          "type": "address"
        }
      ],
      "name": "OwnershipTransferred",
      "type": "event"
    },
    {
      "inputs": [
        {
          "internalType": "uint256",
          "name": "",
          "type": "uint256"
        }
      ],
      "name": "ackPackets",
      "outputs": [
        {
          "components": [
            {
              "internalType": "string",
              "name": "portId",
              "type": "string"
            },
            {
              "internalType": "bytes32",
              "name": "channelId",
              "type": "bytes32"
            }
          ],
          "internalType": "struct IbcEndpoint",
          "name": "src",
          "type": "tuple"
        },
        {
          "components": [
            {
              "internalType": "string",
              "name": "portId",
              "type": "string"
            },
            {
              "internalType": "bytes32",
              "name": "channelId",
              "type": "bytes32"
            }
          ],
          "internalType": "struct IbcEndpoint",
          "name": "dest",
          "type": "tuple"
        },
        {
          "internalType": "uint64",
          "name": "sequence",
          "type": "uint64"
        },
        {
          "internalType": "bytes",
          "name": "data",
          "type": "bytes"
        },
        {
          "components": [
            {
              "internalType": "uint64",
              "name": "blockHeight",
              "type": "uint64"
            },
            {
              "internalType": "uint64",
              "name": "timestamp",
              "type": "uint64"
            }
          ],
          "internalType": "struct IbcTimeout",
          "name": "timeout",
          "type": "tuple"
        }
      ],
      "stateMutability": "view",
      "type": "function"
    },
    {
      "inputs": [
        {
          "internalType": "uint256",
          "name": "",
          "type": "uint256"
        }
      ],
      "name": "connectedChannels",
      "outputs": [
        {
          "internalType": "bytes32",
          "name": "",
          "type": "bytes32"
        }
      ],
      "stateMutability": "view",
      "type": "function"
    },
    {
      "inputs": [
        {
          "internalType": "contract IbcDispatcher",
          "name": "dispatcher",
          "type": "address"
        },
        {
          "internalType": "string",
          "name": "message",
          "type": "string"
        },
        {
          "internalType": "bytes32",
          "name": "channelId",
          "type": "bytes32"
        },
        {
          "internalType": "uint64",
          "name": "timeoutTimestamp",
          "type": "uint64"
        },
        {
          "components": [
            {
              "internalType": "uint256",
              "name": "recvFee",
              "type": "uint256"
            },
            {
              "internalType": "uint256",
              "name": "ackFee",
              "type": "uint256"
            },
            {
              "internalType": "uint256",
              "name": "timeoutFee",
              "type": "uint256"
            }
          ],
          "internalType": "struct PacketFee",
          "name": "fee",
          "type": "tuple"
        }
      ],
      "name": "greet",
      "outputs": [],
      "stateMutability": "payable",
      "type": "function"
    },
    {
      "inputs": [
        {
          "components": [
            {
              "components": [
                {
                  "internalType": "string",
                  "name": "portId",
                  "type": "string"
                },
                {
                  "internalType": "bytes32",
                  "name": "channelId",
                  "type": "bytes32"
                }
              ],
              "internalType": "struct IbcEndpoint",
              "name": "src",
              "type": "tuple"
            },
            {
              "components": [
                {
                  "internalType": "string",
                  "name": "portId",
                  "type": "string"
                },
                {
                  "internalType": "bytes32",
                  "name": "channelId",
                  "type": "bytes32"
                }
              ],
              "internalType": "struct IbcEndpoint",
              "name": "dest",
              "type": "tuple"
            },
            {
              "internalType": "uint64",
              "name": "sequence",
              "type": "uint64"
            },
            {
              "internalType": "bytes",
              "name": "data",
              "type": "bytes"
            },
            {
              "components": [
                {
                  "internalType": "uint64",
                  "name": "blockHeight",
                  "type": "uint64"
                },
                {
                  "internalType": "uint64",
                  "name": "timestamp",
                  "type": "uint64"
                }
              ],
              "internalType": "struct IbcTimeout",
              "name": "timeout",
              "type": "tuple"
            }
          ],
          "internalType": "struct IbcPacket",
          "name": "packet",
          "type": "tuple"
        }
      ],
      "name": "onAcknowledgementPacket",
      "outputs": [],
      "stateMutability": "nonpayable",
      "type": "function"
    },
    {
      "inputs": [
        {
          "internalType": "bytes32",
          "name": "channelId",
          "type": "bytes32"
        },
        {
          "internalType": "string",
          "name": "counterpartyPortId",
          "type": "string"
        },
        {
          "internalType": "bytes32",
          "name": "counterpartyChannelId",
          "type": "bytes32"
        }
      ],
      "name": "onCloseIbcChannel",
      "outputs": [],
      "stateMutability": "nonpayable",
      "type": "function"
    },
    {
      "inputs": [
        {
          "internalType": "bytes32",
          "name": "channelId",
          "type": "bytes32"
        },
        {
          "internalType": "bytes32",
          "name": "counterpartyChannelId",
          "type": "bytes32"
        },
        {
          "internalType": "string",
          "name": "counterpartyVersion",
          "type": "string"
        }
      ],
      "name": "onConnectIbcChannel",
      "outputs": [],
      "stateMutability": "nonpayable",
      "type": "function"
    },
    {
      "inputs": [
        {
          "internalType": "string",
          "name": "version",
          "type": "string"
        },
        {
          "internalType": "enum ChannelOrder",
          "name": "ordering",
          "type": "uint8"
        },
        {
          "internalType": "string[]",
          "name": "connectionHops",
          "type": "string[]"
        },
        {
          "internalType": "string",
          "name": "counterpartyPortId",
          "type": "string"
        },
        {
          "internalType": "bytes32",
          "name": "counterpartyChannelId",
          "type": "bytes32"
        },
        {
          "internalType": "string",
          "name": "counterpartyVersion",
          "type": "string"
        }
      ],
      "name": "onOpenIbcChannel",
      "outputs": [
        {
          "internalType": "string",
          "name": "selectedVersion",
          "type": "string"
        }
      ],
      "stateMutability": "nonpayable",
      "type": "function"
    },
    {
      "inputs": [
        {
          "components": [
            {
              "components": [
                {
                  "internalType": "string",
                  "name": "portId",
                  "type": "string"
                },
                {
                  "internalType": "bytes32",
                  "name": "channelId",
                  "type": "bytes32"
                }
              ],
              "internalType": "struct IbcEndpoint",
              "name": "src",
              "type": "tuple"
            },
            {
              "components": [
                {
                  "internalType": "string",
                  "name": "portId",
                  "type": "string"
                },
                {
                  "internalType": "bytes32",
                  "name": "channelId",
                  "type": "bytes32"
                }
              ],
              "internalType": "struct IbcEndpoint",
              "name": "dest",
              "type": "tuple"
            },
            {
              "internalType": "uint64",
              "name": "sequence",
              "type": "uint64"
            },
            {
              "internalType": "bytes",
              "name": "data",
              "type": "bytes"
            },
            {
              "components": [
                {
                  "internalType": "uint64",
                  "name": "blockHeight",
                  "type": "uint64"
                },
                {
                  "internalType": "uint64",
                  "name": "timestamp",
                  "type": "uint64"
                }
              ],
              "internalType": "struct IbcTimeout",
              "name": "timeout",
              "type": "tuple"
            }
          ],
          "internalType": "struct IbcPacket",
          "name": "packet",
          "type": "tuple"
        }
      ],
      "name": "onRecvPacket",
      "outputs": [
        {
          "components": [
            {
              "internalType": "bool",
              "name": "success",
              "type": "bool"
            },
            {
              "internalType": "bytes",
              "name": "data",
              "type": "bytes"
            }
          ],
          "internalType": "struct AckPacket",
          "name": "ackPacket",
          "type": "tuple"
        }
      ],
      "stateMutability": "nonpayable",
      "type": "function"
    },
    {
      "inputs": [
        {
          "components": [
            {
              "components": [
                {
                  "internalType": "string",
                  "name": "portId",
                  "type": "string"
                },
                {
                  "internalType": "bytes32",
                  "name": "channelId",
                  "type": "bytes32"
                }
              ],
              "internalType": "struct IbcEndpoint",
              "name": "src",
              "type": "tuple"
            },
            {
              "components": [
                {
                  "internalType": "string",
                  "name": "portId",
                  "type": "string"
                },
                {
                  "internalType": "bytes32",
                  "name": "channelId",
                  "type": "bytes32"
                }
              ],
              "internalType": "struct IbcEndpoint",
              "name": "dest",
              "type": "tuple"
            },
            {
              "internalType": "uint64",
              "name": "sequence",
              "type": "uint64"
            },
            {
              "internalType": "bytes",
              "name": "data",
              "type": "bytes"
            },
            {
              "components": [
                {
                  "internalType": "uint64",
                  "name": "blockHeight",
                  "type": "uint64"
                },
                {
                  "internalType": "uint64",
                  "name": "timestamp",
                  "type": "uint64"
                }
              ],
              "internalType": "struct IbcTimeout",
              "name": "timeout",
              "type": "tuple"
            }
          ],
          "internalType": "struct IbcPacket",
          "name": "packet",
          "type": "tuple"
        }
      ],
      "name": "onTimeoutPacket",
      "outputs": [],
      "stateMutability": "nonpayable",
      "type": "function"
    },
    {
      "inputs": [],
      "name": "owner",
      "outputs": [
        {
          "internalType": "address",
          "name": "",
          "type": "address"
        }
      ],
      "stateMutability": "view",
      "type": "function"
    },
    {
      "inputs": [
        {
          "internalType": "uint256",
          "name": "",
          "type": "uint256"
        }
      ],
      "name": "recvedPackets",
      "outputs": [
        {
          "components": [
            {
              "internalType": "string",
              "name": "portId",
              "type": "string"
            },
            {
              "internalType": "bytes32",
              "name": "channelId",
              "type": "bytes32"
            }
          ],
          "internalType": "struct IbcEndpoint",
          "name": "src",
          "type": "tuple"
        },
        {
          "components": [
            {
              "internalType": "string",
              "name": "portId",
              "type": "string"
            },
            {
              "internalType": "bytes32",
              "name": "channelId",
              "type": "bytes32"
            }
          ],
          "internalType": "struct IbcEndpoint",
          "name": "dest",
          "type": "tuple"
        },
        {
          "internalType": "uint64",
          "name": "sequence",
          "type": "uint64"
        },
        {
          "internalType": "bytes",
          "name": "data",
          "type": "bytes"
        },
        {
          "components": [
            {
              "internalType": "uint64",
              "name": "blockHeight",
              "type": "uint64"
            },
            {
              "internalType": "uint64",
              "name": "timestamp",
              "type": "uint64"
            }
          ],
          "internalType": "struct IbcTimeout",
          "name": "timeout",
          "type": "tuple"
        }
      ],
      "stateMutability": "view",
      "type": "function"
    },
    {
      "inputs": [],
      "name": "renounceOwnership",
      "outputs": [],
      "stateMutability": "nonpayable",
      "type": "function"
    },
    {
      "inputs": [
        {
          "internalType": "uint256",
          "name": "",
          "type": "uint256"
        }
      ],
      "name": "timeoutPackets",
      "outputs": [
        {
          "components": [
            {
              "internalType": "string",
              "name": "portId",
              "type": "string"
            },
            {
              "internalType": "bytes32",
              "name": "channelId",
              "type": "bytes32"
            }
          ],
          "internalType": "struct IbcEndpoint",
          "name": "src",
          "type": "tuple"
        },
        {
          "components": [
            {
              "internalType": "string",
              "name": "portId",
              "type": "string"
            },
            {
              "internalType": "bytes32",
              "name": "channelId",
              "type": "bytes32"
            }
          ],
          "internalType": "struct IbcEndpoint",
          "name": "dest",
          "type": "tuple"
        },
        {
          "internalType": "uint64",
          "name": "sequence",
          "type": "uint64"
        },
        {
          "internalType": "bytes",
          "name": "data",
          "type": "bytes"
        },
        {
          "components": [
            {
              "internalType": "uint64",
              "name": "blockHeight",
              "type": "uint64"
            },
            {
              "internalType": "uint64",
              "name": "timestamp",
              "type": "uint64"
            }
          ],
          "internalType": "struct IbcTimeout",
          "name": "timeout",
          "type": "tuple"
        }
      ],
      "stateMutability": "view",
      "type": "function"
    },
    {
      "inputs": [
        {
          "internalType": "address",
          "name": "newOwner",
          "type": "address"
        }
      ],
      "name": "transferOwnership",
      "outputs": [],
      "stateMutability": "nonpayable",
      "type": "function"
    },
    {
      "inputs": [
        {
          "internalType": "bytes32",
          "name": "channelId",
          "type": "bytes32"
        },
        {
          "internalType": "contract IbcDispatcher",
          "name": "dispatcher",
          "type": "address"
        }
      ],
      "name": "triggerChannelClose",
      "outputs": [],
      "stateMutability": "nonpayable",
      "type": "function"
    }
  ],
  "bytecode": "0x600360c0818152620312e360ec1b60e0526080908152610140604052610100918252620322e360ec1b6101205260a09190915262000042906005906002620000b2565b503480156200005057600080fd5b506200005c3362000062565b62000258565b600080546001600160a01b038381166001600160a01b0319831681178455604051919092169283917f8be0079c531659141344cd1fd0a4f28419497f9722a3daafe3b4186f6b6457e09190a35050565b82805482825590600052602060002090810192821562000104579160200282015b82811115620001045782518051620000f391849160209091019062000116565b5091602001919060010190620000d3565b5062000112929150620001a1565b5090565b82805462000124906200021b565b90600052602060002090601f01602090048101928262000148576000855562000193565b82601f106200016357805160ff191683800117855562000193565b8280016001018555821562000193579182015b828111156200019357825182559160200191906001019062000176565b5062000112929150620001c2565b8082111562000112576000620001b88282620001d9565b50600101620001a1565b5b80821115620001125760008155600101620001c3565b508054620001e7906200021b565b6000825580601f10620001f8575050565b601f016020900490600052602060002090810190620002189190620001c2565b50565b600181811c908216806200023057607f821691505b602082108114156200025257634e487b7160e01b600052602260045260246000fd5b50919050565b61176480620002686000396000f3fe6080604052600436106100e85760003560e01c8063a6c50b4d1161008a578063e0a37bb611610059578063e0a37bb614610281578063f12b758a146102a1578063f2fde38b146102c1578063f45cf5e4146102e157600080fd5b8063a6c50b4d146101e6578063b058e81a14610206578063b33c257714610233578063bb3f9f8d1461025357600080fd5b80634eeb7391116100c65780634eeb7391146101695780635fe39e0d14610189578063715018a6146101a95780638da5cb5b146101be57600080fd5b80631c8360ed146100ed5780632653b6d2146101025780634252ae9b14610138575b600080fd5b6101006100fb366004610d2d565b610301565b005b34801561010e57600080fd5b5061012261011d366004610e11565b61039e565b60405161012f9190610f50565b60405180910390f35b34801561014457600080fd5b50610158610153366004610f6a565b61055f565b60405161012f959493929190610fac565b34801561017557600080fd5b50610158610184366004610f6a565b6107b3565b34801561019557600080fd5b506101006101a4366004611018565b6107c3565b3480156101b557600080fd5b50610100610878565b3480156101ca57600080fd5b506000546040516001600160a01b03909116815260200161012f565b3480156101f257600080fd5b5061010061020136600461106a565b61088c565b34801561021257600080fd5b506102266102213660046110bc565b6109a7565b60405161012f91906110f6565b34801561023f57600080fd5b5061010061024e3660046110bc565b610a7a565b34801561025f57600080fd5b5061027361026e366004610f6a565b610ac0565b60405190815260200161012f565b34801561028d57600080fd5b5061010061029c366004611125565b610ae1565b3480156102ad57600080fd5b506101586102bc366004610f6a565b610b47565b3480156102cd57600080fd5b506101006102dc366004611155565b610b57565b3480156102ed57600080fd5b506101006102fc3660046110bc565b610bd0565b6000816040013582602001351161031c578160400135610322565b81602001355b90506001600160a01b03871663ca034bff61033e838535611188565b86898988886040518763ffffffff1660e01b81526004016103639594939291906111a0565b6000604051808303818588803b15801561037c57600080fd5b505af1158015610390573d6000803e3d6000fd5b505050505050505050505050565b6060600885116103f55760405162461bcd60e51b815260206004820152601a60248201527f496e76616c696420636f756e7465727061727479506f7274496400000000000060448201526064015b60405180910390fd5b60408051600080825260208201808452825190209092909161041b918f918f9101611205565b604051602081830303815290604052805190602001201461043d578b8b610440565b83835b8080601f01602080910402602001604051908101604052809392919081815260200183838082843760009201829052509395505050505b60055481101561050c576005818154811061049457610494611215565b906000526020600020016040516020016104ae9190611266565b60405160208183030381529060405280519060200120836040516020016104d591906112d8565b6040516020818303038152906040528051906020012014156104fa576001915061050c565b80610504816112f4565b915050610477565b50806105505760405162461bcd60e51b81526020600482015260136024820152722ab739bab83837b93a32b2103b32b939b4b7b760691b60448201526064016103ec565b509a9950505050505050505050565b6002818154811061056f57600080fd5b9060005260206000209060070201600091509050806000016040518060400160405290816000820180546105a29061122b565b80601f01602080910402602001604051908101604052809291908181526020018280546105ce9061122b565b801561061b5780601f106105f05761010080835404028352916020019161061b565b820191906000526020600020905b8154815290600101906020018083116105fe57829003601f168201915b50505050508152602001600182015481525050908060020160405180604001604052908160008201805461064e9061122b565b80601f016020809104026020016040519081016040528092919081815260200182805461067a9061122b565b80156106c75780601f1061069c576101008083540402835291602001916106c7565b820191906000526020600020905b8154815290600101906020018083116106aa57829003601f168201915b505050918352505060019190910154602090910152600482015460058301805492936001600160401b03909216926106fe9061122b565b80601f016020809104026020016040519081016040528092919081815260200182805461072a9061122b565b80156107775780601f1061074c57610100808354040283529160200191610777565b820191906000526020600020905b81548152906001019060200180831161075a57829003601f168201915b5050604080518082019091526006909501546001600160401b038082168752680100000000000000009091041660208601525091929150869050565b6003818154811061056f57600080fd5b6000805b60045481101561082f5785600482815481106107e5576107e5611215565b9060005260206000200154141561081d576004818154811061080957610809611215565b60009182526020822001556001915061082f565b80610827816112f4565b9150506107c7565b50806108715760405162461bcd60e51b815260206004820152601160248201527010da185b9b995b081b9bdd08199bdd5b99607a1b60448201526064016103ec565b5050505050565b610880610c11565b61088a6000610c6b565b565b6000805b60055481101561092757600581815481106108ad576108ad611215565b906000526020600020016040516020016108c79190611266565b6040516020818303038152906040528051906020012084846040516020016108f0929190611205565b6040516020818303038152906040528051906020012014156109155760019150610927565b8061091f816112f4565b915050610890565b508061096b5760405162461bcd60e51b81526020600482015260136024820152722ab739bab83837b93a32b2103b32b939b4b7b760691b60448201526064016103ec565b5050600480546001810182556000919091527f8a35acfbc15ff81a39ae7d344fd709f28e8600b4aa8c65c6b64bfe7fe36bd19b01929092555050565b60408051808201909152600081526060602082015260018054808201825560009190915282906007027fb10e2d527612073b26eecdfd717e6a320cf44b4afac2b0732d9fcbe2b7fa0cf6016109fc82826115de565b50506040518060400160405280600115158152602001604051602001610a62907f7b20226163636f756e74223a20226163636f756e74222c20227265706c79223a8152732022676f7420746865206d65737361676522207d60601b602082015260340190565b60408051601f19818403018152919052905292915050565b6003805460018101825560009190915281906007027fc2575a0e9e593c00f959f8c92f12db2869c3395a3b0502d05e2516446f71f85b01610abb82826115de565b505050565b60048181548110610ad057600080fd5b600091825260209091200154905081565b610ae9610c11565b604051638b24b4cb60e01b8152600481018390526001600160a01b03821690638b24b4cb90602401600060405180830381600087803b158015610b2b57600080fd5b505af1158015610b3f573d6000803e3d6000fd5b505050505050565b6001818154811061056f57600080fd5b610b5f610c11565b6001600160a01b038116610bc45760405162461bcd60e51b815260206004820152602660248201527f4f776e61626c653a206e6577206f776e657220697320746865207a65726f206160448201526564647265737360d01b60648201526084016103ec565b610bcd81610c6b565b50565b6002805460018101825560009190915281906007027f405787fa12a823e0f2b7631cc41b3ba8828b3321ca811111fa75cd3aa3bb5ace01610abb82826115de565b6000546001600160a01b0316331461088a5760405162461bcd60e51b815260206004820181905260248201527f4f776e61626c653a2063616c6c6572206973206e6f7420746865206f776e657260448201526064016103ec565b600080546001600160a01b038381166001600160a01b0319831681178455604051919092169283917f8be0079c531659141344cd1fd0a4f28419497f9722a3daafe3b4186f6b6457e09190a35050565b6001600160a01b0381168114610bcd57600080fd5b60008083601f840112610ce257600080fd5b5081356001600160401b03811115610cf957600080fd5b602083019150836020828501011115610d1157600080fd5b9250929050565b6001600160401b0381168114610bcd57600080fd5b60008060008060008086880360e0811215610d4757600080fd5b8735610d5281610cbb565b965060208801356001600160401b03811115610d6d57600080fd5b610d798a828b01610cd0565b909750955050604088013593506060880135610d9481610d18565b92506060607f1982011215610da857600080fd5b506080870190509295509295509295565b803560038110610dc857600080fd5b919050565b60008083601f840112610ddf57600080fd5b5081356001600160401b03811115610df657600080fd5b6020830191508360208260051b8501011115610d1157600080fd5b60008060008060008060008060008060c08b8d031215610e3057600080fd5b8a356001600160401b0380821115610e4757600080fd5b610e538e838f01610cd0565b909c509a508a9150610e6760208e01610db9565b995060408d0135915080821115610e7d57600080fd5b610e898e838f01610dcd565b909950975060608d0135915080821115610ea257600080fd5b610eae8e838f01610cd0565b909750955060808d0135945060a08d0135915080821115610ece57600080fd5b50610edb8d828e01610cd0565b915080935050809150509295989b9194979a5092959850565b60005b83811015610f0f578181015183820152602001610ef7565b83811115610f1e576000848401525b50505050565b60008151808452610f3c816020860160208601610ef4565b601f01601f19169290920160200192915050565b602081526000610f636020830184610f24565b9392505050565b600060208284031215610f7c57600080fd5b5035919050565b6000815160408452610f986040850182610f24565b602093840151949093019390935250919050565b60c081526000610fbf60c0830188610f83565b8281036020840152610fd18188610f83565b90506001600160401b0380871660408501528382036060850152610ff58287610f24565b92508085511660808501528060208601511660a085015250509695505050505050565b6000806000806060858703121561102e57600080fd5b8435935060208501356001600160401b0381111561104b57600080fd5b61105787828801610cd0565b9598909750949560400135949350505050565b6000806000806060858703121561108057600080fd5b843593506020850135925060408501356001600160401b038111156110a457600080fd5b6110b087828801610cd0565b95989497509550505050565b6000602082840312156110ce57600080fd5b81356001600160401b038111156110e457600080fd5b820160c08185031215610f6357600080fd5b602081528151151560208201526000602083015160408084015261111d6060840182610f24565b949350505050565b6000806040838503121561113857600080fd5b82359150602083013561114a81610cbb565b809150509250929050565b60006020828403121561116757600080fd5b8135610f6381610cbb565b634e487b7160e01b600052601160045260246000fd5b6000821982111561119b5761119b611172565b500190565b85815260c060208201528360c0820152838560e0830137600060e08583010152600060e0601f19601f87011683010190506001600160401b03841660408301528235606083015260208301356080830152604083013560a08301529695505050505050565b8183823760009101908152919050565b634e487b7160e01b600052603260045260246000fd5b600181811c9082168061123f57607f821691505b6020821081141561126057634e487b7160e01b600052602260045260246000fd5b50919050565b60008083546112748161122b565b6001828116801561128c576001811461129d576112cc565b60ff198416875282870194506112cc565b8760005260208060002060005b858110156112c35781548a8201529084019082016112aa565b50505082870194505b50929695505050505050565b600082516112ea818460208701610ef4565b9190910192915050565b600060001982141561130857611308611172565b5060010190565b60008235603e198336030181126112ea57600080fd5b6000808335601e1984360301811261133c57600080fd5b8301803591506001600160401b0382111561135657600080fd5b602001915036819003821315610d1157600080fd5b634e487b7160e01b600052604160045260246000fd5b601f821115610abb57600081815260208120601f850160051c810160208610156113a85750805b601f850160051c820191505b81811015610b3f578281556001016113b4565b600019600383901b1c191660019190911b1790565b6113e68283611325565b6001600160401b038111156113fd576113fd61136b565b6114118161140b855461122b565b85611381565b6000601f82116001811461143f576000831561142d5750838201355b61143784826113c7565b865550611499565b600085815260209020601f19841690835b828110156114705786850135825560209485019460019092019101611450565b508482101561148d5760001960f88660031b161c19848701351681555b505060018360011b0185555b50505050602082013560018201555050565b600081356114b881610d18565b92915050565b6001600160401b038311156114d5576114d561136b565b6114e9836114e3835461122b565b83611381565b6000601f84116001811461151757600085156115055750838201355b61150f86826113c7565b845550610871565b600083815260209020601f19861690835b828110156115485786850135825560209485019460019092019101611528565b50868210156115655760001960f88860031b161c19848701351681555b505060018560011b0183555050505050565b813561158281610d18565b815467ffffffffffffffff19166001600160401b0382161782555060208201356115ab81610d18565b81546fffffffffffffffff0000000000000000191660409190911b6fffffffffffffffff00000000000000001617905550565b6115e8828361130f565b6115f28182611325565b6001600160401b038111156116095761160961136b565b61161d81611617865461122b565b86611381565b6000601f82116001811461164b57600083156116395750838201355b61164384826113c7565b8755506116a5565b600086815260209020601f19841690835b8281101561167c578685013582556020948501946001909201910161165c565b50848210156116995760001960f88660031b161c19848701351681555b505060018360011b0186555b5050505060208101356001830155506116cd6116c4602084018461130f565b600283016113dc565b6116fd6116dc604084016114ab565b600483016001600160401b0382166001600160401b03198254161781555050565b61170a6060830183611325565b6117188183600586016114be565b505061172a6080830160068301611577565b505056fea2646970667358221220dccd1b1d3c9c1562b5f31c8bc3fce32106a66ed2870c7d616bec298270b067f564736f6c63430008090033",
  "linkReferences": {},
  "deployedLinkReferences": {}
}