{
  "_format": "hh-sol-artifact-1",
  "contractName": "Dispatcher",
  "sourceName": "contracts/Dispatcher.sol",
  "abi": [
    {
      "inputs": [
        {
          "internalType": "contract ZKMintVerifier",
          "name": "_verifier",
          "type": "address"
        },
        {
          "internalType": "address payable",
          "name": "_escrow",
          "type": "address"
        },
        {
          "internalType": "string",
          "name": "initPortPrefix",
          "type": "string"
        }
      ],
      "stateMutability": "nonpayable",
      "type": "constructor"
    },
    {
      "anonymous": false,
      "inputs": [
        {
          "indexed": true,
          "internalType": "address",
          "name": "sourcePortAddress",
          "type": "address"
        },
        {
          "indexed": true,
          "internalType": "bytes32",
          "name": "sourceChannelId",
          "type": "bytes32"
        },
        {
          "indexed": false,
          "internalType": "uint64",
          "name": "sequence",
          "type": "uint64"
        }
      ],
      "name": "Acknowledgement",
      "type": "event"
    },
    {
      "anonymous": false,
      "inputs": [
        {
          "indexed": true,
          "internalType": "address",
          "name": "portAddress",
          "type": "address"
        },
        {
          "indexed": true,
          "internalType": "bytes32",
          "name": "channelId",
          "type": "bytes32"
        }
      ],
      "name": "CloseIbcChannel",
      "type": "event"
    },
    {
      "anonymous": false,
      "inputs": [
        {
          "indexed": true,
          "internalType": "address",
          "name": "portAddress",
          "type": "address"
        },
        {
          "indexed": false,
          "internalType": "bytes32",
          "name": "channelId",
          "type": "bytes32"
        }
      ],
      "name": "ConnectIbcChannel",
      "type": "event"
    },
    {
      "anonymous": false,
      "inputs": [
        {
          "indexed": true,
          "internalType": "address",
          "name": "portAddress",
          "type": "address"
        },
        {
          "indexed": false,
          "internalType": "string",
          "name": "version",
          "type": "string"
        },
        {
          "indexed": false,
          "internalType": "enum ChannelOrder",
          "name": "ordering",
          "type": "uint8"
        },
        {
          "indexed": false,
          "internalType": "string[]",
          "name": "connectionHops",
          "type": "string[]"
        },
        {
          "indexed": false,
          "internalType": "string",
          "name": "counterpartyPortId",
          "type": "string"
        },
        {
          "indexed": false,
          "internalType": "bytes32",
          "name": "counterpartyChannelId",
          "type": "bytes32"
        }
      ],
      "name": "OpenIbcChannel",
      "type": "event"
    },
    {
      "anonymous": false,
      "inputs": [
        {
          "indexed": true,
          "internalType": "address",
          "name": "previousOwner",
          "type": "address"
        },
        {
          "indexed": true,
          "internalType": "address",
          "name": "newOwner",
          "type": "address"
        }
      ],
      "name": "OwnershipTransferred",
      "type": "event"
    },
    {
      "anonymous": false,
      "inputs": [
        {
          "indexed": true,
          "internalType": "address",
          "name": "destPortAddress",
          "type": "address"
        },
        {
          "indexed": true,
          "internalType": "bytes32",
          "name": "destChannelId",
          "type": "bytes32"
        },
        {
          "indexed": false,
          "internalType": "uint64",
          "name": "sequence",
          "type": "uint64"
        }
      ],
      "name": "RecvPacket",
      "type": "event"
    },
    {
      "anonymous": false,
      "inputs": [
        {
          "indexed": true,
          "internalType": "address",
          "name": "sourcePortAddress",
          "type": "address"
        },
        {
          "indexed": true,
          "internalType": "bytes32",
          "name": "sourceChannelId",
          "type": "bytes32"
        },
        {
          "indexed": false,
          "internalType": "bytes",
          "name": "packet",
          "type": "bytes"
        },
        {
          "indexed": false,
          "internalType": "uint64",
          "name": "sequence",
          "type": "uint64"
        },
        {
          "indexed": false,
          "internalType": "uint64",
          "name": "timeoutTimestamp",
          "type": "uint64"
        },
        {
          "components": [
            {
              "internalType": "uint256",
              "name": "recvFee",
              "type": "uint256"
            },
            {
              "internalType": "uint256",
              "name": "ackFee",
              "type": "uint256"
            },
            {
              "internalType": "uint256",
              "name": "timeoutFee",
              "type": "uint256"
            }
          ],
          "indexed": false,
          "internalType": "struct PacketFee",
          "name": "fee",
          "type": "tuple"
        }
      ],
      "name": "SendPacket",
      "type": "event"
    },
    {
      "anonymous": false,
      "inputs": [
        {
          "indexed": true,
          "internalType": "address",
          "name": "sourcePortAddress",
          "type": "address"
        },
        {
          "indexed": true,
          "internalType": "bytes32",
          "name": "sourceChannelId",
          "type": "bytes32"
        },
        {
          "indexed": true,
          "internalType": "uint64",
          "name": "sequence",
          "type": "uint64"
        }
      ],
      "name": "Timeout",
      "type": "event"
    },
    {
      "anonymous": false,
      "inputs": [
        {
          "indexed": true,
          "internalType": "address",
          "name": "writerPortAddress",
          "type": "address"
        },
        {
          "indexed": true,
          "internalType": "bytes32",
          "name": "writerChannelId",
          "type": "bytes32"
        },
        {
          "indexed": false,
          "internalType": "uint64",
          "name": "sequence",
          "type": "uint64"
        },
        {
          "components": [
            {
              "internalType": "bool",
              "name": "success",
              "type": "bool"
            },
            {
              "internalType": "bytes",
              "name": "data",
              "type": "bytes"
            }
          ],
          "indexed": false,
          "internalType": "struct AckPacket",
          "name": "ackPacket",
          "type": "tuple"
        }
      ],
      "name": "WriteAckPacket",
      "type": "event"
    },
    {
      "anonymous": false,
      "inputs": [
        {
          "indexed": true,
          "internalType": "address",
          "name": "writerPortAddress",
          "type": "address"
        },
        {
          "indexed": true,
          "internalType": "bytes32",
          "name": "writerChannelId",
          "type": "bytes32"
        },
        {
          "indexed": false,
          "internalType": "uint64",
          "name": "sequence",
          "type": "uint64"
        },
        {
          "indexed": false,
          "internalType": "uint64",
          "name": "pktTimeoutHeight",
          "type": "uint64"
        },
        {
          "indexed": false,
          "internalType": "uint64",
          "name": "pktTimeoutTimestamp",
          "type": "uint64"
        }
      ],
      "name": "WriteTimeoutPacket",
      "type": "event"
    },
    {
      "inputs": [
        {
          "internalType": "contract IbcReceiver",
          "name": "receiver",
          "type": "address"
        },
        {
          "components": [
            {
              "components": [
                {
                  "internalType": "string",
                  "name": "portId",
                  "type": "string"
                },
                {
                  "internalType": "bytes32",
                  "name": "channelId",
                  "type": "bytes32"
                }
              ],
              "internalType": "struct IbcEndpoint",
              "name": "src",
              "type": "tuple"
            },
            {
              "components": [
                {
                  "internalType": "string",
                  "name": "portId",
                  "type": "string"
                },
                {
                  "internalType": "bytes32",
                  "name": "channelId",
                  "type": "bytes32"
                }
              ],
              "internalType": "struct IbcEndpoint",
              "name": "dest",
              "type": "tuple"
            },
            {
              "internalType": "uint64",
              "name": "sequence",
              "type": "uint64"
            },
            {
              "internalType": "bytes",
              "name": "data",
              "type": "bytes"
            },
            {
              "components": [
                {
                  "internalType": "uint64",
                  "name": "blockHeight",
                  "type": "uint64"
                },
                {
                  "internalType": "uint64",
                  "name": "timestamp",
                  "type": "uint64"
                }
              ],
              "internalType": "struct IbcTimeout",
              "name": "timeout",
              "type": "tuple"
            }
          ],
          "internalType": "struct IbcPacket",
          "name": "packet",
          "type": "tuple"
        },
        {
          "components": [
            {
              "internalType": "bool",
              "name": "success",
              "type": "bool"
            },
            {
              "internalType": "bytes",
              "name": "data",
              "type": "bytes"
            }
          ],
          "internalType": "struct AckPacket",
          "name": "ackPacket",
          "type": "tuple"
        },
        {
          "components": [
            {
              "internalType": "uint64",
              "name": "proofHeight",
              "type": "uint64"
            },
            {
              "internalType": "bytes",
              "name": "proof",
              "type": "bytes"
            }
          ],
          "internalType": "struct Proof",
          "name": "proof",
          "type": "tuple"
        }
      ],
      "name": "acknowledgement",
      "outputs": [],
      "stateMutability": "nonpayable",
      "type": "function"
    },
    {
      "inputs": [
        {
          "internalType": "bytes32",
          "name": "channelId",
          "type": "bytes32"
        }
      ],
      "name": "closeIbcChannel",
      "outputs": [],
      "stateMutability": "nonpayable",
      "type": "function"
    },
    {
      "inputs": [
        {
          "internalType": "contract IbcReceiver",
          "name": "portAddress",
          "type": "address"
        },
        {
          "internalType": "bytes32",
          "name": "channelId",
          "type": "bytes32"
        },
        {
          "internalType": "string[]",
          "name": "connectionHops",
          "type": "string[]"
        },
        {
          "internalType": "enum ChannelOrder",
          "name": "ordering",
          "type": "uint8"
        },
        {
          "internalType": "string",
          "name": "counterpartyPortId",
          "type": "string"
        },
        {
          "internalType": "bytes32",
          "name": "counterpartyChannelId",
          "type": "bytes32"
        },
        {
          "internalType": "string",
          "name": "counterpartyVersion",
          "type": "string"
        },
        {
          "components": [
            {
              "internalType": "uint64",
              "name": "proofHeight",
              "type": "uint64"
            },
            {
              "internalType": "bytes",
              "name": "proof",
              "type": "bytes"
            }
          ],
          "internalType": "struct Proof",
          "name": "proof",
          "type": "tuple"
        }
      ],
      "name": "connectIbcChannel",
      "outputs": [],
      "stateMutability": "nonpayable",
      "type": "function"
    },
    {
      "inputs": [
        {
          "components": [
            {
              "internalType": "bytes",
              "name": "clientState",
              "type": "bytes"
            },
            {
              "components": [
                {
                  "internalType": "uint256",
                  "name": "app_hash",
                  "type": "uint256"
                },
                {
                  "internalType": "uint256",
                  "name": "valset_hash",
                  "type": "uint256"
                },
                {
                  "internalType": "uint256",
                  "name": "time",
                  "type": "uint256"
                },
                {
                  "internalType": "uint256",
                  "name": "height",
                  "type": "uint256"
                }
              ],
              "internalType": "struct ConsensusState",
              "name": "consensusState",
              "type": "tuple"
            }
          ],
          "internalType": "struct InitClientMsg",
          "name": "initClientMsg",
          "type": "tuple"
        }
      ],
      "name": "createClient",
      "outputs": [],
      "stateMutability": "nonpayable",
      "type": "function"
    },
    {
      "inputs": [
        {
          "internalType": "address",
          "name": "portAddress",
          "type": "address"
        },
        {
          "internalType": "bytes32",
          "name": "channelId",
          "type": "bytes32"
        }
      ],
      "name": "getChannel",
      "outputs": [
        {
          "components": [
            {
              "internalType": "string",
              "name": "version",
              "type": "string"
            },
            {
              "internalType": "enum ChannelOrder",
              "name": "ordering",
              "type": "uint8"
            },
            {
              "internalType": "string[]",
              "name": "connectionHops",
              "type": "string[]"
            },
            {
              "internalType": "string",
              "name": "counterpartyPortId",
              "type": "string"
            },
            {
              "internalType": "bytes32",
              "name": "counterpartyChannelId",
              "type": "bytes32"
            }
          ],
          "internalType": "struct Channel",
          "name": "",
          "type": "tuple"
        }
      ],
      "stateMutability": "view",
      "type": "function"
    },
    {
      "inputs": [
        {
          "internalType": "address",
          "name": "packetSender",
          "type": "address"
        },
        {
          "internalType": "bytes32",
          "name": "channelId",
          "type": "bytes32"
        },
        {
          "internalType": "uint64",
          "name": "sequence",
          "type": "uint64"
        }
      ],
      "name": "getTotalPacketFees",
      "outputs": [
        {
          "components": [
            {
              "internalType": "uint256",
              "name": "recvFee",
              "type": "uint256"
            },
            {
              "internalType": "uint256",
              "name": "ackFee",
              "type": "uint256"
            },
            {
              "internalType": "uint256",
              "name": "timeoutFee",
              "type": "uint256"
            }
          ],
          "internalType": "struct PacketFee",
          "name": "",
          "type": "tuple"
        }
      ],
      "stateMutability": "view",
      "type": "function"
    },
    {
      "inputs": [],
      "name": "latestConsensusState",
      "outputs": [
        {
          "internalType": "uint256",
          "name": "app_hash",
          "type": "uint256"
        },
        {
          "internalType": "uint256",
          "name": "valset_hash",
          "type": "uint256"
        },
        {
          "internalType": "uint256",
          "name": "time",
          "type": "uint256"
        },
        {
          "internalType": "uint256",
          "name": "height",
          "type": "uint256"
        }
      ],
      "stateMutability": "view",
      "type": "function"
    },
    {
      "inputs": [
        {
          "internalType": "address",
          "name": "portAddress",
          "type": "address"
        },
        {
          "internalType": "bytes32",
          "name": "channelId",
          "type": "bytes32"
        },
        {
          "components": [
            {
              "internalType": "uint64",
              "name": "proofHeight",
              "type": "uint64"
            },
            {
              "internalType": "bytes",
              "name": "proof",
              "type": "bytes"
            }
          ],
          "internalType": "struct Proof",
          "name": "proof",
          "type": "tuple"
        }
      ],
      "name": "onCloseIbcChannel",
      "outputs": [],
      "stateMutability": "nonpayable",
      "type": "function"
    },
    {
      "inputs": [
        {
          "internalType": "contract IbcReceiver",
          "name": "portAddress",
          "type": "address"
        },
        {
          "internalType": "string",
          "name": "version",
          "type": "string"
        },
        {
          "internalType": "enum ChannelOrder",
          "name": "ordering",
          "type": "uint8"
        },
        {
          "internalType": "string[]",
          "name": "connectionHops",
          "type": "string[]"
        },
        {
          "components": [
            {
              "internalType": "string",
              "name": "portId",
              "type": "string"
            },
            {
              "internalType": "bytes32",
              "name": "channelId",
              "type": "bytes32"
            },
            {
              "internalType": "string",
              "name": "version",
              "type": "string"
            }
          ],
          "internalType": "struct CounterParty",
          "name": "counterparty",
          "type": "tuple"
        },
        {
          "components": [
            {
              "internalType": "uint64",
              "name": "proofHeight",
              "type": "uint64"
            },
            {
              "internalType": "bytes",
              "name": "proof",
              "type": "bytes"
            }
          ],
          "internalType": "struct Proof",
          "name": "proof",
          "type": "tuple"
        }
      ],
      "name": "openIbcChannel",
      "outputs": [],
      "stateMutability": "nonpayable",
      "type": "function"
    },
    {
      "inputs": [],
      "name": "owner",
      "outputs": [
        {
          "internalType": "address",
          "name": "",
          "type": "address"
        }
      ],
      "stateMutability": "view",
      "type": "function"
    },
    {
      "inputs": [
        {
          "internalType": "address",
          "name": "portAddress",
          "type": "address"
        },
        {
          "internalType": "bytes32",
          "name": "channelId",
          "type": "bytes32"
        },
        {
          "internalType": "uint64",
          "name": "sequence",
          "type": "uint64"
        },
        {
          "components": [
            {
              "internalType": "uint256",
              "name": "recvFee",
              "type": "uint256"
            },
            {
              "internalType": "uint256",
              "name": "ackFee",
              "type": "uint256"
            },
            {
              "internalType": "uint256",
              "name": "timeoutFee",
              "type": "uint256"
            }
          ],
          "internalType": "struct PacketFee",
          "name": "fee",
          "type": "tuple"
        }
      ],
      "name": "payPacketFeeAsync",
      "outputs": [],
      "stateMutability": "payable",
      "type": "function"
    },
    {
      "inputs": [
        {
          "internalType": "address",
          "name": "",
          "type": "address"
        },
        {
          "internalType": "bytes32",
          "name": "",
          "type": "bytes32"
        }
      ],
      "name": "portChannelMap",
      "outputs": [
        {
          "internalType": "string",
          "name": "version",
          "type": "string"
        },
        {
          "internalType": "enum ChannelOrder",
          "name": "ordering",
          "type": "uint8"
        },
        {
          "internalType": "string",
          "name": "counterpartyPortId",
          "type": "string"
        },
        {
          "internalType": "bytes32",
          "name": "counterpartyChannelId",
          "type": "bytes32"
        }
      ],
      "stateMutability": "view",
      "type": "function"
    },
    {
      "inputs": [
        {
          "internalType": "address",
          "name": "addr",
          "type": "address"
        },
        {
          "internalType": "string",
          "name": "portId",
          "type": "string"
        }
      ],
      "name": "portIdAddressMatch",
      "outputs": [
        {
          "internalType": "bool",
          "name": "",
          "type": "bool"
        }
      ],
      "stateMutability": "view",
      "type": "function"
    },
    {
      "inputs": [
        {
          "internalType": "contract IbcReceiver",
          "name": "receiver",
          "type": "address"
        },
        {
          "components": [
            {
              "components": [
                {
                  "internalType": "string",
                  "name": "portId",
                  "type": "string"
                },
                {
                  "internalType": "bytes32",
                  "name": "channelId",
                  "type": "bytes32"
                }
              ],
              "internalType": "struct IbcEndpoint",
              "name": "src",
              "type": "tuple"
            },
            {
              "components": [
                {
                  "internalType": "string",
                  "name": "portId",
                  "type": "string"
                },
                {
                  "internalType": "bytes32",
                  "name": "channelId",
                  "type": "bytes32"
                }
              ],
              "internalType": "struct IbcEndpoint",
              "name": "dest",
              "type": "tuple"
            },
            {
              "internalType": "uint64",
              "name": "sequence",
              "type": "uint64"
            },
            {
              "internalType": "bytes",
              "name": "data",
              "type": "bytes"
            },
            {
              "components": [
                {
                  "internalType": "uint64",
                  "name": "blockHeight",
                  "type": "uint64"
                },
                {
                  "internalType": "uint64",
                  "name": "timestamp",
                  "type": "uint64"
                }
              ],
              "internalType": "struct IbcTimeout",
              "name": "timeout",
              "type": "tuple"
            }
          ],
          "internalType": "struct IbcPacket",
          "name": "packet",
          "type": "tuple"
        },
        {
          "components": [
            {
              "internalType": "uint64",
              "name": "proofHeight",
              "type": "uint64"
            },
            {
              "internalType": "bytes",
              "name": "proof",
              "type": "bytes"
            }
          ],
          "internalType": "struct Proof",
          "name": "proof",
          "type": "tuple"
        }
      ],
      "name": "recvPacket",
      "outputs": [],
      "stateMutability": "nonpayable",
      "type": "function"
    },
    {
      "inputs": [],
      "name": "renounceOwnership",
      "outputs": [],
      "stateMutability": "nonpayable",
      "type": "function"
    },
    {
      "inputs": [
        {
          "internalType": "bytes32",
          "name": "channelId",
          "type": "bytes32"
        },
        {
          "internalType": "bytes",
          "name": "packet",
          "type": "bytes"
        },
        {
          "internalType": "uint64",
          "name": "timeoutTimestamp",
          "type": "uint64"
        },
        {
          "components": [
            {
              "internalType": "uint256",
              "name": "recvFee",
              "type": "uint256"
            },
            {
              "internalType": "uint256",
              "name": "ackFee",
              "type": "uint256"
            },
            {
              "internalType": "uint256",
              "name": "timeoutFee",
              "type": "uint256"
            }
          ],
          "internalType": "struct PacketFee",
          "name": "fee",
          "type": "tuple"
        }
      ],
      "name": "sendPacket",
      "outputs": [],
      "stateMutability": "payable",
      "type": "function"
    },
    {
      "inputs": [
        {
          "internalType": "string",
          "name": "_portPrefix",
          "type": "string"
        }
      ],
      "name": "setPortPrefix",
      "outputs": [],
      "stateMutability": "nonpayable",
      "type": "function"
    },
    {
      "inputs": [
        {
          "internalType": "contract IbcReceiver",
          "name": "receiver",
          "type": "address"
        },
        {
          "components": [
            {
              "components": [
                {
                  "internalType": "string",
                  "name": "portId",
                  "type": "string"
                },
                {
                  "internalType": "bytes32",
                  "name": "channelId",
                  "type": "bytes32"
                }
              ],
              "internalType": "struct IbcEndpoint",
              "name": "src",
              "type": "tuple"
            },
            {
              "components": [
                {
                  "internalType": "string",
                  "name": "portId",
                  "type": "string"
                },
                {
                  "internalType": "bytes32",
                  "name": "channelId",
                  "type": "bytes32"
                }
              ],
              "internalType": "struct IbcEndpoint",
              "name": "dest",
              "type": "tuple"
            },
            {
              "internalType": "uint64",
              "name": "sequence",
              "type": "uint64"
            },
            {
              "internalType": "bytes",
              "name": "data",
              "type": "bytes"
            },
            {
              "components": [
                {
                  "internalType": "uint64",
                  "name": "blockHeight",
                  "type": "uint64"
                },
                {
                  "internalType": "uint64",
                  "name": "timestamp",
                  "type": "uint64"
                }
              ],
              "internalType": "struct IbcTimeout",
              "name": "timeout",
              "type": "tuple"
            }
          ],
          "internalType": "struct IbcPacket",
          "name": "packet",
          "type": "tuple"
        },
        {
          "components": [
            {
              "internalType": "uint64",
              "name": "proofHeight",
              "type": "uint64"
            },
            {
              "internalType": "bytes",
              "name": "proof",
              "type": "bytes"
            }
          ],
          "internalType": "struct Proof",
          "name": "proof",
          "type": "tuple"
        }
      ],
      "name": "timeout",
      "outputs": [],
      "stateMutability": "nonpayable",
      "type": "function"
    },
    {
      "inputs": [
        {
          "internalType": "address",
          "name": "newOwner",
          "type": "address"
        }
      ],
      "name": "transferOwnership",
      "outputs": [],
      "stateMutability": "nonpayable",
      "type": "function"
    },
    {
      "inputs": [
        {
          "components": [
            {
              "components": [
                {
                  "internalType": "uint256",
                  "name": "app_hash",
                  "type": "uint256"
                },
                {
                  "internalType": "uint256",
                  "name": "valset_hash",
                  "type": "uint256"
                },
                {
                  "internalType": "uint256",
                  "name": "time",
                  "type": "uint256"
                },
                {
                  "internalType": "uint256",
                  "name": "height",
                  "type": "uint256"
                }
              ],
              "internalType": "struct ConsensusState",
              "name": "consensusState",
              "type": "tuple"
            },
            {
              "components": [
                {
                  "internalType": "uint256[2]",
                  "name": "a",
                  "type": "uint256[2]"
                },
                {
                  "internalType": "uint256[2][2]",
                  "name": "b",
                  "type": "uint256[2][2]"
                },
                {
                  "internalType": "uint256[2]",
                  "name": "c",
                  "type": "uint256[2]"
                }
              ],
              "internalType": "struct ZkProof",
              "name": "zkProof",
              "type": "tuple"
            }
          ],
          "internalType": "struct UpdateClientMsg",
          "name": "updateClientMsg",
          "type": "tuple"
        }
      ],
      "name": "updateClient",
      "outputs": [],
      "stateMutability": "nonpayable",
      "type": "function"
    },
    {
      "inputs": [
        {
          "components": [
            {
              "internalType": "bytes",
              "name": "clientState",
              "type": "bytes"
            },
            {
              "components": [
                {
                  "internalType": "uint256",
                  "name": "app_hash",
                  "type": "uint256"
                },
                {
                  "internalType": "uint256",
                  "name": "valset_hash",
                  "type": "uint256"
                },
                {
                  "internalType": "uint256",
                  "name": "time",
                  "type": "uint256"
                },
                {
                  "internalType": "uint256",
                  "name": "height",
                  "type": "uint256"
                }
              ],
              "internalType": "struct ConsensusState",
              "name": "consensusState",
              "type": "tuple"
            }
          ],
          "internalType": "struct UpgradeClientMsg",
          "name": "upgradeClientMsg",
          "type": "tuple"
        }
      ],
      "name": "upgradeClient",
      "outputs": [],
      "stateMutability": "nonpayable",
      "type": "function"
    },
    {
      "inputs": [
        {
          "internalType": "address",
          "name": "receiver",
          "type": "address"
        },
        {
          "components": [
            {
              "components": [
                {
                  "internalType": "string",
                  "name": "portId",
                  "type": "string"
                },
                {
                  "internalType": "bytes32",
                  "name": "channelId",
                  "type": "bytes32"
                }
              ],
              "internalType": "struct IbcEndpoint",
              "name": "src",
              "type": "tuple"
            },
            {
              "components": [
                {
                  "internalType": "string",
                  "name": "portId",
                  "type": "string"
                },
                {
                  "internalType": "bytes32",
                  "name": "channelId",
                  "type": "bytes32"
                }
              ],
              "internalType": "struct IbcEndpoint",
              "name": "dest",
              "type": "tuple"
            },
            {
              "internalType": "uint64",
              "name": "sequence",
              "type": "uint64"
            },
            {
              "internalType": "bytes",
              "name": "data",
              "type": "bytes"
            },
            {
              "components": [
                {
                  "internalType": "uint64",
                  "name": "blockHeight",
                  "type": "uint64"
                },
                {
                  "internalType": "uint64",
                  "name": "timestamp",
                  "type": "uint64"
                }
              ],
              "internalType": "struct IbcTimeout",
              "name": "timeout",
              "type": "tuple"
            }
          ],
          "internalType": "struct IbcPacket",
          "name": "packet",
          "type": "tuple"
        }
      ],
      "name": "writeTimeoutPacket",
      "outputs": [],
      "stateMutability": "nonpayable",
      "type": "function"
    }
  ],
  "bytecode": "0x60806040526002805460ff60a01b191690553480156200001e57600080fd5b50604051620055c6380380620055c6833981016040819052620000419162000229565b6200004c3362000104565b600180546001600160a01b038086166001600160a01b031992831617909255600280549285169290911682179055620000cb5760405162461bcd60e51b815260206004820152601d60248201527f457363726f772063616e6e6f74206265207a65726f2061646472657373000000604482015260640160405180910390fd5b8051620000e090600790602084019062000154565b50516008805463ffffffff191663ffffffff90921691909117905550620003709050565b600080546001600160a01b038381166001600160a01b0319831681178455604051919092169283917f8be0079c531659141344cd1fd0a4f28419497f9722a3daafe3b4186f6b6457e09190a35050565b828054620001629062000333565b90600052602060002090601f016020900481019282620001865760008555620001d1565b82601f10620001a157805160ff1916838001178555620001d1565b82800160010185558215620001d1579182015b82811115620001d1578251825591602001919060010190620001b4565b50620001df929150620001e3565b5090565b5b80821115620001df5760008155600101620001e4565b6001600160a01b03811681146200021057600080fd5b50565b634e487b7160e01b600052604160045260246000fd5b6000806000606084860312156200023f57600080fd5b83516200024c81620001fa565b809350506020808501516200026181620001fa565b60408601519093506001600160401b03808211156200027f57600080fd5b818701915087601f8301126200029457600080fd5b815181811115620002a957620002a962000213565b604051601f8201601f19908116603f01168101908382118183101715620002d457620002d462000213565b816040528281528a86848701011115620002ed57600080fd5b600093505b82841015620003115784840186015181850187015292850192620002f2565b82841115620003235760008684830101525b8096505050505050509250925092565b600181811c908216806200034857607f821691505b602082108114156200036a57634e487b7160e01b600052602260045260246000fd5b50919050565b61524680620003806000396000f3fe6080604052600436106101355760003560e01c80639f59ae71116100ab578063ca034bff1161006f578063ca034bff14610382578063ccc0260714610395578063d58be73c146103a8578063e36e013f146103ea578063f2fde38b1461041a578063f4ecbb151461043a57600080fd5b80639f59ae71146102af578063b2b1bf03146102cf578063bba10517146102ff578063be57b14f1461031f578063c2a2514d1461033f57600080fd5b80638059885a116100fd5780638059885a146101e757806380840e6b146102075780638b24b4cb146102275780638da5cb5b1461024757806394e47af81461026f578063951538f31461028f57600080fd5b80633f7625ab1461013a57806342852d241461015c57806342b7dfe314610192578063520b128e146101b2578063715018a6146101d2575b600080fd5b34801561014657600080fd5b5061015a610155366004613baa565b61045a565b005b34801561016857600080fd5b5061017c610177366004613bf9565b6106bc565b6040516101899190613cb9565b60405180910390f35b34801561019e57600080fd5b5061015a6101ad366004613e35565b61095d565b3480156101be57600080fd5b5061015a6101cd366004613f2c565b610d32565b3480156101de57600080fd5b5061015a611396565b3480156101f357600080fd5b5061015a610202366004613fc6565b6113aa565b34801561021357600080fd5b5061015a610222366004613feb565b6114f7565b34801561023357600080fd5b5061015a610242366004614027565b61156e565b34801561025357600080fd5b506000546040516001600160a01b039091168152602001610189565b34801561027b57600080fd5b5061015a61028a366004614040565b6118b9565b34801561029b57600080fd5b5061015a6102aa3660046140b5565b612276565b3480156102bb57600080fd5b5061015a6102ca366004614103565b6126fc565b3480156102db57600080fd5b506102ef6102ea366004613bf9565b61272e565b6040516101899493929190614144565b34801561030b57600080fd5b5061015a61031a366004614040565b61287a565b34801561032b57600080fd5b5061015a61033a36600461419a565b612b1f565b34801561034b57600080fd5b506003546004546005546006546103629392919084565b604080519485526020850193909352918301526060820152608001610189565b61015a61039036600461428c565b612da4565b61015a6103a33660046142fb565b613295565b3480156103b457600080fd5b506103c86103c336600461434b565b61348e565b6040805182518152602080840151908201529181015190820152606001610189565b3480156103f657600080fd5b5061040a610405366004614389565b613513565b6040519015158152602001610189565b34801561042657600080fd5b5061015a6104353660046143dd565b6135fe565b34801561044657600080fd5b5061015a610455366004613feb565b613677565b6104728261046883806143fa565b610405908061441a565b6104975760405162461bcd60e51b815260040161048e90614460565b60405180910390fd5b6001600160a01b0382166000908152600e6020908152604082209082906104c0908501856143fa565b60200135815260200190815260200160002060008360400160208101906104e791906144af565b6001600160401b0316815260208101919091526040016000205460ff16905080156105545760405162461bcd60e51b815260206004820152601d60248201527f5061636b6574207265636569707420616c726561647920657869737473000000604482015260640161048e565b61056460c0830160a084016144af565b6001600160401b03161580610591575061058460c0830160a084016144af565b6001600160401b03164210155b80156105d557506105a860a08301608084016144af565b6001600160401b031615806105d557506105c860a08301608084016144af565b6001600160401b03164310155b6106215760405162461bcd60e51b815260206004820152601860248201527f5061636b6574206e6f742074696d6564206f7574207965740000000000000000604482015260640161048e565b61062e60208301836143fa565b602001356001600160a01b0384167fb46f131b4b05b6cae7605b6f86bc6a1210f3eb7dc8bd1297817d62b1dcef3e0c61066d60608601604087016144af565b61067d60a08701608088016144af565b61068d60c0880160a089016144af565b604080516001600160401b039485168152928416602084015292168183015290519081900360600190a3505050565b6106ee6040805160a0810190915260608152602081016000815260606020820181905260408201819052600091015290565b6001600160a01b038316600090815260096020908152604080832085845290915290819020815160a0810190925280548290829061072b906144ca565b80601f0160208091040260200160405190810160405280929190818152602001828054610757906144ca565b80156107a45780601f10610779576101008083540402835291602001916107a4565b820191906000526020600020905b81548152906001019060200180831161078757829003601f168201915b5050509183525050600182015460209091019060ff1660028111156107cb576107cb613c81565b60028111156107dc576107dc613c81565b815260200160028201805480602002602001604051908101604052809291908181526020016000905b828210156108b1578382906000526020600020018054610824906144ca565b80601f0160208091040260200160405190810160405280929190818152602001828054610850906144ca565b801561089d5780601f106108725761010080835404028352916020019161089d565b820191906000526020600020905b81548152906001019060200180831161088057829003601f168201915b505050505081526020019060010190610805565b5050505081526020016003820180546108c9906144ca565b80601f01602080910402602001604051908101604052809291908181526020018280546108f5906144ca565b80156109425780601f1061091757610100808354040283529160200191610942565b820191906000526020600020905b81548152906001019060200180831161092557829003601f168201915b50505050508152602001600482015481525050905092915050565b6001546040805160808101909152605e8082526001600160a01b039092169163c9b73c6c9160039185919061511360208301396040518463ffffffff1660e01b81526004016109ae939291906145ae565b60206040518083038186803b1580156109c657600080fd5b505afa1580156109da573d6000803e3d6000fd5b505050506040513d601f19601f820116820180604052508101906109fe919061464a565b610a1a5760405162461bcd60e51b815260040161048e90614665565b60405163a6c50b4d60e01b81526001600160a01b038c169063a6c50b4d90610a4c908d9088908890889060040161469c565b600060405180830381600087803b158015610a6657600080fd5b505af1158015610a7a573d6000803e3d6000fd5b505050506040518060a0016040528084848080601f016020809104026020016040519081016040528093929190818152602001838380828437600092019190915250505090825250602001886002811115610ad757610ad7613c81565b8152602001610ae68a8c614729565b815260200187878080601f016020809104026020016040519081016040528093929190818152602001838380828437600092018290525093855250505060209182018790526001600160a01b038e1681526009825260408082208e835283529020825180519192610b5c928492909101906139a2565b50602082015160018083018054909160ff1990911690836002811115610b8457610b84613c81565b021790555060408201518051610ba4916002840191602090910190613a26565b5060608201518051610bc09160038401916020909101906139a2565b50608082015181600401559050506001600a60008d6001600160a01b03166001600160a01b0316815260200190815260200160002060008c815260200190815260200160002060006101000a8154816001600160401b0302191690836001600160401b031602179055506001600b60008d6001600160a01b03166001600160a01b0316815260200190815260200160002060008c815260200190815260200160002060006101000a8154816001600160401b0302191690836001600160401b031602179055506001600c60008d6001600160a01b03166001600160a01b0316815260200190815260200160002060008c815260200190815260200160002060006101000a8154816001600160401b0302191690836001600160401b031602179055508a6001600160a01b03167fec10e9c95bcd0a3561931a33a25adba5f809e8d25279a05da83a095e19f02add8b604051610d1d91815260200190565b60405180910390a25050505050505050505050565b610d408461046885806143fa565b610d5c5760405162461bcd60e51b815260040161048e906147ed565b60015460405163326dcf1b60e21b81526001600160a01b039091169063c9b73c6c90610d8f906003908590600401614837565b60206040518083038186803b158015610da757600080fd5b505afa158015610dbb573d6000803e3d6000fd5b505050506040513d601f19601f82011682018060405250810190610ddf919061464a565b610e1f5760405162461bcd60e51b81526020600482015260116024820152704661696c20746f2070726f76652061636b60781b604482015260640161048e565b6001600160a01b0384166000908152600d6020526040812081610e4286806143fa565b6020013581526020019081526020016000206000856040016020810190610e6991906144af565b6001600160401b0316815260208101919091526040016000205460ff16905080610ea55760405162461bcd60e51b815260040161048e906148ec565b6001600160a01b038516600090815260096020526040812081610ec887806143fa565b6020013581526020019081526020016000206040518060a0016040529081600082018054610ef5906144ca565b80601f0160208091040260200160405190810160405280929190818152602001828054610f21906144ca565b8015610f6e5780601f10610f4357610100808354040283529160200191610f6e565b820191906000526020600020905b815481529060010190602001808311610f5157829003601f168201915b5050509183525050600182015460209091019060ff166002811115610f9557610f95613c81565b6002811115610fa657610fa6613c81565b815260200160028201805480602002602001604051908101604052809291908181526020016000905b8282101561107b578382906000526020600020018054610fee906144ca565b80601f016020809104026020016040519081016040528092919081815260200182805461101a906144ca565b80156110675780601f1061103c57610100808354040283529160200191611067565b820191906000526020600020905b81548152906001019060200180831161104a57829003601f168201915b505050505081526020019060010190610fcf565b505050508152602001600382018054611093906144ca565b80601f01602080910402602001604051908101604052809291908181526020018280546110bf906144ca565b801561110c5780601f106110e15761010080835404028352916020019161110c565b820191906000526020600020905b8154815290600101906020018083116110ef57829003601f168201915b505050918352505060049190910154602090910152905060028160200151600281111561113b5761113b613c81565b1415611260576001600160a01b0386166000908152600c602052604081209061116487806143fa565b60209081013582528101919091526040908101600020546001600160401b03169061119590606088019088016144af565b6001600160401b0316146111eb5760405162461bcd60e51b815260206004820152601a60248201527f556e6578706563746564207061636b65742073657175656e6365000000000000604482015260640161048e565b6111fb60608601604087016144af565b611206906001614939565b6001600160a01b0387166000908152600c602052604081209061122988806143fa565b60200135815260200190815260200160002060006101000a8154816001600160401b0302191690836001600160401b031602179055505b604051633d173d7960e21b81526001600160a01b0387169063f45cf5e49061128c9088906004016149b8565b600060405180830381600087803b1580156112a657600080fd5b505af11580156112ba573d6000803e3d6000fd5b5050506001600160a01b0387166000908152600d6020526040812091506112e187806143fa565b602001358152602001908152602001600020600086604001602081019061130891906144af565b6001600160401b031681526020810191909152604001600020805460ff1916905561133385806143fa565b602001356001600160a01b0387167fe46f6591236abe528fe47a3b281fb002524dadd3e62b1f317ed285d07273c3b16113726060890160408a016144af565b6040516001600160401b0390911681526020015b60405180910390a3505050505050565b61139e613706565b6113a86000613760565b565b600254600160a01b900460ff166113f85760405162461bcd60e51b815260206004820152601260248201527110db1a595b9d081b9bdd0818dc99585d195960721b604482015260640161048e565b600154604051633b427df160e01b81526001600160a01b0390911690633b427df19061142b906003908590600401614a7c565b60206040518083038186803b15801561144357600080fd5b505afa158015611457573d6000803e3d6000fd5b505050506040513d601f19601f8201168201806040525081019061147b919061464a565b6114d95760405162461bcd60e51b815260206004820152602960248201527f557064617465436c69656e744d73672070726f6f6620766572696669636174696044820152681bdb8819985a5b195960ba1b606482015260840161048e565b80356003556020810135600455604081013560055560600135600655565b6114ff613706565b600254600160a01b900460ff1661154d5760405162461bcd60e51b815260206004820152601260248201527110db1a595b9d081b9bdd0818dc99585d195960721b604482015260640161048e565b60208101356003556040810135600455606081013560055560800135600655565b336000908152600960209081526040808320848452909152808220815160a081019092528054829082906115a1906144ca565b80601f01602080910402602001604051908101604052809291908181526020018280546115cd906144ca565b801561161a5780601f106115ef5761010080835404028352916020019161161a565b820191906000526020600020905b8154815290600101906020018083116115fd57829003601f168201915b5050509183525050600182015460209091019060ff16600281111561164157611641613c81565b600281111561165257611652613c81565b815260200160028201805480602002602001604051908101604052809291908181526020016000905b8282101561172757838290600052602060002001805461169a906144ca565b80601f01602080910402602001604051908101604052809291908181526020018280546116c6906144ca565b80156117135780601f106116e857610100808354040283529160200191611713565b820191906000526020600020905b8154815290600101906020018083116116f657829003601f168201915b50505050508152602001906001019061167b565b50505050815260200160038201805461173f906144ca565b80601f016020809104026020016040519081016040528092919081815260200182805461176b906144ca565b80156117b85780601f1061178d576101008083540402835291602001916117b8565b820191906000526020600020905b81548152906001019060200180831161179b57829003601f168201915b5050505050815260200160048201548152505090506000801b816080015114156118245760405162461bcd60e51b815260206004820152601f60248201527f4368616e6e656c206e6f74206f776e6564206279206d73672e73656e64657200604482015260640161048e565b60608101516080820151604051635fe39e0d60e01b815233928392635fe39e0d926118559288929091600401614b21565b600060405180830381600087803b15801561186f57600080fd5b505af1158015611883573d6000803e3d6000fd5b50506040518592503391507fe893e4ba0e364cdc96364b1e1e0d53b0d91e5fd6aa0ee9d81a17ecd61178bf1790600090a3505050565b6118ca8361046860208501856143fa565b6118e65760405162461bcd60e51b815260040161048e90614460565b60015460405163326dcf1b60e21b81526001600160a01b039091169063c9b73c6c90611919906003908590600401614b4a565b60206040518083038186803b15801561193157600080fd5b505afa158015611945573d6000803e3d6000fd5b505050506040513d601f19601f82011682018060405250810190611969919061464a565b6119b55760405162461bcd60e51b815260206004820152601f60248201527f4661696c20746f2070726f7665207061636b657420636f6d6d69746d656e7400604482015260640161048e565b6001600160a01b0383166000908152600e6020908152604082209082906119de908601866143fa565b6020013581526020019081526020016000206000846040016020810190611a0591906144af565b6001600160401b0316815260208101919091526040016000205460ff1690508015611a725760405162461bcd60e51b815260206004820152601d60248201527f5061636b6574207265636569707420616c726561647920657869737473000000604482015260640161048e565b6001600160a01b0384166000908152600e6020908152604082206001929091611a9d908701876143fa565b6020013581526020019081526020016000206000856040016020810190611ac491906144af565b6001600160401b0316815260208082019290925260409081016000908120805460ff1916941515949094179093556001600160a01b0387168352600982528220908290611b13908701876143fa565b6020013581526020019081526020016000206040518060a0016040529081600082018054611b40906144ca565b80601f0160208091040260200160405190810160405280929190818152602001828054611b6c906144ca565b8015611bb95780601f10611b8e57610100808354040283529160200191611bb9565b820191906000526020600020905b815481529060010190602001808311611b9c57829003601f168201915b5050509183525050600182015460209091019060ff166002811115611be057611be0613c81565b6002811115611bf157611bf1613c81565b815260200160028201805480602002602001604051908101604052809291908181526020016000905b82821015611cc6578382906000526020600020018054611c39906144ca565b80601f0160208091040260200160405190810160405280929190818152602001828054611c65906144ca565b8015611cb25780601f10611c8757610100808354040283529160200191611cb2565b820191906000526020600020905b815481529060010190602001808311611c9557829003601f168201915b505050505081526020019060010190611c1a565b505050508152602001600382018054611cde906144ca565b80601f0160208091040260200160405190810160405280929190818152602001828054611d0a906144ca565b8015611d575780601f10611d2c57610100808354040283529160200191611d57565b820191906000526020600020905b815481529060010190602001808311611d3a57829003601f168201915b5050509183525050600491909101546020909101529050600281602001516002811115611d8657611d86613c81565b1415611eb5576001600160a01b0385166000908152600b6020908152604082209190611db4908701876143fa565b60209081013582528101919091526040908101600020546001600160401b031690611de590606087019087016144af565b6001600160401b031614611e3b5760405162461bcd60e51b815260206004820152601a60248201527f556e6578706563746564207061636b65742073657175656e6365000000000000604482015260640161048e565b611e4b60608501604086016144af565b611e56906001614939565b6001600160a01b0386166000908152600b6020908152604082209190611e7e908801886143fa565b60200135815260200190815260200160002060006101000a8154816001600160401b0302191690836001600160401b031602179055505b611ec260208501856143fa565b602001356001600160a01b0386167fde5b57e6566d68a30b0979431df3d5df6db3b9aa89f8820f595b9315bf86d067611f0160608801604089016144af565b6040516001600160401b03909116815260200160405180910390a3611f2c60c0850160a086016144af565b6001600160401b031615801590611f5b5750611f4e60c0850160a086016144af565b6001600160401b03164210155b80611fa05750611f7160a08501608086016144af565b6001600160401b031615801590611fa05750611f9360a08501608086016144af565b6001600160401b03164310155b1561203c5784611fb360208601866143fa565b602001356001600160a01b0382167fb46f131b4b05b6cae7605b6f86bc6a1210f3eb7dc8bd1297817d62b1dcef3e0c611ff26060890160408a016144af565b61200260a08a0160808b016144af565b61201260c08b0160a08c016144af565b604080516001600160401b0394851681529284166020840152921691810191909152606001611386565b60405163582c740d60e11b81526000906001600160a01b0387169063b058e81a9061206b9088906004016149b8565b600060405180830381600087803b15801561208557600080fd5b505af1158015612099573d6000803e3d6000fd5b505050506040513d6000823e601f3d908101601f191682016040526120c19190810190614c49565b6001600160a01b0387166000908152600f60209081526040822092935090919082906120ef908901896143fa565b602001358152602001908152602001600020600087604001602081019061211691906144af565b6001600160401b0316815260208101919091526040016000205460ff169050801561218f5760405162461bcd60e51b8152602060048201526024808201527f41636b207061636b657420636f6d6d69746d656e7420616c72656164792065786044820152636973747360e01b606482015260840161048e565b6001600160a01b0387166000908152600f60209081526040822060019290916121ba908a018a6143fa565b60200135815260200190815260200160002060008860400160208101906121e191906144af565b6001600160401b03168152602080820192909252604001600020805460ff191692151592909217909155612217908701876143fa565b602001356001600160a01b0388167fa32e6f42b1d63fb83ad73b009a6dbb9413d1da02e95b1bb08f081815eea8db2061225660608a0160408b016144af565b85604051612265929190614cf3565b60405180910390a350505050505050565b600154604080516080810190915260538082526001600160a01b039092169163c9b73c6c9160039185919061517160208301396040518463ffffffff1660e01b81526004016122c7939291906145ae565b60206040518083038186803b1580156122df57600080fd5b505afa1580156122f3573d6000803e3d6000fd5b505050506040513d601f19601f82011682018060405250810190612317919061464a565b6123335760405162461bcd60e51b815260040161048e90614665565b6001600160a01b0383166000908152600960209081526040808320858452909152808220815160a0810190925280548290829061236f906144ca565b80601f016020809104026020016040519081016040528092919081815260200182805461239b906144ca565b80156123e85780601f106123bd576101008083540402835291602001916123e8565b820191906000526020600020905b8154815290600101906020018083116123cb57829003601f168201915b5050509183525050600182015460209091019060ff16600281111561240f5761240f613c81565b600281111561242057612420613c81565b815260200160028201805480602002602001604051908101604052809291908181526020016000905b828210156124f5578382906000526020600020018054612468906144ca565b80601f0160208091040260200160405190810160405280929190818152602001828054612494906144ca565b80156124e15780601f106124b6576101008083540402835291602001916124e1565b820191906000526020600020905b8154815290600101906020018083116124c457829003601f168201915b505050505081526020019060010190612449565b50505050815260200160038201805461250d906144ca565b80601f0160208091040260200160405190810160405280929190818152602001828054612539906144ca565b80156125865780601f1061255b57610100808354040283529160200191612586565b820191906000526020600020905b81548152906001019060200180831161256957829003601f168201915b5050505050815260200160048201548152505090506000801b816080015114156125f25760405162461bcd60e51b815260206004820181905260248201527f4368616e6e656c206e6f74206f776e656420627920706f727441646472657373604482015260640161048e565b60608101516080820151604051635fe39e0d60e01b815286926001600160a01b03841692635fe39e0d9261262c9289929091600401614b21565b600060405180830381600087803b15801561264657600080fd5b505af115801561265a573d6000803e3d6000fd5b5050506001600160a01b03861660009081526009602090815260408083208884529091528120915061268c8282613a7f565b60018201805460ff191690556126a6600283016000613ab9565b6126b4600383016000613a7f565b6004820160009055505083856001600160a01b03167fe893e4ba0e364cdc96364b1e1e0d53b0d91e5fd6aa0ee9d81a17ecd61178bf1760405160405180910390a35050505050565b612704613706565b61271060078383613ad7565b506008805463ffffffff191663ffffffff9290921691909117905550565b6009602090815260009283526040808420909152908252902080548190612754906144ca565b80601f0160208091040260200160405190810160405280929190818152602001828054612780906144ca565b80156127cd5780601f106127a2576101008083540402835291602001916127cd565b820191906000526020600020905b8154815290600101906020018083116127b057829003601f168201915b5050506001840154600385018054949560ff9092169491935091506127f1906144ca565b80601f016020809104026020016040519081016040528092919081815260200182805461281d906144ca565b801561286a5780601f1061283f5761010080835404028352916020019161286a565b820191906000526020600020905b81548152906001019060200180831161284d57829003601f168201915b5050505050908060040154905084565b6128888361046884806143fa565b6128a45760405162461bcd60e51b815260040161048e906147ed565b60015460405163122d651b60e01b81526001600160a01b039091169063122d651b906128d7906003908590600401614d2a565b60206040518083038186803b1580156128ef57600080fd5b505afa158015612903573d6000803e3d6000fd5b505050506040513d601f19601f82011682018060405250810190612927919061464a565b61296b5760405162461bcd60e51b815260206004820152601560248201527411985a5b081d1bc81c1c9bdd99481d1a5b595bdd5d605a1b604482015260640161048e565b6001600160a01b0383166000908152600d602052604081208161298e85806143fa565b60200135815260200190815260200160002060008460400160208101906129b591906144af565b6001600160401b0316815260208101919091526040016000205460ff169050806129f15760405162461bcd60e51b815260040161048e906148ec565b60405163b33c257760e01b81526001600160a01b0385169063b33c257790612a1d9086906004016149b8565b600060405180830381600087803b158015612a3757600080fd5b505af1158015612a4b573d6000803e3d6000fd5b5050506001600160a01b0385166000908152600d602052604081209150612a7285806143fa565b6020013581526020019081526020016000206000846040016020810190612a9991906144af565b6001600160401b0316815260208101919091526040908101600020805460ff19169055612acc90606085019085016144af565b6001600160401b0316612adf84806143fa565b60200135856001600160a01b03167f19ac40c4084d9bfb5b43f819a94bf01c70789b0d579871f59e4f86def04d934460405160405180910390a450505050565b612b29828061441a565b15159050612b795760405162461bcd60e51b815260206004820152601a60248201527f496e76616c696420636f756e7465727061727479506f72744964000000000000604482015260640161048e565b6020820135151580612b985750612b93604083018361441a565b151590505b80612bb75750612bab60208201826144af565b6001600160401b031615155b80612bcf5750612bca602082018261441a565b151590505b15612c91576001546040805160808101909152604d8082526001600160a01b039092169163c9b73c6c916003918591906151c460208301396040518463ffffffff1660e01b8152600401612c25939291906145ae565b60206040518083038186803b158015612c3d57600080fd5b505afa158015612c51573d6000803e3d6000fd5b505050506040513d601f19601f82011682018060405250810190612c75919061464a565b612c915760405162461bcd60e51b815260040161048e90614665565b60006001600160a01b038916632653b6d28989898989612cb18a8061441a565b60208c0135612cc360408e018e61441a565b6040518b63ffffffff1660e01b8152600401612ce89a99989796959493929190614df5565b600060405180830381600087803b158015612d0257600080fd5b505af1158015612d16573d6000803e3d6000fd5b505050506040513d6000823e601f3d908101601f19168201604052612d3e9190810190614e6a565b90506001600160a01b0389167f0d41fc4f5d79d2410bc37faa65c098ed5b933e53d5add2f9323d3bbddc6922b182888888612d79898061441a565b8a60200135604051612d919796959493929190614eb2565b60405180910390a2505050505050505050565b336000908152600960209081526040808320888452909152808220815160a08101909252805482908290612dd7906144ca565b80601f0160208091040260200160405190810160405280929190818152602001828054612e03906144ca565b8015612e505780601f10612e2557610100808354040283529160200191612e50565b820191906000526020600020905b815481529060010190602001808311612e3357829003601f168201915b5050509183525050600182015460209091019060ff166002811115612e7757612e77613c81565b6002811115612e8857612e88613c81565b815260200160028201805480602002602001604051908101604052809291908181526020016000905b82821015612f5d578382906000526020600020018054612ed0906144ca565b80601f0160208091040260200160405190810160405280929190818152602001828054612efc906144ca565b8015612f495780601f10612f1e57610100808354040283529160200191612f49565b820191906000526020600020905b815481529060010190602001808311612f2c57829003601f168201915b505050505081526020019060010190612eb1565b505050508152602001600382018054612f75906144ca565b80601f0160208091040260200160405190810160405280929190818152602001828054612fa1906144ca565b8015612fee5780601f10612fc357610100808354040283529160200191612fee565b820191906000526020600020905b815481529060010190602001808311612fd157829003601f168201915b5050505050815260200160048201548152505090506000801b8160800151141561305a5760405162461bcd60e51b815260206004820152601b60248201527f4368616e6e656c206e6f74206f776e65642062792073656e6465720000000000604482015260640161048e565b336000908152600a602090815260408083208984529091529020546001600160401b0316806130cb5760405162461bcd60e51b815260206004820152601760248201527f496e76616c6964207061636b65742073657175656e6365000000000000000000604482015260640161048e565b60006130df846020013585604001356137b0565b6130ea908535614f0f565b6002546040519192506000916001600160a01b039091169083908381818185875af1925050503d806000811461313c576040519150601f19603f3d011682016040523d82523d6000602084013e613141565b606091505b50509050806131925760405162461bcd60e51b815260206004820152601b60248201527f4661696c656420746f20657363726f77207061636b6574206665650000000000604482015260640161048e565b3360008181526010602090815260408083208d845282528083206001600160401b0388168085529083528184208a3581558a8401356001808301919091558b840135600290920191909155948452600d83528184208e855283528184209084529091529020805460ff19168217905561320c908490614939565b336000818152600a602090815260408083208e845290915290819020805467ffffffffffffffff19166001600160401b03949094169390931790925590518a91907ffa2b50af641c9fe497248f944915bafc2aa44400425d815dd9b7417c00f9f9b890613282908c908c9089908d908d90614f27565b60405180910390a3505050505050505050565b6001600160a01b0384166000908152600d6020908152604080832086845282528083206001600160401b038616845290915290205460ff16806132ea5760405162461bcd60e51b815260040161048e906148ec565b60006132fe836020013584604001356137b0565b613309908435614f0f565b6002546040519192506000916001600160a01b039091169083908381818185875af1925050503d806000811461335b576040519150601f19603f3d011682016040523d82523d6000602084013e613360565b606091505b50509050806133b15760405162461bcd60e51b815260206004820152601b60248201527f4661696c656420746f20657363726f77207061636b6574206665650000000000604482015260640161048e565b6001600160a01b038716600090815260106020908152604080832089845282528083206001600160401b0389168452909152908190208151606081019092528054909190819061340390883590614f0f565b81526020018660200135836001015461341c9190614f0f565b8152602001866040013583600201546134359190614f0f565b90526001600160a01b0390981660009081526010602090815260408083209983529881528882206001600160401b0390981682529687528790208851815595880151600187015550505050929091015160029091015550565b6134b260405180606001604052806000815260200160008152602001600081525090565b506001600160a01b038316600090815260106020908152604080832085845282528083206001600160401b038516845282529182902082516060810184528154815260018201549281019290925260020154918101919091525b9392505050565b60085460009061352b9063ffffffff16828486614f7b565b60405160200161353c929190614fa5565b6040516020818303038152906040528051906020012060076040516020016135649190614fb5565b60405160208183030381529060405280519060200120146135875750600061350c565b6008546000906135a090849063ffffffff168187614f7b565b8080601f01602080910402602001604051908101604052809392919081815260200183838082843760009201919091525092935050506001600160a01b03861690506135eb826137c6565b6001600160a01b03161495945050505050565b613606613706565b6001600160a01b03811661366b5760405162461bcd60e51b815260206004820152602660248201527f4f776e61626c653a206e6577206f776e657220697320746865207a65726f206160448201526564647265737360d01b606482015260840161048e565b61367481613760565b50565b61367f613706565b600254600160a01b900460ff16156136d25760405162461bcd60e51b815260206004820152601660248201527510db1a595b9d08185b1c9958591e4818dc99585d195960521b604482015260640161048e565b6002805460ff60a01b1916600160a01b17905560208101356003556040810135600455606081013560055560800135600655565b6000546001600160a01b031633146113a85760405162461bcd60e51b815260206004820181905260248201527f4f776e61626c653a2063616c6c6572206973206e6f7420746865206f776e6572604482015260640161048e565b600080546001600160a01b038381166001600160a01b0319831681178455604051919092169283917f8be0079c531659141344cd1fd0a4f28419497f9722a3daafe3b4186f6b6457e09190a35050565b60008183116137bf578161350c565b5090919050565b600081516028146138195760405162461bcd60e51b815260206004820152601960248201527f496e76616c69642068657820737472696e67206c656e67746800000000000000604482015260640161048e565b60408051601480825281830190925283916000919060208201818036833701905050905060005b601481101561399657600083613857836002615051565b8151811061386757613867615070565b016020015160f81c905060008461387f846002615051565b61388a906001614f0f565b8151811061389a5761389a615070565b016020015160f81c9050604160ff8316108015906138bc5750605a8260ff1611155b156138cf576138cc602083615086565b91505b60418160ff16101580156138e75750605a8160ff1611155b156138fa576138f7602082615086565b90505b600060618260ff16101561390f576030613912565b60575b61391c90836150ab565b60618460ff16101561392f576030613932565b60575b61393c90856150ab565b6139479060106150ce565b6139519190615086565b90508060f81b85858151811061396957613969615070565b60200101906001600160f81b031916908160001a905350505050808061398e906150f7565b915050613840565b50601401519392505050565b8280546139ae906144ca565b90600052602060002090601f0160209004810192826139d05760008555613a16565b82601f106139e957805160ff1916838001178555613a16565b82800160010185558215613a16579182015b82811115613a165782518255916020019190600101906139fb565b50613a22929150613b4b565b5090565b828054828255906000526020600020908101928215613a73579160200282015b82811115613a735782518051613a639184916020909101906139a2565b5091602001919060010190613a46565b50613a22929150613b60565b508054613a8b906144ca565b6000825580601f10613a9b575050565b601f0160209004906000526020600020908101906136749190613b4b565b50805460008255906000526020600020908101906136749190613b60565b828054613ae3906144ca565b90600052602060002090601f016020900481019282613b055760008555613a16565b82601f10613b1e5782800160ff19823516178555613a16565b82800160010185558215613a16579182015b82811115613a16578235825591602001919060010190613b30565b5b80821115613a225760008155600101613b4c565b80821115613a22576000613b748282613a7f565b50600101613b60565b6001600160a01b038116811461367457600080fd5b600060c08284031215613ba457600080fd5b50919050565b60008060408385031215613bbd57600080fd5b8235613bc881613b7d565b915060208301356001600160401b03811115613be357600080fd5b613bef85828601613b92565b9150509250929050565b60008060408385031215613c0c57600080fd5b8235613c1781613b7d565b946020939093013593505050565b60005b83811015613c40578181015183820152602001613c28565b83811115613c4f576000848401525b50505050565b60008151808452613c6d816020860160208601613c25565b601f01601f19169290920160200192915050565b634e487b7160e01b600052602160045260246000fd5b60038110613cb557634e487b7160e01b600052602160045260246000fd5b9052565b60006020808352835160a082850152613cd560c0850182613c55565b905081850151613ce86040860182613c97565b506040850151601f198583038101606087015281518084529184019184840190600581901b8501860160005b82811015613d405784878303018452613d2e828751613c55565b95880195938801939150600101613d14565b5060608a01519650838982030160808a0152613d5c8188613c55565b9650505050505050608084015160a08401528091505092915050565b8035613d8381613b7d565b919050565b60008083601f840112613d9a57600080fd5b5081356001600160401b03811115613db157600080fd5b6020830191508360208260051b8501011115613dcc57600080fd5b9250929050565b803560038110613d8357600080fd5b60008083601f840112613df457600080fd5b5081356001600160401b03811115613e0b57600080fd5b602083019150836020828501011115613dcc57600080fd5b600060408284031215613ba457600080fd5b60008060008060008060008060008060006101008c8e031215613e5757600080fd5b613e608c613d78565b9a5060208c013599506001600160401b038060408e01351115613e8257600080fd5b613e928e60408f01358f01613d88565b909a509850613ea360608e01613dd3565b97508060808e01351115613eb657600080fd5b613ec68e60808f01358f01613de2565b909750955060a08d0135945060c08d0135811015613ee357600080fd5b613ef38e60c08f01358f01613de2565b909450925060e08d0135811015613f0957600080fd5b50613f1a8d60e08e01358e01613e23565b90509295989b509295989b9093969950565b60008060008060808587031215613f4257600080fd5b8435613f4d81613b7d565b935060208501356001600160401b0380821115613f6957600080fd5b613f7588838901613b92565b94506040870135915080821115613f8b57600080fd5b613f9788838901613e23565b93506060870135915080821115613fad57600080fd5b50613fba87828801613e23565b91505092959194509250565b60006101808284031215613ba457600080fd5b600060a08284031215613ba457600080fd5b600060208284031215613ffd57600080fd5b81356001600160401b0381111561401357600080fd5b61401f84828501613fd9565b949350505050565b60006020828403121561403957600080fd5b5035919050565b60008060006060848603121561405557600080fd5b833561406081613b7d565b925060208401356001600160401b038082111561407c57600080fd5b61408887838801613b92565b9350604086013591508082111561409e57600080fd5b506140ab86828701613e23565b9150509250925092565b6000806000606084860312156140ca57600080fd5b83356140d581613b7d565b92506020840135915060408401356001600160401b038111156140f757600080fd5b6140ab86828701613e23565b6000806020838503121561411657600080fd5b82356001600160401b0381111561412c57600080fd5b61413885828601613de2565b90969095509350505050565b6080815260006141576080830187613c55565b6141646020840187613c97565b82810360408401526141768186613c55565b91505082606083015295945050505050565b600060608284031215613ba457600080fd5b60008060008060008060008060c0898b0312156141b657600080fd5b6141bf89613d78565b975060208901356001600160401b03808211156141db57600080fd5b6141e78c838d01613de2565b90995097508791506141fb60408c01613dd3565b965060608b013591508082111561421157600080fd5b61421d8c838d01613d88565b909650945060808b013591508082111561423657600080fd5b6142428c838d01614188565b935060a08b013591508082111561425857600080fd5b506142658b828c01613e23565b9150509295985092959890939650565b80356001600160401b0381168114613d8357600080fd5b600080600080600060c086880312156142a457600080fd5b8535945060208601356001600160401b038111156142c157600080fd5b6142cd88828901613de2565b90955093506142e0905060408701614275565b91506142ef8760608801614188565b90509295509295909350565b60008060008060c0858703121561431157600080fd5b843561431c81613b7d565b93506020850135925061433160408601614275565b91506143408660608701614188565b905092959194509250565b60008060006060848603121561436057600080fd5b833561436b81613b7d565b92506020840135915061438060408501614275565b90509250925092565b60008060006040848603121561439e57600080fd5b83356143a981613b7d565b925060208401356001600160401b038111156143c457600080fd5b6143d086828701613de2565b9497909650939450505050565b6000602082840312156143ef57600080fd5b813561350c81613b7d565b60008235603e1983360301811261441057600080fd5b9190910192915050565b6000808335601e1984360301811261443157600080fd5b8301803591506001600160401b0382111561444b57600080fd5b602001915036819003821315613dcc57600080fd5b6020808252602f908201527f5265636569766572206973206e6f742074686520696e74656e6465642070616360408201526e35b2ba103232b9ba34b730ba34b7b760891b606082015260800190565b6000602082840312156144c157600080fd5b61350c82614275565b600181811c908216806144de57607f821691505b60208210811415613ba457634e487b7160e01b600052602260045260246000fd5b6000808335601e1984360301811261451657600080fd5b83016020810192503590506001600160401b0381111561453557600080fd5b803603831315613dcc57600080fd5b81835281816020850137506000828201602090810191909152601f909101601f19169091010190565b6001600160401b0361457e82614275565b168252600061459060208301836144ff565b604060208601526145a5604086018284614544565b95945050505050565b8354815260018401546020820152600284015460408201526003840154606082015260e0608082015260006145e660e083018561456d565b8281038060a0850152601d82527f6368616e6e656c2f706174682f746f2f62652f61646465642f6865726500000060208301526040810160c0850152506146306040820185613c55565b9695505050505050565b80518015158114613d8357600080fd5b60006020828403121561465c57600080fd5b61350c8261463a565b6020808252601b908201527f4661696c20746f2070726f7665206368616e6e656c2073746174650000000000604082015260600190565b848152836020820152606060408201526000614630606083018486614544565b634e487b7160e01b600052604160045260246000fd5b604051601f8201601f191681016001600160401b03811182821017156146fa576146fa6146bc565b604052919050565b60006001600160401b0382111561471b5761471b6146bc565b50601f01601f191660200190565b60006001600160401b0380841115614743576147436146bc565b8360051b60206147548183016146d2565b86815291850191818101903684111561476c57600080fd5b865b848110156147e1578035868111156147865760008081fd5b880136601f8201126147985760008081fd5b80356147ab6147a682614702565b6146d2565b81815236878385010111156147c05760008081fd5b8187840188830137600091810187019190915284525091830191830161476e565b50979650505050505050565b6020808252602a908201527f5265636569766572206973206e6f7420746865206f726967696e616c2070616360408201526935b2ba1039b2b73232b960b11b606082015260800190565b8254815260018301546020820152600283015460408201526003830154606082015260e06080820152600061486f60e083018461456d565b8281038060a0850152600f82526e0c2c6d65ee0c2c6d6cae85ee0c2e8d608b1b60208301526040810160c085015250602a60408201527f65787065637465642061636b20726563656970742068617368206f6e20506f6c6060820152693cb6b2b91031b430b4b760b11b608082015260a081019150509392505050565b6020808252601b908201527f5061636b657420636f6d6d69746d656e74206e6f7420666f756e640000000000604082015260600190565b634e487b7160e01b600052601160045260246000fd5b60006001600160401b0380831681851680830382111561495b5761495b614923565b01949350505050565b60008235603e1983360301811261497a57600080fd5b90910192915050565b600061498f82836144ff565b604085526149a1604086018284614544565b915050602083013560208501528091505092915050565b6020815260006149c88384614964565b60c060208401526149dc60e0840182614983565b90506149eb6020850185614964565b601f1980858403016040860152614a028383614983565b9250614a1060408701614275565b91506001600160401b038083166060870152614a2f60608801886144ff565b935082878603016080880152614a46858583614544565b94505080614a5660808901614275565b1660a087015280614a6960a08901614275565b1660c08701525050508091505092915050565b82548152600183015460208201526002830154604082015260038301546060820152610200810182356080830152602083013560a083015260408084013560c0840152606084013560e084015280608085016101008501376000610140848101828152909160c0870191815b6002811015614b0857858483379085018281529285019290600101614ae8565b5050838388016101c08801378452509195945050505050565b838152606060208201526000614b3a6060830185613c55565b9050826040830152949350505050565b8254815260018301546020820152600283015460408201526003830154606082015260e060808201526000614b8260e083018461456d565b8281038060a085015260168252750e0c2c6d6cae85ec6dedadad2e8dacadce85ee0c2e8d60531b60208301526040810160c085015250603860408201527f6578706563746564207669727475616c207061636b657420636f6d6d69746d6560608201527f6e742068617368206f6e20506f6c796d657220636861696e0000000000000000608082015260a081019150509392505050565b6000614c276147a684614702565b9050828152838383011115614c3b57600080fd5b61350c836020830184613c25565b600060208284031215614c5b57600080fd5b81516001600160401b0380821115614c7257600080fd5b9083019060408286031215614c8657600080fd5b604051604081018181108382111715614ca157614ca16146bc565b604052614cad8361463a565b8152602083015182811115614cc157600080fd5b80840193505085601f840112614cd657600080fd5b614ce586845160208601614c19565b602082015295945050505050565b6001600160401b03831681526040602082015281511515604082015260006020830151604060608401526145a56080840182613c55565b8254815260018301546020820152600283015460408201526003830154606082015260c060808201526000614d6260c083018461456d565b82810360a084015260138152720e0c2c6d6cae85ee4cac6cad2e0e85ee0c2e8d606b1b6020820152604081019150509392505050565b81835260006020808501808196508560051b810191508460005b87811015614de8578284038952614dc982886144ff565b614dd4868284614544565b9a87019a9550505090840190600101614db2565b5091979650505050505050565b60c081526000614e0960c083018c8e614544565b614e16602084018c613c97565b8281036040840152614e29818a8c614d98565b90508281036060840152614e3e81888a614544565b905085608084015282810360a0840152614e59818587614544565b9d9c50505050505050505050505050565b600060208284031215614e7c57600080fd5b81516001600160401b03811115614e9257600080fd5b8201601f81018413614ea357600080fd5b61401f84825160208401614c19565b60a081526000614ec560a083018a613c55565b614ed2602084018a613c97565b8281036040840152614ee581888a614d98565b90508281036060840152614efa818688614544565b91505082608083015298975050505050505050565b60008219821115614f2257614f22614923565b500190565b60c081526000614f3b60c083018789614544565b90506001600160401b0380861660208401528085166040840152508235606083015260208301356080830152604083013560a08301529695505050505050565b60008085851115614f8b57600080fd5b83861115614f9857600080fd5b5050820193919092039150565b8183823760009101908152919050565b600080835481600182811c915080831680614fd157607f831692505b6020808410821415614ff157634e487b7160e01b86526022600452602486fd5b818015615005576001811461501657615043565b60ff19861689528489019650615043565b60008a81526020902060005b8681101561503b5781548b820152908501908301615022565b505084890196505b509498975050505050505050565b600081600019048311821515161561506b5761506b614923565b500290565b634e487b7160e01b600052603260045260246000fd5b600060ff821660ff84168060ff038211156150a3576150a3614923565b019392505050565b600060ff821660ff8416808210156150c5576150c5614923565b90039392505050565b600060ff821660ff84168160ff04811182151516156150ef576150ef614923565b029392505050565b600060001982141561510b5761510b614923565b506001019056fe6578706563746564206368616e6e656c20627974657320636f6e73747275637465642066726f6d20706172616d732e204368616e6e656c2e5374617465203d207b41636b5f50656e64696e672c20436f6e6669726d5f50656e64696e677d6578706563746564206368616e6e656c20627974657320636f6e73747275637465642066726f6d20706172616d732e204368616e6e656c2e5374617465203d207b436c6f736564285f50656e64696e673f297d6578706563746564206368616e6e656c20627974657320636f6e73747275637465642066726f6d20706172616d732e204368616e6e656c2e5374617465203d207b5472795f50656e64696e677da2646970667358221220ca53178bdbb844ca11d29211d1d99edd7d4ab542c62e0fb5480cedc7b56b423664736f6c63430008090033",
  "linkReferences": {},
  "deployedLinkReferences": {}
}