{
  "_format": "hh-sol-artifact-1",
  "contractName": "Dispatcher",
  "sourceName": "contracts/Dispatcher.sol",
  "abi": [
    {
      "inputs": [
        {
          "internalType": "contract ZKMintVerifier",
          "name": "_verifier",
          "type": "address"
        },
        {
          "internalType": "address payable",
          "name": "_escrow",
          "type": "address"
        },
        {
          "internalType": "string",
          "name": "initPortPrefix",
          "type": "string"
        }
      ],
      "stateMutability": "nonpayable",
      "type": "constructor"
    },
    {
      "anonymous": false,
      "inputs": [
        {
          "indexed": true,
          "internalType": "address",
          "name": "sourcePortAddress",
          "type": "address"
        },
        {
          "indexed": true,
          "internalType": "bytes32",
          "name": "sourceChannelId",
          "type": "bytes32"
        },
        {
          "indexed": false,
          "internalType": "uint64",
          "name": "sequence",
          "type": "uint64"
        }
      ],
      "name": "Acknowledgement",
      "type": "event"
    },
    {
      "anonymous": false,
      "inputs": [
        {
          "indexed": true,
          "internalType": "address",
          "name": "portAddress",
          "type": "address"
        },
        {
          "indexed": true,
          "internalType": "bytes32",
          "name": "channelId",
          "type": "bytes32"
        }
      ],
      "name": "CloseIbcChannel",
      "type": "event"
    },
    {
      "anonymous": false,
      "inputs": [
        {
          "indexed": true,
          "internalType": "address",
          "name": "portAddress",
          "type": "address"
        },
        {
          "indexed": false,
          "internalType": "bytes32",
          "name": "channelId",
          "type": "bytes32"
        }
      ],
      "name": "ConnectIbcChannel",
      "type": "event"
    },
    {
      "anonymous": false,
      "inputs": [
        {
          "indexed": true,
          "internalType": "address",
          "name": "portAddress",
          "type": "address"
        },
        {
          "indexed": false,
          "internalType": "string",
          "name": "version",
          "type": "string"
        },
        {
          "indexed": false,
          "internalType": "enum ChannelOrder",
          "name": "ordering",
          "type": "uint8"
        },
        {
          "indexed": false,
          "internalType": "string[]",
          "name": "connectionHops",
          "type": "string[]"
        },
        {
          "indexed": false,
          "internalType": "string",
          "name": "counterpartyPortId",
          "type": "string"
        },
        {
          "indexed": false,
          "internalType": "bytes32",
          "name": "counterpartyChannelId",
          "type": "bytes32"
        }
      ],
      "name": "OpenIbcChannel",
      "type": "event"
    },
    {
      "anonymous": false,
      "inputs": [
        {
          "indexed": true,
          "internalType": "address",
          "name": "previousOwner",
          "type": "address"
        },
        {
          "indexed": true,
          "internalType": "address",
          "name": "newOwner",
          "type": "address"
        }
      ],
      "name": "OwnershipTransferred",
      "type": "event"
    },
    {
      "anonymous": false,
      "inputs": [
        {
          "indexed": true,
          "internalType": "address",
          "name": "destPortAddress",
          "type": "address"
        },
        {
          "indexed": true,
          "internalType": "bytes32",
          "name": "destChannelId",
          "type": "bytes32"
        },
        {
          "indexed": false,
          "internalType": "uint64",
          "name": "sequence",
          "type": "uint64"
        }
      ],
      "name": "RecvPacket",
      "type": "event"
    },
    {
      "anonymous": false,
      "inputs": [
        {
          "indexed": true,
          "internalType": "address",
          "name": "sourcePortAddress",
          "type": "address"
        },
        {
          "indexed": true,
          "internalType": "bytes32",
          "name": "sourceChannelId",
          "type": "bytes32"
        },
        {
          "indexed": false,
          "internalType": "bytes",
          "name": "packet",
          "type": "bytes"
        },
        {
          "indexed": false,
          "internalType": "uint64",
          "name": "sequence",
          "type": "uint64"
        },
        {
          "indexed": false,
          "internalType": "uint64",
          "name": "timeoutTimestamp",
          "type": "uint64"
        },
        {
          "components": [
            {
              "internalType": "uint256",
              "name": "recvFee",
              "type": "uint256"
            },
            {
              "internalType": "uint256",
              "name": "ackFee",
              "type": "uint256"
            },
            {
              "internalType": "uint256",
              "name": "timeoutFee",
              "type": "uint256"
            }
          ],
          "indexed": false,
          "internalType": "struct PacketFee",
          "name": "fee",
          "type": "tuple"
        }
      ],
      "name": "SendPacket",
      "type": "event"
    },
    {
      "anonymous": false,
      "inputs": [
        {
          "indexed": true,
          "internalType": "address",
          "name": "sourcePortAddress",
          "type": "address"
        },
        {
          "indexed": true,
          "internalType": "bytes32",
          "name": "sourceChannelId",
          "type": "bytes32"
        },
        {
          "indexed": true,
          "internalType": "uint64",
          "name": "sequence",
          "type": "uint64"
        }
      ],
      "name": "Timeout",
      "type": "event"
    },
    {
      "anonymous": false,
      "inputs": [
        {
          "indexed": true,
          "internalType": "address",
          "name": "writerPortAddress",
          "type": "address"
        },
        {
          "indexed": true,
          "internalType": "bytes32",
          "name": "writerChannelId",
          "type": "bytes32"
        },
        {
          "indexed": false,
          "internalType": "uint64",
          "name": "sequence",
          "type": "uint64"
        },
        {
          "components": [
            {
              "internalType": "bool",
              "name": "success",
              "type": "bool"
            },
            {
              "internalType": "bytes",
              "name": "data",
              "type": "bytes"
            }
          ],
          "indexed": false,
          "internalType": "struct AckPacket",
          "name": "ackPacket",
          "type": "tuple"
        }
      ],
      "name": "WriteAckPacket",
      "type": "event"
    },
    {
      "anonymous": false,
      "inputs": [
        {
          "indexed": true,
          "internalType": "address",
          "name": "writerPortAddress",
          "type": "address"
        },
        {
          "indexed": true,
          "internalType": "bytes32",
          "name": "writerChannelId",
          "type": "bytes32"
        },
        {
          "indexed": false,
          "internalType": "uint64",
          "name": "sequence",
          "type": "uint64"
        },
        {
          "indexed": false,
          "internalType": "uint64",
          "name": "pktTimeoutHeight",
          "type": "uint64"
        },
        {
          "indexed": false,
          "internalType": "uint64",
          "name": "pktTimeoutTimestamp",
          "type": "uint64"
        }
      ],
      "name": "WriteTimeoutPacket",
      "type": "event"
    },
    {
      "inputs": [
        {
          "internalType": "contract IbcReceiver",
          "name": "receiver",
          "type": "address"
        },
        {
          "components": [
            {
              "components": [
                {
                  "internalType": "string",
                  "name": "portId",
                  "type": "string"
                },
                {
                  "internalType": "bytes32",
                  "name": "channelId",
                  "type": "bytes32"
                }
              ],
              "internalType": "struct IbcEndpoint",
              "name": "src",
              "type": "tuple"
            },
            {
              "components": [
                {
                  "internalType": "string",
                  "name": "portId",
                  "type": "string"
                },
                {
                  "internalType": "bytes32",
                  "name": "channelId",
                  "type": "bytes32"
                }
              ],
              "internalType": "struct IbcEndpoint",
              "name": "dest",
              "type": "tuple"
            },
            {
              "internalType": "uint64",
              "name": "sequence",
              "type": "uint64"
            },
            {
              "internalType": "bytes",
              "name": "data",
              "type": "bytes"
            },
            {
              "components": [
                {
                  "internalType": "uint64",
                  "name": "blockHeight",
                  "type": "uint64"
                },
                {
                  "internalType": "uint64",
                  "name": "timestamp",
                  "type": "uint64"
                }
              ],
              "internalType": "struct IbcTimeout",
              "name": "timeout",
              "type": "tuple"
            }
          ],
          "internalType": "struct IbcPacket",
          "name": "packet",
          "type": "tuple"
        },
        {
          "components": [
            {
              "internalType": "bool",
              "name": "success",
              "type": "bool"
            },
            {
              "internalType": "bytes",
              "name": "data",
              "type": "bytes"
            }
          ],
          "internalType": "struct AckPacket",
          "name": "ackPacket",
          "type": "tuple"
        },
        {
          "components": [
            {
              "internalType": "uint64",
              "name": "proofHeight",
              "type": "uint64"
            },
            {
              "internalType": "bytes",
              "name": "proof",
              "type": "bytes"
            }
          ],
          "internalType": "struct Proof",
          "name": "proof",
          "type": "tuple"
        }
      ],
      "name": "acknowledgement",
      "outputs": [],
      "stateMutability": "nonpayable",
      "type": "function"
    },
    {
      "inputs": [
        {
          "internalType": "bytes32",
          "name": "channelId",
          "type": "bytes32"
        }
      ],
      "name": "closeIbcChannel",
      "outputs": [],
      "stateMutability": "nonpayable",
      "type": "function"
    },
    {
      "inputs": [
        {
          "internalType": "contract IbcReceiver",
          "name": "portAddress",
          "type": "address"
        },
        {
          "internalType": "bytes32",
          "name": "channelId",
          "type": "bytes32"
        },
        {
          "internalType": "string[]",
          "name": "connectionHops",
          "type": "string[]"
        },
        {
          "internalType": "enum ChannelOrder",
          "name": "ordering",
          "type": "uint8"
        },
        {
          "internalType": "string",
          "name": "counterpartyPortId",
          "type": "string"
        },
        {
          "internalType": "bytes32",
          "name": "counterpartyChannelId",
          "type": "bytes32"
        },
        {
          "internalType": "string",
          "name": "counterpartyVersion",
          "type": "string"
        },
        {
          "components": [
            {
              "internalType": "uint64",
              "name": "proofHeight",
              "type": "uint64"
            },
            {
              "internalType": "bytes",
              "name": "proof",
              "type": "bytes"
            }
          ],
          "internalType": "struct Proof",
          "name": "proof",
          "type": "tuple"
        }
      ],
      "name": "connectIbcChannel",
      "outputs": [],
      "stateMutability": "nonpayable",
      "type": "function"
    },
    {
      "inputs": [
        {
          "components": [
            {
              "internalType": "bytes",
              "name": "clientState",
              "type": "bytes"
            },
            {
              "components": [
                {
                  "internalType": "uint256",
                  "name": "app_hash",
                  "type": "uint256"
                },
                {
                  "internalType": "uint256",
                  "name": "valset_hash",
                  "type": "uint256"
                },
                {
                  "internalType": "uint256",
                  "name": "time",
                  "type": "uint256"
                },
                {
                  "internalType": "uint256",
                  "name": "height",
                  "type": "uint256"
                }
              ],
              "internalType": "struct ConsensusState",
              "name": "consensusState",
              "type": "tuple"
            }
          ],
          "internalType": "struct InitClientMsg",
          "name": "initClientMsg",
          "type": "tuple"
        }
      ],
      "name": "createClient",
      "outputs": [],
      "stateMutability": "nonpayable",
      "type": "function"
    },
    {
      "inputs": [
        {
          "internalType": "address",
          "name": "portAddress",
          "type": "address"
        },
        {
          "internalType": "bytes32",
          "name": "channelId",
          "type": "bytes32"
        }
      ],
      "name": "getChannel",
      "outputs": [
        {
          "components": [
            {
              "internalType": "string",
              "name": "version",
              "type": "string"
            },
            {
              "internalType": "enum ChannelOrder",
              "name": "ordering",
              "type": "uint8"
            },
            {
              "internalType": "string[]",
              "name": "connectionHops",
              "type": "string[]"
            },
            {
              "internalType": "string",
              "name": "counterpartyPortId",
              "type": "string"
            },
            {
              "internalType": "bytes32",
              "name": "counterpartyChannelId",
              "type": "bytes32"
            }
          ],
          "internalType": "struct Channel",
          "name": "",
          "type": "tuple"
        }
      ],
      "stateMutability": "view",
      "type": "function"
    },
    {
      "inputs": [
        {
          "internalType": "address",
          "name": "packetSender",
          "type": "address"
        },
        {
          "internalType": "bytes32",
          "name": "channelId",
          "type": "bytes32"
        },
        {
          "internalType": "uint64",
          "name": "sequence",
          "type": "uint64"
        }
      ],
      "name": "getTotalPacketFees",
      "outputs": [
        {
          "components": [
            {
              "internalType": "uint256",
              "name": "recvFee",
              "type": "uint256"
            },
            {
              "internalType": "uint256",
              "name": "ackFee",
              "type": "uint256"
            },
            {
              "internalType": "uint256",
              "name": "timeoutFee",
              "type": "uint256"
            }
          ],
          "internalType": "struct PacketFee",
          "name": "",
          "type": "tuple"
        }
      ],
      "stateMutability": "view",
      "type": "function"
    },
    {
      "inputs": [],
      "name": "latestConsensusState",
      "outputs": [
        {
          "internalType": "uint256",
          "name": "app_hash",
          "type": "uint256"
        },
        {
          "internalType": "uint256",
          "name": "valset_hash",
          "type": "uint256"
        },
        {
          "internalType": "uint256",
          "name": "time",
          "type": "uint256"
        },
        {
          "internalType": "uint256",
          "name": "height",
          "type": "uint256"
        }
      ],
      "stateMutability": "view",
      "type": "function"
    },
    {
      "inputs": [
        {
          "internalType": "address",
          "name": "portAddress",
          "type": "address"
        },
        {
          "internalType": "bytes32",
          "name": "channelId",
          "type": "bytes32"
        },
        {
          "components": [
            {
              "internalType": "uint64",
              "name": "proofHeight",
              "type": "uint64"
            },
            {
              "internalType": "bytes",
              "name": "proof",
              "type": "bytes"
            }
          ],
          "internalType": "struct Proof",
          "name": "proof",
          "type": "tuple"
        }
      ],
      "name": "onCloseIbcChannel",
      "outputs": [],
      "stateMutability": "nonpayable",
      "type": "function"
    },
    {
      "inputs": [
        {
          "internalType": "contract IbcReceiver",
          "name": "portAddress",
          "type": "address"
        },
        {
          "internalType": "string",
          "name": "version",
          "type": "string"
        },
        {
          "internalType": "enum ChannelOrder",
          "name": "ordering",
          "type": "uint8"
        },
        {
          "internalType": "string[]",
          "name": "connectionHops",
          "type": "string[]"
        },
        {
          "components": [
            {
              "internalType": "string",
              "name": "portId",
              "type": "string"
            },
            {
              "internalType": "bytes32",
              "name": "channelId",
              "type": "bytes32"
            },
            {
              "internalType": "string",
              "name": "version",
              "type": "string"
            }
          ],
          "internalType": "struct CounterParty",
          "name": "counterparty",
          "type": "tuple"
        },
        {
          "components": [
            {
              "internalType": "uint64",
              "name": "proofHeight",
              "type": "uint64"
            },
            {
              "internalType": "bytes",
              "name": "proof",
              "type": "bytes"
            }
          ],
          "internalType": "struct Proof",
          "name": "proof",
          "type": "tuple"
        }
      ],
      "name": "openIbcChannel",
      "outputs": [],
      "stateMutability": "nonpayable",
      "type": "function"
    },
    {
      "inputs": [],
      "name": "owner",
      "outputs": [
        {
          "internalType": "address",
          "name": "",
          "type": "address"
        }
      ],
      "stateMutability": "view",
      "type": "function"
    },
    {
      "inputs": [
        {
          "internalType": "address",
          "name": "portAddress",
          "type": "address"
        },
        {
          "internalType": "bytes32",
          "name": "channelId",
          "type": "bytes32"
        },
        {
          "internalType": "uint64",
          "name": "sequence",
          "type": "uint64"
        },
        {
          "components": [
            {
              "internalType": "uint256",
              "name": "recvFee",
              "type": "uint256"
            },
            {
              "internalType": "uint256",
              "name": "ackFee",
              "type": "uint256"
            },
            {
              "internalType": "uint256",
              "name": "timeoutFee",
              "type": "uint256"
            }
          ],
          "internalType": "struct PacketFee",
          "name": "fee",
          "type": "tuple"
        }
      ],
      "name": "payPacketFeeAsync",
      "outputs": [],
      "stateMutability": "payable",
      "type": "function"
    },
    {
      "inputs": [
        {
          "internalType": "address",
          "name": "",
          "type": "address"
        },
        {
          "internalType": "bytes32",
          "name": "",
          "type": "bytes32"
        }
      ],
      "name": "portChannelMap",
      "outputs": [
        {
          "internalType": "string",
          "name": "version",
          "type": "string"
        },
        {
          "internalType": "enum ChannelOrder",
          "name": "ordering",
          "type": "uint8"
        },
        {
          "internalType": "string",
          "name": "counterpartyPortId",
          "type": "string"
        },
        {
          "internalType": "bytes32",
          "name": "counterpartyChannelId",
          "type": "bytes32"
        }
      ],
      "stateMutability": "view",
      "type": "function"
    },
    {
      "inputs": [
        {
          "internalType": "address",
          "name": "addr",
          "type": "address"
        },
        {
          "internalType": "string",
          "name": "portId",
          "type": "string"
        }
      ],
      "name": "portIdAddressMatch",
      "outputs": [
        {
          "internalType": "bool",
          "name": "",
          "type": "bool"
        }
      ],
      "stateMutability": "view",
      "type": "function"
    },
    {
      "inputs": [
        {
          "internalType": "contract IbcReceiver",
          "name": "receiver",
          "type": "address"
        },
        {
          "components": [
            {
              "components": [
                {
                  "internalType": "string",
                  "name": "portId",
                  "type": "string"
                },
                {
                  "internalType": "bytes32",
                  "name": "channelId",
                  "type": "bytes32"
                }
              ],
              "internalType": "struct IbcEndpoint",
              "name": "src",
              "type": "tuple"
            },
            {
              "components": [
                {
                  "internalType": "string",
                  "name": "portId",
                  "type": "string"
                },
                {
                  "internalType": "bytes32",
                  "name": "channelId",
                  "type": "bytes32"
                }
              ],
              "internalType": "struct IbcEndpoint",
              "name": "dest",
              "type": "tuple"
            },
            {
              "internalType": "uint64",
              "name": "sequence",
              "type": "uint64"
            },
            {
              "internalType": "bytes",
              "name": "data",
              "type": "bytes"
            },
            {
              "components": [
                {
                  "internalType": "uint64",
                  "name": "blockHeight",
                  "type": "uint64"
                },
                {
                  "internalType": "uint64",
                  "name": "timestamp",
                  "type": "uint64"
                }
              ],
              "internalType": "struct IbcTimeout",
              "name": "timeout",
              "type": "tuple"
            }
          ],
          "internalType": "struct IbcPacket",
          "name": "packet",
          "type": "tuple"
        },
        {
          "components": [
            {
              "internalType": "uint64",
              "name": "proofHeight",
              "type": "uint64"
            },
            {
              "internalType": "bytes",
              "name": "proof",
              "type": "bytes"
            }
          ],
          "internalType": "struct Proof",
          "name": "proof",
          "type": "tuple"
        }
      ],
      "name": "recvPacket",
      "outputs": [],
      "stateMutability": "nonpayable",
      "type": "function"
    },
    {
      "inputs": [],
      "name": "renounceOwnership",
      "outputs": [],
      "stateMutability": "nonpayable",
      "type": "function"
    },
    {
      "inputs": [
        {
          "internalType": "bytes32",
          "name": "channelId",
          "type": "bytes32"
        },
        {
          "internalType": "bytes",
          "name": "packet",
          "type": "bytes"
        },
        {
          "internalType": "uint64",
          "name": "timeoutTimestamp",
          "type": "uint64"
        },
        {
          "components": [
            {
              "internalType": "uint256",
              "name": "recvFee",
              "type": "uint256"
            },
            {
              "internalType": "uint256",
              "name": "ackFee",
              "type": "uint256"
            },
            {
              "internalType": "uint256",
              "name": "timeoutFee",
              "type": "uint256"
            }
          ],
          "internalType": "struct PacketFee",
          "name": "fee",
          "type": "tuple"
        }
      ],
      "name": "sendPacket",
      "outputs": [],
      "stateMutability": "payable",
      "type": "function"
    },
    {
      "inputs": [
        {
          "internalType": "string",
          "name": "_portPrefix",
          "type": "string"
        }
      ],
      "name": "setPortPrefix",
      "outputs": [],
      "stateMutability": "nonpayable",
      "type": "function"
    },
    {
      "inputs": [
        {
          "internalType": "contract IbcReceiver",
          "name": "receiver",
          "type": "address"
        },
        {
          "components": [
            {
              "components": [
                {
                  "internalType": "string",
                  "name": "portId",
                  "type": "string"
                },
                {
                  "internalType": "bytes32",
                  "name": "channelId",
                  "type": "bytes32"
                }
              ],
              "internalType": "struct IbcEndpoint",
              "name": "src",
              "type": "tuple"
            },
            {
              "components": [
                {
                  "internalType": "string",
                  "name": "portId",
                  "type": "string"
                },
                {
                  "internalType": "bytes32",
                  "name": "channelId",
                  "type": "bytes32"
                }
              ],
              "internalType": "struct IbcEndpoint",
              "name": "dest",
              "type": "tuple"
            },
            {
              "internalType": "uint64",
              "name": "sequence",
              "type": "uint64"
            },
            {
              "internalType": "bytes",
              "name": "data",
              "type": "bytes"
            },
            {
              "components": [
                {
                  "internalType": "uint64",
                  "name": "blockHeight",
                  "type": "uint64"
                },
                {
                  "internalType": "uint64",
                  "name": "timestamp",
                  "type": "uint64"
                }
              ],
              "internalType": "struct IbcTimeout",
              "name": "timeout",
              "type": "tuple"
            }
          ],
          "internalType": "struct IbcPacket",
          "name": "packet",
          "type": "tuple"
        },
        {
          "components": [
            {
              "internalType": "uint64",
              "name": "proofHeight",
              "type": "uint64"
            },
            {
              "internalType": "bytes",
              "name": "proof",
              "type": "bytes"
            }
          ],
          "internalType": "struct Proof",
          "name": "proof",
          "type": "tuple"
        }
      ],
      "name": "timeout",
      "outputs": [],
      "stateMutability": "nonpayable",
      "type": "function"
    },
    {
      "inputs": [
        {
          "internalType": "address",
          "name": "newOwner",
          "type": "address"
        }
      ],
      "name": "transferOwnership",
      "outputs": [],
      "stateMutability": "nonpayable",
      "type": "function"
    },
    {
      "inputs": [
        {
          "components": [
            {
              "components": [
                {
                  "internalType": "uint256",
                  "name": "app_hash",
                  "type": "uint256"
                },
                {
                  "internalType": "uint256",
                  "name": "valset_hash",
                  "type": "uint256"
                },
                {
                  "internalType": "uint256",
                  "name": "time",
                  "type": "uint256"
                },
                {
                  "internalType": "uint256",
                  "name": "height",
                  "type": "uint256"
                }
              ],
              "internalType": "struct ConsensusState",
              "name": "consensusState",
              "type": "tuple"
            },
            {
              "components": [
                {
                  "internalType": "uint256[2]",
                  "name": "a",
                  "type": "uint256[2]"
                },
                {
                  "internalType": "uint256[2][2]",
                  "name": "b",
                  "type": "uint256[2][2]"
                },
                {
                  "internalType": "uint256[2]",
                  "name": "c",
                  "type": "uint256[2]"
                }
              ],
              "internalType": "struct ZkProof",
              "name": "zkProof",
              "type": "tuple"
            }
          ],
          "internalType": "struct UpdateClientMsg",
          "name": "updateClientMsg",
          "type": "tuple"
        }
      ],
      "name": "updateClient",
      "outputs": [],
      "stateMutability": "nonpayable",
      "type": "function"
    },
    {
      "inputs": [
        {
          "components": [
            {
              "internalType": "bytes",
              "name": "clientState",
              "type": "bytes"
            },
            {
              "components": [
                {
                  "internalType": "uint256",
                  "name": "app_hash",
                  "type": "uint256"
                },
                {
                  "internalType": "uint256",
                  "name": "valset_hash",
                  "type": "uint256"
                },
                {
                  "internalType": "uint256",
                  "name": "time",
                  "type": "uint256"
                },
                {
                  "internalType": "uint256",
                  "name": "height",
                  "type": "uint256"
                }
              ],
              "internalType": "struct ConsensusState",
              "name": "consensusState",
              "type": "tuple"
            }
          ],
          "internalType": "struct UpgradeClientMsg",
          "name": "upgradeClientMsg",
          "type": "tuple"
        }
      ],
      "name": "upgradeClient",
      "outputs": [],
      "stateMutability": "nonpayable",
      "type": "function"
    },
    {
      "inputs": [
        {
          "internalType": "address",
          "name": "receiver",
          "type": "address"
        },
        {
          "components": [
            {
              "components": [
                {
                  "internalType": "string",
                  "name": "portId",
                  "type": "string"
                },
                {
                  "internalType": "bytes32",
                  "name": "channelId",
                  "type": "bytes32"
                }
              ],
              "internalType": "struct IbcEndpoint",
              "name": "src",
              "type": "tuple"
            },
            {
              "components": [
                {
                  "internalType": "string",
                  "name": "portId",
                  "type": "string"
                },
                {
                  "internalType": "bytes32",
                  "name": "channelId",
                  "type": "bytes32"
                }
              ],
              "internalType": "struct IbcEndpoint",
              "name": "dest",
              "type": "tuple"
            },
            {
              "internalType": "uint64",
              "name": "sequence",
              "type": "uint64"
            },
            {
              "internalType": "bytes",
              "name": "data",
              "type": "bytes"
            },
            {
              "components": [
                {
                  "internalType": "uint64",
                  "name": "blockHeight",
                  "type": "uint64"
                },
                {
                  "internalType": "uint64",
                  "name": "timestamp",
                  "type": "uint64"
                }
              ],
              "internalType": "struct IbcTimeout",
              "name": "timeout",
              "type": "tuple"
            }
          ],
          "internalType": "struct IbcPacket",
          "name": "packet",
          "type": "tuple"
        }
      ],
      "name": "writeTimeoutPacket",
      "outputs": [],
      "stateMutability": "nonpayable",
      "type": "function"
    }
  ],
  "bytecode": "0x60806040526002805460ff60a01b191690553480156200001e57600080fd5b506040516200521138038062005211833981016040819052620000419162000229565b6200004c3362000104565b600180546001600160a01b038086166001600160a01b031992831617909255600280549285169290911682179055620000cb5760405162461bcd60e51b815260206004820152601d60248201527f457363726f772063616e6e6f74206265207a65726f2061646472657373000000604482015260640160405180910390fd5b8051620000e090600790602084019062000154565b50516008805463ffffffff191663ffffffff90921691909117905550620003709050565b600080546001600160a01b038381166001600160a01b0319831681178455604051919092169283917f8be0079c531659141344cd1fd0a4f28419497f9722a3daafe3b4186f6b6457e09190a35050565b828054620001629062000333565b90600052602060002090601f016020900481019282620001865760008555620001d1565b82601f10620001a157805160ff1916838001178555620001d1565b82800160010185558215620001d1579182015b82811115620001d1578251825591602001919060010190620001b4565b50620001df929150620001e3565b5090565b5b80821115620001df5760008155600101620001e4565b6001600160a01b03811681146200021057600080fd5b50565b634e487b7160e01b600052604160045260246000fd5b6000806000606084860312156200023f57600080fd5b83516200024c81620001fa565b809350506020808501516200026181620001fa565b60408601519093506001600160401b03808211156200027f57600080fd5b818701915087601f8301126200029457600080fd5b815181811115620002a957620002a962000213565b604051601f8201601f19908116603f01168101908382118183101715620002d457620002d462000213565b816040528281528a86848701011115620002ed57600080fd5b600093505b82841015620003115784840186015181850187015292850192620002f2565b82841115620003235760008684830101525b8096505050505050509250925092565b600181811c908216806200034857607f821691505b602082108114156200036a57634e487b7160e01b600052602260045260246000fd5b50919050565b614e9180620003806000396000f3fe6080604052600436106101355760003560e01c80639f59ae71116100ab578063ca034bff1161006f578063ca034bff14610382578063ccc0260714610395578063d58be73c146103a8578063e36e013f146103ea578063f2fde38b1461041a578063f4ecbb151461043a57600080fd5b80639f59ae71146102af578063b2b1bf03146102cf578063bba10517146102ff578063be57b14f1461031f578063c2a2514d1461033f57600080fd5b80638059885a116100fd5780638059885a146101e757806380840e6b146102075780638b24b4cb146102275780638da5cb5b1461024757806394e47af81461026f578063951538f31461028f57600080fd5b80633f7625ab1461013a57806342852d241461015c57806342b7dfe314610192578063520b128e146101b2578063715018a6146101d2575b600080fd5b34801561014657600080fd5b5061015a6101553660046137f5565b61045a565b005b34801561016857600080fd5b5061017c610177366004613844565b6106bc565b6040516101899190613904565b60405180910390f35b34801561019e57600080fd5b5061015a6101ad366004613a80565b61095d565b3480156101be57600080fd5b5061015a6101cd366004613b77565b610d32565b3480156101de57600080fd5b5061015a610fd9565b3480156101f357600080fd5b5061015a610202366004613c11565b610fed565b34801561021357600080fd5b5061015a610222366004613c36565b61113a565b34801561023357600080fd5b5061015a610242366004613c72565b6111b1565b34801561025357600080fd5b506000546040516001600160a01b039091168152602001610189565b34801561027b57600080fd5b5061015a61028a366004613c8b565b6114fc565b34801561029b57600080fd5b5061015a6102aa366004613d00565b611ec1565b3480156102bb57600080fd5b5061015a6102ca366004613d4e565b612347565b3480156102db57600080fd5b506102ef6102ea366004613844565b612379565b6040516101899493929190613d8f565b34801561030b57600080fd5b5061015a61031a366004613c8b565b6124c5565b34801561032b57600080fd5b5061015a61033a366004613de5565b61276a565b34801561034b57600080fd5b506003546004546005546006546103629392919084565b604080519485526020850193909352918301526060820152608001610189565b61015a610390366004613ed7565b6129ef565b61015a6103a3366004613f46565b612ee0565b3480156103b457600080fd5b506103c86103c3366004613f96565b6130d9565b6040805182518152602080840151908201529181015190820152606001610189565b3480156103f657600080fd5b5061040a610405366004613fd4565b61315e565b6040519015158152602001610189565b34801561042657600080fd5b5061015a610435366004614028565b613249565b34801561044657600080fd5b5061015a610455366004613c36565b6132c2565b610472826104688380614045565b6104059080614065565b6104975760405162461bcd60e51b815260040161048e906140ab565b60405180910390fd5b6001600160a01b0382166000908152600e6020908152604082209082906104c090850185614045565b60200135815260200190815260200160002060008360400160208101906104e791906140fa565b6001600160401b0316815260208101919091526040016000205460ff16905080156105545760405162461bcd60e51b815260206004820152601d60248201527f5061636b6574207265636569707420616c726561647920657869737473000000604482015260640161048e565b61056460c0830160a084016140fa565b6001600160401b03161580610591575061058460c0830160a084016140fa565b6001600160401b03164210155b80156105d557506105a860a08301608084016140fa565b6001600160401b031615806105d557506105c860a08301608084016140fa565b6001600160401b03164310155b6106215760405162461bcd60e51b815260206004820152601860248201527f5061636b6574206e6f742074696d6564206f7574207965740000000000000000604482015260640161048e565b61062e6020830183614045565b602001356001600160a01b0384167fb46f131b4b05b6cae7605b6f86bc6a1210f3eb7dc8bd1297817d62b1dcef3e0c61066d60608601604087016140fa565b61067d60a08701608088016140fa565b61068d60c0880160a089016140fa565b604080516001600160401b039485168152928416602084015292168183015290519081900360600190a3505050565b6106ee6040805160a0810190915260608152602081016000815260606020820181905260408201819052600091015290565b6001600160a01b038316600090815260096020908152604080832085845290915290819020815160a0810190925280548290829061072b90614115565b80601f016020809104026020016040519081016040528092919081815260200182805461075790614115565b80156107a45780601f10610779576101008083540402835291602001916107a4565b820191906000526020600020905b81548152906001019060200180831161078757829003601f168201915b5050509183525050600182015460209091019060ff1660028111156107cb576107cb6138cc565b60028111156107dc576107dc6138cc565b815260200160028201805480602002602001604051908101604052809291908181526020016000905b828210156108b157838290600052602060002001805461082490614115565b80601f016020809104026020016040519081016040528092919081815260200182805461085090614115565b801561089d5780601f106108725761010080835404028352916020019161089d565b820191906000526020600020905b81548152906001019060200180831161088057829003601f168201915b505050505081526020019060010190610805565b5050505081526020016003820180546108c990614115565b80601f01602080910402602001604051908101604052809291908181526020018280546108f590614115565b80156109425780601f1061091757610100808354040283529160200191610942565b820191906000526020600020905b81548152906001019060200180831161092557829003601f168201915b50505050508152602001600482015481525050905092915050565b6001546040805160808101909152605e8082526001600160a01b039092169163c9b73c6c91600391859190614d5e60208301396040518463ffffffff1660e01b81526004016109ae939291906141f9565b60206040518083038186803b1580156109c657600080fd5b505afa1580156109da573d6000803e3d6000fd5b505050506040513d601f19601f820116820180604052508101906109fe9190614295565b610a1a5760405162461bcd60e51b815260040161048e906142b0565b60405163a6c50b4d60e01b81526001600160a01b038c169063a6c50b4d90610a4c908d908890889088906004016142e7565b600060405180830381600087803b158015610a6657600080fd5b505af1158015610a7a573d6000803e3d6000fd5b505050506040518060a0016040528084848080601f016020809104026020016040519081016040528093929190818152602001838380828437600092019190915250505090825250602001886002811115610ad757610ad76138cc565b8152602001610ae68a8c614374565b815260200187878080601f016020809104026020016040519081016040528093929190818152602001838380828437600092018290525093855250505060209182018790526001600160a01b038e1681526009825260408082208e835283529020825180519192610b5c928492909101906135ed565b50602082015160018083018054909160ff1990911690836002811115610b8457610b846138cc565b021790555060408201518051610ba4916002840191602090910190613671565b5060608201518051610bc09160038401916020909101906135ed565b50608082015181600401559050506001600a60008d6001600160a01b03166001600160a01b0316815260200190815260200160002060008c815260200190815260200160002060006101000a8154816001600160401b0302191690836001600160401b031602179055506001600b60008d6001600160a01b03166001600160a01b0316815260200190815260200160002060008c815260200190815260200160002060006101000a8154816001600160401b0302191690836001600160401b031602179055506001600c60008d6001600160a01b03166001600160a01b0316815260200190815260200160002060008c815260200190815260200160002060006101000a8154816001600160401b0302191690836001600160401b031602179055508a6001600160a01b03167fec10e9c95bcd0a3561931a33a25adba5f809e8d25279a05da83a095e19f02add8b604051610d1d91815260200190565b60405180910390a25050505050505050505050565b610d40846104688580614045565b610d5c5760405162461bcd60e51b815260040161048e90614438565b60015460405163326dcf1b60e21b81526001600160a01b039091169063c9b73c6c90610d8f906003908590600401614482565b60206040518083038186803b158015610da757600080fd5b505afa158015610dbb573d6000803e3d6000fd5b505050506040513d601f19601f82011682018060405250810190610ddf9190614295565b610e1f5760405162461bcd60e51b81526020600482015260116024820152704661696c20746f2070726f76652061636b60781b604482015260640161048e565b6001600160a01b0384166000908152600d6020526040812081610e428680614045565b6020013581526020019081526020016000206000856040016020810190610e6991906140fa565b6001600160401b0316815260208101919091526040016000205460ff16905080610ea55760405162461bcd60e51b815260040161048e90614537565b604051633d173d7960e21b81526001600160a01b0386169063f45cf5e490610ed19087906004016145c2565b600060405180830381600087803b158015610eeb57600080fd5b505af1158015610eff573d6000803e3d6000fd5b5050506001600160a01b0386166000908152600d602052604081209150610f268680614045565b6020013581526020019081526020016000206000856040016020810190610f4d91906140fa565b6001600160401b031681526020810191909152604001600020805460ff19169055610f788480614045565b602001356001600160a01b0386167fe46f6591236abe528fe47a3b281fb002524dadd3e62b1f317ed285d07273c3b1610fb760608801604089016140fa565b6040516001600160401b03909116815260200160405180910390a35050505050565b610fe1613351565b610feb60006133ab565b565b600254600160a01b900460ff1661103b5760405162461bcd60e51b815260206004820152601260248201527110db1a595b9d081b9bdd0818dc99585d195960721b604482015260640161048e565b600154604051633b427df160e01b81526001600160a01b0390911690633b427df19061106e906003908590600401614686565b60206040518083038186803b15801561108657600080fd5b505afa15801561109a573d6000803e3d6000fd5b505050506040513d601f19601f820116820180604052508101906110be9190614295565b61111c5760405162461bcd60e51b815260206004820152602960248201527f557064617465436c69656e744d73672070726f6f6620766572696669636174696044820152681bdb8819985a5b195960ba1b606482015260840161048e565b80356003556020810135600455604081013560055560600135600655565b611142613351565b600254600160a01b900460ff166111905760405162461bcd60e51b815260206004820152601260248201527110db1a595b9d081b9bdd0818dc99585d195960721b604482015260640161048e565b60208101356003556040810135600455606081013560055560800135600655565b336000908152600960209081526040808320848452909152808220815160a081019092528054829082906111e490614115565b80601f016020809104026020016040519081016040528092919081815260200182805461121090614115565b801561125d5780601f106112325761010080835404028352916020019161125d565b820191906000526020600020905b81548152906001019060200180831161124057829003601f168201915b5050509183525050600182015460209091019060ff166002811115611284576112846138cc565b6002811115611295576112956138cc565b815260200160028201805480602002602001604051908101604052809291908181526020016000905b8282101561136a5783829060005260206000200180546112dd90614115565b80601f016020809104026020016040519081016040528092919081815260200182805461130990614115565b80156113565780601f1061132b57610100808354040283529160200191611356565b820191906000526020600020905b81548152906001019060200180831161133957829003601f168201915b5050505050815260200190600101906112be565b50505050815260200160038201805461138290614115565b80601f01602080910402602001604051908101604052809291908181526020018280546113ae90614115565b80156113fb5780601f106113d0576101008083540402835291602001916113fb565b820191906000526020600020905b8154815290600101906020018083116113de57829003601f168201915b5050505050815260200160048201548152505090506000801b816080015114156114675760405162461bcd60e51b815260206004820152601f60248201527f4368616e6e656c206e6f74206f776e6564206279206d73672e73656e64657200604482015260640161048e565b60608101516080820151604051635fe39e0d60e01b815233928392635fe39e0d92611498928892909160040161472b565b600060405180830381600087803b1580156114b257600080fd5b505af11580156114c6573d6000803e3d6000fd5b50506040518592503391507fe893e4ba0e364cdc96364b1e1e0d53b0d91e5fd6aa0ee9d81a17ecd61178bf1790600090a3505050565b61150d836104686020850185614045565b6115295760405162461bcd60e51b815260040161048e906140ab565b60015460405163326dcf1b60e21b81526001600160a01b039091169063c9b73c6c9061155c906003908590600401614754565b60206040518083038186803b15801561157457600080fd5b505afa158015611588573d6000803e3d6000fd5b505050506040513d601f19601f820116820180604052508101906115ac9190614295565b6115f85760405162461bcd60e51b815260206004820152601f60248201527f4661696c20746f2070726f7665207061636b657420636f6d6d69746d656e7400604482015260640161048e565b6001600160a01b0383166000908152600e60209081526040822090829061162190860186614045565b602001358152602001908152602001600020600084604001602081019061164891906140fa565b6001600160401b0316815260208101919091526040016000205460ff16905080156116b55760405162461bcd60e51b815260206004820152601d60248201527f5061636b6574207265636569707420616c726561647920657869737473000000604482015260640161048e565b6001600160a01b0384166000908152600e60209081526040822060019290916116e090870187614045565b602001358152602001908152602001600020600085604001602081019061170791906140fa565b6001600160401b0316815260208082019290925260409081016000908120805460ff1916941515949094179093556001600160a01b038716835260098252822090829061175690870187614045565b6020013581526020019081526020016000206040518060a001604052908160008201805461178390614115565b80601f01602080910402602001604051908101604052809291908181526020018280546117af90614115565b80156117fc5780601f106117d1576101008083540402835291602001916117fc565b820191906000526020600020905b8154815290600101906020018083116117df57829003601f168201915b5050509183525050600182015460209091019060ff166002811115611823576118236138cc565b6002811115611834576118346138cc565b815260200160028201805480602002602001604051908101604052809291908181526020016000905b8282101561190957838290600052602060002001805461187c90614115565b80601f01602080910402602001604051908101604052809291908181526020018280546118a890614115565b80156118f55780601f106118ca576101008083540402835291602001916118f5565b820191906000526020600020905b8154815290600101906020018083116118d857829003601f168201915b50505050508152602001906001019061185d565b50505050815260200160038201805461192190614115565b80601f016020809104026020016040519081016040528092919081815260200182805461194d90614115565b801561199a5780601f1061196f5761010080835404028352916020019161199a565b820191906000526020600020905b81548152906001019060200180831161197d57829003601f168201915b50505091835250506004919091015460209091015290506002816020015160028111156119c9576119c96138cc565b1415611af8576001600160a01b0385166000908152600b60209081526040822091906119f790870187614045565b60209081013582528101919091526040908101600020546001600160401b031690611a2890606087019087016140fa565b6001600160401b031614611a7e5760405162461bcd60e51b815260206004820152601a60248201527f556e6578706563746564207061636b65742073657175656e6365000000000000604482015260640161048e565b611a8e60608501604086016140fa565b611a99906001614839565b6001600160a01b0386166000908152600b6020908152604082209190611ac190880188614045565b60200135815260200190815260200160002060006101000a8154816001600160401b0302191690836001600160401b031602179055505b611b056020850185614045565b602001356001600160a01b0386167fde5b57e6566d68a30b0979431df3d5df6db3b9aa89f8820f595b9315bf86d067611b4460608801604089016140fa565b6040516001600160401b03909116815260200160405180910390a3611b6f60c0850160a086016140fa565b6001600160401b031615801590611b9e5750611b9160c0850160a086016140fa565b6001600160401b03164210155b80611be35750611bb460a08501608086016140fa565b6001600160401b031615801590611be35750611bd660a08501608086016140fa565b6001600160401b03164310155b15611c875784611bf66020860186614045565b602001356001600160a01b0382167fb46f131b4b05b6cae7605b6f86bc6a1210f3eb7dc8bd1297817d62b1dcef3e0c611c356060890160408a016140fa565b611c4560a08a0160808b016140fa565b611c5560c08b0160a08c016140fa565b604080516001600160401b039485168152928416602084015292168183015290519081900360600190a3505050505050565b60405163582c740d60e11b81526000906001600160a01b0387169063b058e81a90611cb69088906004016145c2565b600060405180830381600087803b158015611cd057600080fd5b505af1158015611ce4573d6000803e3d6000fd5b505050506040513d6000823e601f3d908101601f19168201604052611d0c9190810190614894565b6001600160a01b0387166000908152600f6020908152604082209293509091908290611d3a90890189614045565b6020013581526020019081526020016000206000876040016020810190611d6191906140fa565b6001600160401b0316815260208101919091526040016000205460ff1690508015611dda5760405162461bcd60e51b8152602060048201526024808201527f41636b207061636b657420636f6d6d69746d656e7420616c72656164792065786044820152636973747360e01b606482015260840161048e565b6001600160a01b0387166000908152600f6020908152604082206001929091611e05908a018a614045565b6020013581526020019081526020016000206000886040016020810190611e2c91906140fa565b6001600160401b03168152602080820192909252604001600020805460ff191692151592909217909155611e6290870187614045565b602001356001600160a01b0388167fa32e6f42b1d63fb83ad73b009a6dbb9413d1da02e95b1bb08f081815eea8db20611ea160608a0160408b016140fa565b85604051611eb092919061493e565b60405180910390a350505050505050565b600154604080516080810190915260538082526001600160a01b039092169163c9b73c6c91600391859190614dbc60208301396040518463ffffffff1660e01b8152600401611f12939291906141f9565b60206040518083038186803b158015611f2a57600080fd5b505afa158015611f3e573d6000803e3d6000fd5b505050506040513d601f19601f82011682018060405250810190611f629190614295565b611f7e5760405162461bcd60e51b815260040161048e906142b0565b6001600160a01b0383166000908152600960209081526040808320858452909152808220815160a08101909252805482908290611fba90614115565b80601f0160208091040260200160405190810160405280929190818152602001828054611fe690614115565b80156120335780601f1061200857610100808354040283529160200191612033565b820191906000526020600020905b81548152906001019060200180831161201657829003601f168201915b5050509183525050600182015460209091019060ff16600281111561205a5761205a6138cc565b600281111561206b5761206b6138cc565b815260200160028201805480602002602001604051908101604052809291908181526020016000905b828210156121405783829060005260206000200180546120b390614115565b80601f01602080910402602001604051908101604052809291908181526020018280546120df90614115565b801561212c5780601f106121015761010080835404028352916020019161212c565b820191906000526020600020905b81548152906001019060200180831161210f57829003601f168201915b505050505081526020019060010190612094565b50505050815260200160038201805461215890614115565b80601f016020809104026020016040519081016040528092919081815260200182805461218490614115565b80156121d15780601f106121a6576101008083540402835291602001916121d1565b820191906000526020600020905b8154815290600101906020018083116121b457829003601f168201915b5050505050815260200160048201548152505090506000801b8160800151141561223d5760405162461bcd60e51b815260206004820181905260248201527f4368616e6e656c206e6f74206f776e656420627920706f727441646472657373604482015260640161048e565b60608101516080820151604051635fe39e0d60e01b815286926001600160a01b03841692635fe39e0d92612277928992909160040161472b565b600060405180830381600087803b15801561229157600080fd5b505af11580156122a5573d6000803e3d6000fd5b5050506001600160a01b0386166000908152600960209081526040808320888452909152812091506122d782826136ca565b60018201805460ff191690556122f1600283016000613704565b6122ff6003830160006136ca565b6004820160009055505083856001600160a01b03167fe893e4ba0e364cdc96364b1e1e0d53b0d91e5fd6aa0ee9d81a17ecd61178bf1760405160405180910390a35050505050565b61234f613351565b61235b60078383613722565b506008805463ffffffff191663ffffffff9290921691909117905550565b600960209081526000928352604080842090915290825290208054819061239f90614115565b80601f01602080910402602001604051908101604052809291908181526020018280546123cb90614115565b80156124185780601f106123ed57610100808354040283529160200191612418565b820191906000526020600020905b8154815290600101906020018083116123fb57829003601f168201915b5050506001840154600385018054949560ff90921694919350915061243c90614115565b80601f016020809104026020016040519081016040528092919081815260200182805461246890614115565b80156124b55780601f1061248a576101008083540402835291602001916124b5565b820191906000526020600020905b81548152906001019060200180831161249857829003601f168201915b5050505050908060040154905084565b6124d3836104688480614045565b6124ef5760405162461bcd60e51b815260040161048e90614438565b60015460405163122d651b60e01b81526001600160a01b039091169063122d651b90612522906003908590600401614975565b60206040518083038186803b15801561253a57600080fd5b505afa15801561254e573d6000803e3d6000fd5b505050506040513d601f19601f820116820180604052508101906125729190614295565b6125b65760405162461bcd60e51b815260206004820152601560248201527411985a5b081d1bc81c1c9bdd99481d1a5b595bdd5d605a1b604482015260640161048e565b6001600160a01b0383166000908152600d60205260408120816125d98580614045565b602001358152602001908152602001600020600084604001602081019061260091906140fa565b6001600160401b0316815260208101919091526040016000205460ff1690508061263c5760405162461bcd60e51b815260040161048e90614537565b60405163b33c257760e01b81526001600160a01b0385169063b33c2577906126689086906004016145c2565b600060405180830381600087803b15801561268257600080fd5b505af1158015612696573d6000803e3d6000fd5b5050506001600160a01b0385166000908152600d6020526040812091506126bd8580614045565b60200135815260200190815260200160002060008460400160208101906126e491906140fa565b6001600160401b0316815260208101919091526040908101600020805460ff1916905561271790606085019085016140fa565b6001600160401b031661272a8480614045565b60200135856001600160a01b03167f19ac40c4084d9bfb5b43f819a94bf01c70789b0d579871f59e4f86def04d934460405160405180910390a450505050565b6127748280614065565b151590506127c45760405162461bcd60e51b815260206004820152601960248201527f456d70747920636f756e74657270617274792e706f7274496400000000000000604482015260640161048e565b60208201351515806127e357506127de6040830183614065565b151590505b8061280257506127f660208201826140fa565b6001600160401b031615155b8061281a57506128156020820182614065565b151590505b156128dc576001546040805160808101909152604d8082526001600160a01b039092169163c9b73c6c91600391859190614e0f60208301396040518463ffffffff1660e01b8152600401612870939291906141f9565b60206040518083038186803b15801561288857600080fd5b505afa15801561289c573d6000803e3d6000fd5b505050506040513d601f19601f820116820180604052508101906128c09190614295565b6128dc5760405162461bcd60e51b815260040161048e906142b0565b60006001600160a01b038916632653b6d289898989896128fc8a80614065565b60208c013561290e60408e018e614065565b6040518b63ffffffff1660e01b81526004016129339a99989796959493929190614a40565b600060405180830381600087803b15801561294d57600080fd5b505af1158015612961573d6000803e3d6000fd5b505050506040513d6000823e601f3d908101601f191682016040526129899190810190614ab5565b90506001600160a01b0389167f0d41fc4f5d79d2410bc37faa65c098ed5b933e53d5add2f9323d3bbddc6922b1828888886129c48980614065565b8a602001356040516129dc9796959493929190614afd565b60405180910390a2505050505050505050565b336000908152600960209081526040808320888452909152808220815160a08101909252805482908290612a2290614115565b80601f0160208091040260200160405190810160405280929190818152602001828054612a4e90614115565b8015612a9b5780601f10612a7057610100808354040283529160200191612a9b565b820191906000526020600020905b815481529060010190602001808311612a7e57829003601f168201915b5050509183525050600182015460209091019060ff166002811115612ac257612ac26138cc565b6002811115612ad357612ad36138cc565b815260200160028201805480602002602001604051908101604052809291908181526020016000905b82821015612ba8578382906000526020600020018054612b1b90614115565b80601f0160208091040260200160405190810160405280929190818152602001828054612b4790614115565b8015612b945780601f10612b6957610100808354040283529160200191612b94565b820191906000526020600020905b815481529060010190602001808311612b7757829003601f168201915b505050505081526020019060010190612afc565b505050508152602001600382018054612bc090614115565b80601f0160208091040260200160405190810160405280929190818152602001828054612bec90614115565b8015612c395780601f10612c0e57610100808354040283529160200191612c39565b820191906000526020600020905b815481529060010190602001808311612c1c57829003601f168201915b5050505050815260200160048201548152505090506000801b81608001511415612ca55760405162461bcd60e51b815260206004820152601b60248201527f4368616e6e656c206e6f74206f776e65642062792073656e6465720000000000604482015260640161048e565b336000908152600a602090815260408083208984529091529020546001600160401b031680612d165760405162461bcd60e51b815260206004820152601760248201527f496e76616c6964207061636b65742073657175656e6365000000000000000000604482015260640161048e565b6000612d2a846020013585604001356133fb565b612d35908535614b5a565b6002546040519192506000916001600160a01b039091169083908381818185875af1925050503d8060008114612d87576040519150601f19603f3d011682016040523d82523d6000602084013e612d8c565b606091505b5050905080612ddd5760405162461bcd60e51b815260206004820152601b60248201527f4661696c656420746f20657363726f77207061636b6574206665650000000000604482015260640161048e565b3360008181526010602090815260408083208d845282528083206001600160401b0388168085529083528184208a3581558a8401356001808301919091558b840135600290920191909155948452600d83528184208e855283528184209084529091529020805460ff191682179055612e57908490614839565b336000818152600a602090815260408083208e845290915290819020805467ffffffffffffffff19166001600160401b03949094169390931790925590518a91907ffa2b50af641c9fe497248f944915bafc2aa44400425d815dd9b7417c00f9f9b890612ecd908c908c9089908d908d90614b72565b60405180910390a3505050505050505050565b6001600160a01b0384166000908152600d6020908152604080832086845282528083206001600160401b038616845290915290205460ff1680612f355760405162461bcd60e51b815260040161048e90614537565b6000612f49836020013584604001356133fb565b612f54908435614b5a565b6002546040519192506000916001600160a01b039091169083908381818185875af1925050503d8060008114612fa6576040519150601f19603f3d011682016040523d82523d6000602084013e612fab565b606091505b5050905080612ffc5760405162461bcd60e51b815260206004820152601b60248201527f4661696c656420746f20657363726f77207061636b6574206665650000000000604482015260640161048e565b6001600160a01b038716600090815260106020908152604080832089845282528083206001600160401b0389168452909152908190208151606081019092528054909190819061304e90883590614b5a565b8152602001866020013583600101546130679190614b5a565b8152602001866040013583600201546130809190614b5a565b90526001600160a01b0390981660009081526010602090815260408083209983529881528882206001600160401b0390981682529687528790208851815595880151600187015550505050929091015160029091015550565b6130fd60405180606001604052806000815260200160008152602001600081525090565b506001600160a01b038316600090815260106020908152604080832085845282528083206001600160401b038516845282529182902082516060810184528154815260018201549281019290925260020154918101919091525b9392505050565b6008546000906131769063ffffffff16828486614bc6565b604051602001613187929190614bf0565b6040516020818303038152906040528051906020012060076040516020016131af9190614c00565b60405160208183030381529060405280519060200120146131d257506000613157565b6008546000906131eb90849063ffffffff168187614bc6565b8080601f01602080910402602001604051908101604052809392919081815260200183838082843760009201919091525092935050506001600160a01b038616905061323682613411565b6001600160a01b03161495945050505050565b613251613351565b6001600160a01b0381166132b65760405162461bcd60e51b815260206004820152602660248201527f4f776e61626c653a206e6577206f776e657220697320746865207a65726f206160448201526564647265737360d01b606482015260840161048e565b6132bf816133ab565b50565b6132ca613351565b600254600160a01b900460ff161561331d5760405162461bcd60e51b815260206004820152601660248201527510db1a595b9d08185b1c9958591e4818dc99585d195960521b604482015260640161048e565b6002805460ff60a01b1916600160a01b17905560208101356003556040810135600455606081013560055560800135600655565b6000546001600160a01b03163314610feb5760405162461bcd60e51b815260206004820181905260248201527f4f776e61626c653a2063616c6c6572206973206e6f7420746865206f776e6572604482015260640161048e565b600080546001600160a01b038381166001600160a01b0319831681178455604051919092169283917f8be0079c531659141344cd1fd0a4f28419497f9722a3daafe3b4186f6b6457e09190a35050565b600081831161340a5781613157565b5090919050565b600081516028146134645760405162461bcd60e51b815260206004820152601960248201527f496e76616c69642068657820737472696e67206c656e67746800000000000000604482015260640161048e565b60408051601480825281830190925283916000919060208201818036833701905050905060005b60148110156135e1576000836134a2836002614c9c565b815181106134b2576134b2614cbb565b016020015160f81c90506000846134ca846002614c9c565b6134d5906001614b5a565b815181106134e5576134e5614cbb565b016020015160f81c9050604160ff8316108015906135075750605a8260ff1611155b1561351a57613517602083614cd1565b91505b60418160ff16101580156135325750605a8160ff1611155b1561354557613542602082614cd1565b90505b600060618260ff16101561355a57603061355d565b60575b6135679083614cf6565b60618460ff16101561357a57603061357d565b60575b6135879085614cf6565b613592906010614d19565b61359c9190614cd1565b90508060f81b8585815181106135b4576135b4614cbb565b60200101906001600160f81b031916908160001a90535050505080806135d990614d42565b91505061348b565b50601401519392505050565b8280546135f990614115565b90600052602060002090601f01602090048101928261361b5760008555613661565b82601f1061363457805160ff1916838001178555613661565b82800160010185558215613661579182015b82811115613661578251825591602001919060010190613646565b5061366d929150613796565b5090565b8280548282559060005260206000209081019282156136be579160200282015b828111156136be57825180516136ae9184916020909101906135ed565b5091602001919060010190613691565b5061366d9291506137ab565b5080546136d690614115565b6000825580601f106136e6575050565b601f0160209004906000526020600020908101906132bf9190613796565b50805460008255906000526020600020908101906132bf91906137ab565b82805461372e90614115565b90600052602060002090601f0160209004810192826137505760008555613661565b82601f106137695782800160ff19823516178555613661565b82800160010185558215613661579182015b8281111561366157823582559160200191906001019061377b565b5b8082111561366d5760008155600101613797565b8082111561366d5760006137bf82826136ca565b506001016137ab565b6001600160a01b03811681146132bf57600080fd5b600060c082840312156137ef57600080fd5b50919050565b6000806040838503121561380857600080fd5b8235613813816137c8565b915060208301356001600160401b0381111561382e57600080fd5b61383a858286016137dd565b9150509250929050565b6000806040838503121561385757600080fd5b8235613862816137c8565b946020939093013593505050565b60005b8381101561388b578181015183820152602001613873565b8381111561389a576000848401525b50505050565b600081518084526138b8816020860160208601613870565b601f01601f19169290920160200192915050565b634e487b7160e01b600052602160045260246000fd5b6003811061390057634e487b7160e01b600052602160045260246000fd5b9052565b60006020808352835160a08285015261392060c08501826138a0565b90508185015161393360408601826138e2565b506040850151601f198583038101606087015281518084529184019184840190600581901b8501860160005b8281101561398b57848783030184526139798287516138a0565b9588019593880193915060010161395f565b5060608a01519650838982030160808a01526139a781886138a0565b9650505050505050608084015160a08401528091505092915050565b80356139ce816137c8565b919050565b60008083601f8401126139e557600080fd5b5081356001600160401b038111156139fc57600080fd5b6020830191508360208260051b8501011115613a1757600080fd5b9250929050565b8035600381106139ce57600080fd5b60008083601f840112613a3f57600080fd5b5081356001600160401b03811115613a5657600080fd5b602083019150836020828501011115613a1757600080fd5b6000604082840312156137ef57600080fd5b60008060008060008060008060008060006101008c8e031215613aa257600080fd5b613aab8c6139c3565b9a5060208c013599506001600160401b038060408e01351115613acd57600080fd5b613add8e60408f01358f016139d3565b909a509850613aee60608e01613a1e565b97508060808e01351115613b0157600080fd5b613b118e60808f01358f01613a2d565b909750955060a08d0135945060c08d0135811015613b2e57600080fd5b613b3e8e60c08f01358f01613a2d565b909450925060e08d0135811015613b5457600080fd5b50613b658d60e08e01358e01613a6e565b90509295989b509295989b9093969950565b60008060008060808587031215613b8d57600080fd5b8435613b98816137c8565b935060208501356001600160401b0380821115613bb457600080fd5b613bc0888389016137dd565b94506040870135915080821115613bd657600080fd5b613be288838901613a6e565b93506060870135915080821115613bf857600080fd5b50613c0587828801613a6e565b91505092959194509250565b600061018082840312156137ef57600080fd5b600060a082840312156137ef57600080fd5b600060208284031215613c4857600080fd5b81356001600160401b03811115613c5e57600080fd5b613c6a84828501613c24565b949350505050565b600060208284031215613c8457600080fd5b5035919050565b600080600060608486031215613ca057600080fd5b8335613cab816137c8565b925060208401356001600160401b0380821115613cc757600080fd5b613cd3878388016137dd565b93506040860135915080821115613ce957600080fd5b50613cf686828701613a6e565b9150509250925092565b600080600060608486031215613d1557600080fd5b8335613d20816137c8565b92506020840135915060408401356001600160401b03811115613d4257600080fd5b613cf686828701613a6e565b60008060208385031215613d6157600080fd5b82356001600160401b03811115613d7757600080fd5b613d8385828601613a2d565b90969095509350505050565b608081526000613da260808301876138a0565b613daf60208401876138e2565b8281036040840152613dc181866138a0565b91505082606083015295945050505050565b6000606082840312156137ef57600080fd5b60008060008060008060008060c0898b031215613e0157600080fd5b613e0a896139c3565b975060208901356001600160401b0380821115613e2657600080fd5b613e328c838d01613a2d565b9099509750879150613e4660408c01613a1e565b965060608b0135915080821115613e5c57600080fd5b613e688c838d016139d3565b909650945060808b0135915080821115613e8157600080fd5b613e8d8c838d01613dd3565b935060a08b0135915080821115613ea357600080fd5b50613eb08b828c01613a6e565b9150509295985092959890939650565b80356001600160401b03811681146139ce57600080fd5b600080600080600060c08688031215613eef57600080fd5b8535945060208601356001600160401b03811115613f0c57600080fd5b613f1888828901613a2d565b9095509350613f2b905060408701613ec0565b9150613f3a8760608801613dd3565b90509295509295909350565b60008060008060c08587031215613f5c57600080fd5b8435613f67816137c8565b935060208501359250613f7c60408601613ec0565b9150613f8b8660608701613dd3565b905092959194509250565b600080600060608486031215613fab57600080fd5b8335613fb6816137c8565b925060208401359150613fcb60408501613ec0565b90509250925092565b600080600060408486031215613fe957600080fd5b8335613ff4816137c8565b925060208401356001600160401b0381111561400f57600080fd5b61401b86828701613a2d565b9497909650939450505050565b60006020828403121561403a57600080fd5b8135613157816137c8565b60008235603e1983360301811261405b57600080fd5b9190910192915050565b6000808335601e1984360301811261407c57600080fd5b8301803591506001600160401b0382111561409657600080fd5b602001915036819003821315613a1757600080fd5b6020808252602f908201527f5265636569766572206973206e6f742074686520696e74656e6465642070616360408201526e35b2ba103232b9ba34b730ba34b7b760891b606082015260800190565b60006020828403121561410c57600080fd5b61315782613ec0565b600181811c9082168061412957607f821691505b602082108114156137ef57634e487b7160e01b600052602260045260246000fd5b6000808335601e1984360301811261416157600080fd5b83016020810192503590506001600160401b0381111561418057600080fd5b803603831315613a1757600080fd5b81835281816020850137506000828201602090810191909152601f909101601f19169091010190565b6001600160401b036141c982613ec0565b16825260006141db602083018361414a565b604060208601526141f060408601828461418f565b95945050505050565b8354815260018401546020820152600284015460408201526003840154606082015260e06080820152600061423160e08301856141b8565b8281038060a0850152601d82527f6368616e6e656c2f706174682f746f2f62652f61646465642f6865726500000060208301526040810160c08501525061427b60408201856138a0565b9695505050505050565b805180151581146139ce57600080fd5b6000602082840312156142a757600080fd5b61315782614285565b6020808252601b908201527f4661696c20746f2070726f7665206368616e6e656c2073746174650000000000604082015260600190565b84815283602082015260606040820152600061427b60608301848661418f565b634e487b7160e01b600052604160045260246000fd5b604051601f8201601f191681016001600160401b038111828210171561434557614345614307565b604052919050565b60006001600160401b0382111561436657614366614307565b50601f01601f191660200190565b60006001600160401b038084111561438e5761438e614307565b8360051b602061439f81830161431d565b8681529185019181810190368411156143b757600080fd5b865b8481101561442c578035868111156143d15760008081fd5b880136601f8201126143e35760008081fd5b80356143f66143f18261434d565b61431d565b818152368783850101111561440b5760008081fd5b818784018883013760009181018701919091528452509183019183016143b9565b50979650505050505050565b6020808252602a908201527f5265636569766572206973206e6f7420746865206f726967696e616c2070616360408201526935b2ba1039b2b73232b960b11b606082015260800190565b8254815260018301546020820152600283015460408201526003830154606082015260e0608082015260006144ba60e08301846141b8565b8281038060a0850152600f82526e0c2c6d65ee0c2c6d6cae85ee0c2e8d608b1b60208301526040810160c085015250602a60408201527f65787065637465642061636b20726563656970742068617368206f6e20506f6c6060820152693cb6b2b91031b430b4b760b11b608082015260a081019150509392505050565b6020808252601b908201527f5061636b657420636f6d6d69746d656e74206e6f7420666f756e640000000000604082015260600190565b60008235603e1983360301811261458457600080fd5b90910192915050565b6000614599828361414a565b604085526145ab60408601828461418f565b915050602083013560208501528091505092915050565b6020815260006145d2838461456e565b60c060208401526145e660e084018261458d565b90506145f5602085018561456e565b601f198085840301604086015261460c838361458d565b925061461a60408701613ec0565b91506001600160401b038083166060870152614639606088018861414a565b93508287860301608088015261465085858361418f565b9450508061466060808901613ec0565b1660a08701528061467360a08901613ec0565b1660c08701525050508091505092915050565b82548152600183015460208201526002830154604082015260038301546060820152610200810182356080830152602083013560a083015260408084013560c0840152606084013560e084015280608085016101008501376000610140848101828152909160c0870191815b6002811015614712578584833790850182815292850192906001016146f2565b5050838388016101c08801378452509195945050505050565b83815260606020820152600061474460608301856138a0565b9050826040830152949350505050565b8254815260018301546020820152600283015460408201526003830154606082015260e06080820152600061478c60e08301846141b8565b8281038060a085015260168252750e0c2c6d6cae85ec6dedadad2e8dacadce85ee0c2e8d60531b60208301526040810160c085015250603860408201527f6578706563746564207669727475616c207061636b657420636f6d6d69746d6560608201527f6e742068617368206f6e20506f6c796d657220636861696e0000000000000000608082015260a081019150509392505050565b634e487b7160e01b600052601160045260246000fd5b60006001600160401b0380831681851680830382111561485b5761485b614823565b01949350505050565b60006148726143f18461434d565b905082815283838301111561488657600080fd5b613157836020830184613870565b6000602082840312156148a657600080fd5b81516001600160401b03808211156148bd57600080fd5b90830190604082860312156148d157600080fd5b6040516040810181811083821117156148ec576148ec614307565b6040526148f883614285565b815260208301518281111561490c57600080fd5b80840193505085601f84011261492157600080fd5b61493086845160208601614864565b602082015295945050505050565b6001600160401b03831681526040602082015281511515604082015260006020830151604060608401526141f060808401826138a0565b8254815260018301546020820152600283015460408201526003830154606082015260c0608082015260006149ad60c08301846141b8565b82810360a084015260138152720e0c2c6d6cae85ee4cac6cad2e0e85ee0c2e8d606b1b6020820152604081019150509392505050565b81835260006020808501808196508560051b810191508460005b87811015614a33578284038952614a14828861414a565b614a1f86828461418f565b9a87019a95505050908401906001016149fd565b5091979650505050505050565b60c081526000614a5460c083018c8e61418f565b614a61602084018c6138e2565b8281036040840152614a74818a8c6149e3565b90508281036060840152614a8981888a61418f565b905085608084015282810360a0840152614aa481858761418f565b9d9c50505050505050505050505050565b600060208284031215614ac757600080fd5b81516001600160401b03811115614add57600080fd5b8201601f81018413614aee57600080fd5b613c6a84825160208401614864565b60a081526000614b1060a083018a6138a0565b614b1d602084018a6138e2565b8281036040840152614b3081888a6149e3565b90508281036060840152614b4581868861418f565b91505082608083015298975050505050505050565b60008219821115614b6d57614b6d614823565b500190565b60c081526000614b8660c08301878961418f565b90506001600160401b0380861660208401528085166040840152508235606083015260208301356080830152604083013560a08301529695505050505050565b60008085851115614bd657600080fd5b83861115614be357600080fd5b5050820193919092039150565b8183823760009101908152919050565b600080835481600182811c915080831680614c1c57607f831692505b6020808410821415614c3c57634e487b7160e01b86526022600452602486fd5b818015614c505760018114614c6157614c8e565b60ff19861689528489019650614c8e565b60008a81526020902060005b86811015614c865781548b820152908501908301614c6d565b505084890196505b509498975050505050505050565b6000816000190483118215151615614cb657614cb6614823565b500290565b634e487b7160e01b600052603260045260246000fd5b600060ff821660ff84168060ff03821115614cee57614cee614823565b019392505050565b600060ff821660ff841680821015614d1057614d10614823565b90039392505050565b600060ff821660ff84168160ff0481118215151615614d3a57614d3a614823565b029392505050565b6000600019821415614d5657614d56614823565b506001019056fe6578706563746564206368616e6e656c20627974657320636f6e73747275637465642066726f6d20706172616d732e204368616e6e656c2e5374617465203d207b41636b5f50656e64696e672c20436f6e6669726d5f50656e64696e677d6578706563746564206368616e6e656c20627974657320636f6e73747275637465642066726f6d20706172616d732e204368616e6e656c2e5374617465203d207b436c6f736564285f50656e64696e673f297d6578706563746564206368616e6e656c20627974657320636f6e73747275637465642066726f6d20706172616d732e204368616e6e656c2e5374617465203d207b5472795f50656e64696e677da264697066735822122092f501740c3f311f0a3849649cfc3566b23d5075fee957261b20442efd027ca764736f6c63430008090033",
  "linkReferences": {},
  "deployedLinkReferences": {}
}