{
  "_format": "hh-sol-artifact-1",
  "contractName": "GasAudit",
  "sourceName": "contracts/vibc-core/GasAudit.sol",
  "abi": [
    {
      "anonymous": false,
      "inputs": [
        {
          "indexed": true,
          "internalType": "address",
          "name": "portAddress",
          "type": "address"
        },
        {
          "indexed": true,
          "internalType": "bytes32",
          "name": "channelId",
          "type": "bytes32"
        },
        {
          "indexed": false,
          "internalType": "string",
          "name": "counterpartyPortId",
          "type": "string"
        },
        {
          "indexed": false,
          "internalType": "bytes32",
          "name": "coutnerpartyChannelId",
          "type": "bytes32"
        }
      ],
      "name": "OpenIbcChannel1",
      "type": "event"
    },
    {
      "anonymous": false,
      "inputs": [
        {
          "indexed": true,
          "internalType": "address",
          "name": "portAddress",
          "type": "address"
        },
        {
          "indexed": false,
          "internalType": "string",
          "name": "channelId",
          "type": "string"
        },
        {
          "indexed": false,
          "internalType": "string",
          "name": "counterpartyPortId",
          "type": "string"
        },
        {
          "indexed": false,
          "internalType": "string",
          "name": "coutnerpartyChannelId",
          "type": "string"
        }
      ],
      "name": "OpenIbcChannel2",
      "type": "event"
    },
    {
      "inputs": [
        {
          "internalType": "address",
          "name": "portAddress",
          "type": "address"
        },
        {
          "internalType": "bytes32",
          "name": "channelId",
          "type": "bytes32"
        },
        {
          "internalType": "string",
          "name": "counterpartyPortId",
          "type": "string"
        },
        {
          "internalType": "bytes32",
          "name": "coutnerpartyChannelId",
          "type": "bytes32"
        }
      ],
      "name": "callWithBytes32",
      "outputs": [],
      "stateMutability": "nonpayable",
      "type": "function"
    },
    {
      "inputs": [
        {
          "internalType": "address",
          "name": "portAddress",
          "type": "address"
        },
        {
          "internalType": "string",
          "name": "channelId",
          "type": "string"
        },
        {
          "internalType": "string",
          "name": "counterpartyPortId",
          "type": "string"
        },
        {
          "internalType": "string",
          "name": "coutnerpartyChannelId",
          "type": "string"
        }
      ],
      "name": "callWithString",
      "outputs": [],
      "stateMutability": "nonpayable",
      "type": "function"
    }
  ],
  "bytecode": "0x608060405234801561001057600080fd5b50610555806100206000396000f3fe608060405234801561001057600080fd5b50600436106100365760003560e01c8063485b39b51461003b578063fca6eb2914610057575b600080fd5b6100556004803603810190610050919061025e565b610073565b005b610071600480360381019061006c919061035d565b61010c565b005b6001808787604051610086929190610424565b908152602001604051809103902060006101000a81548160ff0219169083151502179055508673ffffffffffffffffffffffffffffffffffffffff167f57ddcf2e4fd363065bccadcdb56928237fb413c06e42c021b0dca4a3b8e580518787878787876040516100fb9695949392919061048c565b60405180910390a250505050505050565b600160008086815260200190815260200160002060006101000a81548160ff021916908315150217905550838573ffffffffffffffffffffffffffffffffffffffff167f9bfa7e679cc290246349f80646c1c53a881353ed5b17ad82b5eb6ba283718155858585604051610182939291906104ed565b60405180910390a35050505050565b600080fd5b600080fd5b600073ffffffffffffffffffffffffffffffffffffffff82169050919050565b60006101c68261019b565b9050919050565b6101d6816101bb565b81146101e157600080fd5b50565b6000813590506101f3816101cd565b92915050565b600080fd5b600080fd5b600080fd5b60008083601f84011261021e5761021d6101f9565b5b8235905067ffffffffffffffff81111561023b5761023a6101fe565b5b60208301915083600182028301111561025757610256610203565b5b9250929050565b60008060008060008060006080888a03121561027d5761027c610191565b5b600061028b8a828b016101e4565b975050602088013567ffffffffffffffff8111156102ac576102ab610196565b5b6102b88a828b01610208565b9650965050604088013567ffffffffffffffff8111156102db576102da610196565b5b6102e78a828b01610208565b9450945050606088013567ffffffffffffffff81111561030a57610309610196565b5b6103168a828b01610208565b925092505092959891949750929550565b6000819050919050565b61033a81610327565b811461034557600080fd5b50565b60008135905061035781610331565b92915050565b60008060008060006080868803121561037957610378610191565b5b6000610387888289016101e4565b955050602061039888828901610348565b945050604086013567ffffffffffffffff8111156103b9576103b8610196565b5b6103c588828901610208565b935093505060606103d888828901610348565b9150509295509295909350565b600081905092915050565b82818337600083830152505050565b600061040b83856103e5565b93506104188385846103f0565b82840190509392505050565b60006104318284866103ff565b91508190509392505050565b600082825260208201905092915050565b6000601f19601f8301169050919050565b600061046b838561043d565b93506104788385846103f0565b6104818361044e565b840190509392505050565b600060608201905081810360008301526104a781888a61045f565b905081810360208301526104bc81868861045f565b905081810360408301526104d181848661045f565b9050979650505050505050565b6104e781610327565b82525050565b6000604082019050818103600083015261050881858761045f565b905061051760208301846104de565b94935050505056fea2646970667358221220b82842e1767716ec3390cb1ce9b06c078a73b767d6947b26c702bf30a0c17ae364736f6c63430008130033",
  "linkReferences": {},
  "deployedLinkReferences": {}
}