{
  "_format": "hh-sol-artifact-1",
  "contractName": "DummyVerifier",
  "sourceName": "contracts/DummyVerifier.sol",
  "abi": [
    {
      "inputs": [
        {
          "components": [
            {
              "internalType": "uint256",
              "name": "app_hash",
              "type": "uint256"
            },
            {
              "internalType": "uint256",
              "name": "valset_hash",
              "type": "uint256"
            },
            {
              "internalType": "uint256",
              "name": "time",
              "type": "uint256"
            },
            {
              "internalType": "uint256",
              "name": "height",
              "type": "uint256"
            }
          ],
          "internalType": "struct ConsensusState",
          "name": "consensusState",
          "type": "tuple"
        },
        {
          "components": [
            {
              "internalType": "uint64",
              "name": "proofHeight",
              "type": "uint64"
            },
            {
              "internalType": "bytes",
              "name": "proof",
              "type": "bytes"
            }
          ],
          "internalType": "struct Proof",
          "name": "proof",
          "type": "tuple"
        },
        {
          "internalType": "bytes",
          "name": "key",
          "type": "bytes"
        },
        {
          "internalType": "bytes",
          "name": "expectedValue",
          "type": "bytes"
        }
      ],
      "name": "verifyMembership",
      "outputs": [
        {
          "internalType": "bool",
          "name": "",
          "type": "bool"
        }
      ],
      "stateMutability": "pure",
      "type": "function"
    },
    {
      "inputs": [
        {
          "components": [
            {
              "internalType": "uint256",
              "name": "app_hash",
              "type": "uint256"
            },
            {
              "internalType": "uint256",
              "name": "valset_hash",
              "type": "uint256"
            },
            {
              "internalType": "uint256",
              "name": "time",
              "type": "uint256"
            },
            {
              "internalType": "uint256",
              "name": "height",
              "type": "uint256"
            }
          ],
          "internalType": "struct ConsensusState",
          "name": "consensusState",
          "type": "tuple"
        },
        {
          "components": [
            {
              "internalType": "uint64",
              "name": "proofHeight",
              "type": "uint64"
            },
            {
              "internalType": "bytes",
              "name": "proof",
              "type": "bytes"
            }
          ],
          "internalType": "struct Proof",
          "name": "proof",
          "type": "tuple"
        },
        {
          "internalType": "bytes",
          "name": "key",
          "type": "bytes"
        }
      ],
      "name": "verifyNonMembership",
      "outputs": [
        {
          "internalType": "bool",
          "name": "",
          "type": "bool"
        }
      ],
      "stateMutability": "pure",
      "type": "function"
    },
    {
      "inputs": [
        {
          "components": [
            {
              "internalType": "uint256",
              "name": "app_hash",
              "type": "uint256"
            },
            {
              "internalType": "uint256",
              "name": "valset_hash",
              "type": "uint256"
            },
            {
              "internalType": "uint256",
              "name": "time",
              "type": "uint256"
            },
            {
              "internalType": "uint256",
              "name": "height",
              "type": "uint256"
            }
          ],
          "internalType": "struct ConsensusState",
          "name": "trustedState",
          "type": "tuple"
        },
        {
          "components": [
            {
              "components": [
                {
                  "internalType": "uint256",
                  "name": "app_hash",
                  "type": "uint256"
                },
                {
                  "internalType": "uint256",
                  "name": "valset_hash",
                  "type": "uint256"
                },
                {
                  "internalType": "uint256",
                  "name": "time",
                  "type": "uint256"
                },
                {
                  "internalType": "uint256",
                  "name": "height",
                  "type": "uint256"
                }
              ],
              "internalType": "struct ConsensusState",
              "name": "consensusState",
              "type": "tuple"
            },
            {
              "components": [
                {
                  "internalType": "uint256[2]",
                  "name": "a",
                  "type": "uint256[2]"
                },
                {
                  "internalType": "uint256[2][2]",
                  "name": "b",
                  "type": "uint256[2][2]"
                },
                {
                  "internalType": "uint256[2]",
                  "name": "c",
                  "type": "uint256[2]"
                }
              ],
              "internalType": "struct ZkProof",
              "name": "zkProof",
              "type": "tuple"
            }
          ],
          "internalType": "struct UpdateClientMsg",
          "name": "updateClientMsg",
          "type": "tuple"
        }
      ],
      "name": "verifyUpdateClientMsg",
      "outputs": [
        {
          "internalType": "bool",
          "name": "",
          "type": "bool"
        }
      ],
      "stateMutability": "pure",
      "type": "function"
    }
  ],
  "bytecode": "0x608060405234801561001057600080fd5b506107e6806100206000396000f3fe608060405234801561001057600080fd5b50600436106100415760003560e01c8063122d651b146100465780633b427df11461006d578063c9b73c6c14610080575b600080fd5b6100596100543660046103c2565b610093565b604051901515815260200160405180910390f35b61005961007b36600461043a565b6100f9565b61005961008e36600461047c565b610183565b6000816100dd5760405162461bcd60e51b81526020600482015260136024820152724b65792063616e6e6f7420626520656d70747960681b60448201526064015b60405180910390fd5b60006100ec6020860186610522565b9050119050949350505050565b60008061010b36849003840184610631565b905061012461011f368590038501856106a4565b610233565b6101705760405162461bcd60e51b815260206004820152601d60248201527f496e76616c69642075706461746520636c69656e74206d65737361676500000060448201526064016100d4565b6060908101519301359092101592915050565b6000836101c85760405162461bcd60e51b81526020600482015260136024820152724b65792063616e6e6f7420626520656d70747960681b60448201526064016100d4565b816102155760405162461bcd60e51b815260206004820152601e60248201527f45787065637465642076616c75652063616e6e6f7420626520656d707479000060448201526064016100d4565b60006102246020880188610522565b90501190509695505050505050565b80515160009015806102485750815160200151155b806102565750815160400151155b806102645750815160600151155b1561027157506000919050565b60005b600281101561034657602083015151816002811061029457610294610771565b60200201516102a65750600092915050565b82602001516040015181600281106102c0576102c0610771565b60200201516102d25750600092915050565b60005b60028110156103335783602001516020015182600281106102f8576102f8610771565b6020020151816002811061030e5761030e610771565b6020020151610321575060009392505050565b8061032b81610787565b9150506102d5565b508061033e81610787565b915050610274565b50600192915050565b60006080828403121561036157600080fd5b50919050565b60006040828403121561036157600080fd5b60008083601f84011261038b57600080fd5b50813567ffffffffffffffff8111156103a357600080fd5b6020830191508360208285010111156103bb57600080fd5b9250929050565b60008060008060c085870312156103d857600080fd5b6103e2868661034f565b9350608085013567ffffffffffffffff808211156103ff57600080fd5b61040b88838901610367565b945060a087013591508082111561042157600080fd5b5061042e87828801610379565b95989497509550505050565b60008082840361020081121561044f57600080fd5b610459858561034f565b9250610180607f198201121561046e57600080fd5b506080830190509250929050565b60008060008060008060e0878903121561049557600080fd5b61049f888861034f565b9550608087013567ffffffffffffffff808211156104bc57600080fd5b6104c88a838b01610367565b965060a08901359150808211156104de57600080fd5b6104ea8a838b01610379565b909650945060c089013591508082111561050357600080fd5b5061051089828a01610379565b979a9699509497509295939492505050565b6000808335601e1984360301811261053957600080fd5b83018035915067ffffffffffffffff82111561055457600080fd5b6020019150368190038213156103bb57600080fd5b634e487b7160e01b600052604160045260246000fd5b6040805190810167ffffffffffffffff811182821017156105a2576105a2610569565b60405290565b6040516060810167ffffffffffffffff811182821017156105a2576105a2610569565b6000608082840312156105dd57600080fd5b6040516080810181811067ffffffffffffffff8211171561060057610600610569565b8060405250809150823581526020830135602082015260408301356040820152606083013560608201525092915050565b60006080828403121561064357600080fd5b61064d83836105cb565b9392505050565b600082601f83011261066557600080fd5b61066d61057f565b80604084018581111561067f57600080fd5b845b81811015610699578035845260209384019301610681565b509095945050505050565b60008183036101808112156106b857600080fd5b6106c061057f565b6106ca85856105cb565b8152610100607f19830112156106df57600080fd5b6106e76105a8565b91506106f68560808601610654565b82528460df85011261070757600080fd5b61070f61057f565b8061014086018781111561072257600080fd5b60c087015b81811015610749576107398982610654565b8452602090930192604001610727565b5081602086015261075a8882610654565b604086015250505060208101919091529392505050565b634e487b7160e01b600052603260045260246000fd5b60006000198214156107a957634e487b7160e01b600052601160045260246000fd5b506001019056fea2646970667358221220a736aa615d3901f07d6df3a9e77f5de0982a18a36b97be485833995d40da42c164736f6c63430008090033",
  "linkReferences": {},
  "deployedLinkReferences": {}
}