{
  "_format": "hh-sol-artifact-1",
  "contractName": "IbcLendingBorrowing",
  "sourceName": "contracts/IbcLendingBorrowing.sol",
  "abi": [
    {
      "inputs": [
        {
          "internalType": "address",
          "name": "_plym",
          "type": "address"
        },
        {
          "internalType": "address",
          "name": "_oibc",
          "type": "address"
        },
        {
          "internalType": "address",
          "name": "_neb",
          "type": "address"
        }
      ],
      "stateMutability": "nonpayable",
      "type": "constructor"
    },
    {
      "anonymous": false,
      "inputs": [
        {
          "indexed": true,
          "internalType": "address",
          "name": "previousOwner",
          "type": "address"
        },
        {
          "indexed": true,
          "internalType": "address",
          "name": "newOwner",
          "type": "address"
        }
      ],
      "name": "OwnershipTransferred",
      "type": "event"
    },
    {
      "anonymous": false,
      "inputs": [
        {
          "indexed": true,
          "internalType": "address",
          "name": "_from",
          "type": "address"
        },
        {
          "indexed": true,
          "internalType": "address",
          "name": "_to",
          "type": "address"
        },
        {
          "indexed": false,
          "internalType": "uint256",
          "name": "_value",
          "type": "uint256"
        }
      ],
      "name": "Transfer",
      "type": "event"
    },
    {
      "inputs": [
        {
          "internalType": "uint256",
          "name": "",
          "type": "uint256"
        }
      ],
      "name": "ackPackets",
      "outputs": [
        {
          "components": [
            {
              "internalType": "string",
              "name": "portId",
              "type": "string"
            },
            {
              "internalType": "bytes32",
              "name": "channelId",
              "type": "bytes32"
            }
          ],
          "internalType": "struct IbcEndpoint",
          "name": "src",
          "type": "tuple"
        },
        {
          "components": [
            {
              "internalType": "string",
              "name": "portId",
              "type": "string"
            },
            {
              "internalType": "bytes32",
              "name": "channelId",
              "type": "bytes32"
            }
          ],
          "internalType": "struct IbcEndpoint",
          "name": "dest",
          "type": "tuple"
        },
        {
          "internalType": "uint64",
          "name": "sequence",
          "type": "uint64"
        },
        {
          "internalType": "bytes",
          "name": "data",
          "type": "bytes"
        },
        {
          "components": [
            {
              "internalType": "uint64",
              "name": "blockHeight",
              "type": "uint64"
            },
            {
              "internalType": "uint64",
              "name": "timestamp",
              "type": "uint64"
            }
          ],
          "internalType": "struct IbcTimeout",
          "name": "timeout",
          "type": "tuple"
        }
      ],
      "stateMutability": "view",
      "type": "function"
    },
    {
      "inputs": [
        {
          "internalType": "address",
          "name": "account",
          "type": "address"
        }
      ],
      "name": "balanceOf",
      "outputs": [
        {
          "internalType": "uint256",
          "name": "",
          "type": "uint256"
        }
      ],
      "stateMutability": "view",
      "type": "function"
    },
    {
      "inputs": [
        {
          "internalType": "address",
          "name": "_token",
          "type": "address"
        },
        {
          "internalType": "address",
          "name": "recipient",
          "type": "address"
        },
        {
          "internalType": "uint256",
          "name": "_amountLB",
          "type": "uint256"
        }
      ],
      "name": "borrow",
      "outputs": [],
      "stateMutability": "nonpayable",
      "type": "function"
    },
    {
      "inputs": [
        {
          "internalType": "uint256",
          "name": "",
          "type": "uint256"
        }
      ],
      "name": "connectedChannels",
      "outputs": [
        {
          "internalType": "bytes32",
          "name": "",
          "type": "bytes32"
        }
      ],
      "stateMutability": "view",
      "type": "function"
    },
    {
      "inputs": [
        {
          "internalType": "uint8",
          "name": "",
          "type": "uint8"
        }
      ],
      "name": "contractAddresses",
      "outputs": [
        {
          "internalType": "address",
          "name": "",
          "type": "address"
        }
      ],
      "stateMutability": "view",
      "type": "function"
    },
    {
      "inputs": [],
      "name": "name",
      "outputs": [
        {
          "internalType": "string",
          "name": "",
          "type": "string"
        }
      ],
      "stateMutability": "view",
      "type": "function"
    },
    {
      "inputs": [
        {
          "components": [
            {
              "components": [
                {
                  "internalType": "string",
                  "name": "portId",
                  "type": "string"
                },
                {
                  "internalType": "bytes32",
                  "name": "channelId",
                  "type": "bytes32"
                }
              ],
              "internalType": "struct IbcEndpoint",
              "name": "src",
              "type": "tuple"
            },
            {
              "components": [
                {
                  "internalType": "string",
                  "name": "portId",
                  "type": "string"
                },
                {
                  "internalType": "bytes32",
                  "name": "channelId",
                  "type": "bytes32"
                }
              ],
              "internalType": "struct IbcEndpoint",
              "name": "dest",
              "type": "tuple"
            },
            {
              "internalType": "uint64",
              "name": "sequence",
              "type": "uint64"
            },
            {
              "internalType": "bytes",
              "name": "data",
              "type": "bytes"
            },
            {
              "components": [
                {
                  "internalType": "uint64",
                  "name": "blockHeight",
                  "type": "uint64"
                },
                {
                  "internalType": "uint64",
                  "name": "timestamp",
                  "type": "uint64"
                }
              ],
              "internalType": "struct IbcTimeout",
              "name": "timeout",
              "type": "tuple"
            }
          ],
          "internalType": "struct IbcPacket",
          "name": "packet",
          "type": "tuple"
        }
      ],
      "name": "onAcknowledgementPacket",
      "outputs": [],
      "stateMutability": "nonpayable",
      "type": "function"
    },
    {
      "inputs": [
        {
          "internalType": "bytes32",
          "name": "channelId",
          "type": "bytes32"
        },
        {
          "internalType": "string",
          "name": "counterpartyPortId",
          "type": "string"
        },
        {
          "internalType": "bytes32",
          "name": "counterpartyChannelId",
          "type": "bytes32"
        }
      ],
      "name": "onCloseIbcChannel",
      "outputs": [],
      "stateMutability": "nonpayable",
      "type": "function"
    },
    {
      "inputs": [
        {
          "internalType": "bytes32",
          "name": "channelId",
          "type": "bytes32"
        },
        {
          "internalType": "bytes32",
          "name": "counterpartyChannelId",
          "type": "bytes32"
        },
        {
          "internalType": "string",
          "name": "counterpartyVersion",
          "type": "string"
        }
      ],
      "name": "onConnectIbcChannel",
      "outputs": [],
      "stateMutability": "nonpayable",
      "type": "function"
    },
    {
      "inputs": [
        {
          "internalType": "string",
          "name": "version",
          "type": "string"
        },
        {
          "internalType": "enum ChannelOrder",
          "name": "ordering",
          "type": "uint8"
        },
        {
          "internalType": "string[]",
          "name": "connectionHops",
          "type": "string[]"
        },
        {
          "internalType": "string",
          "name": "counterpartyPortId",
          "type": "string"
        },
        {
          "internalType": "bytes32",
          "name": "counterpartyChannelId",
          "type": "bytes32"
        },
        {
          "internalType": "string",
          "name": "counterpartyVersion",
          "type": "string"
        }
      ],
      "name": "onOpenIbcChannel",
      "outputs": [
        {
          "internalType": "string",
          "name": "selectedVersion",
          "type": "string"
        }
      ],
      "stateMutability": "nonpayable",
      "type": "function"
    },
    {
      "inputs": [
        {
          "components": [
            {
              "components": [
                {
                  "internalType": "string",
                  "name": "portId",
                  "type": "string"
                },
                {
                  "internalType": "bytes32",
                  "name": "channelId",
                  "type": "bytes32"
                }
              ],
              "internalType": "struct IbcEndpoint",
              "name": "src",
              "type": "tuple"
            },
            {
              "components": [
                {
                  "internalType": "string",
                  "name": "portId",
                  "type": "string"
                },
                {
                  "internalType": "bytes32",
                  "name": "channelId",
                  "type": "bytes32"
                }
              ],
              "internalType": "struct IbcEndpoint",
              "name": "dest",
              "type": "tuple"
            },
            {
              "internalType": "uint64",
              "name": "sequence",
              "type": "uint64"
            },
            {
              "internalType": "bytes",
              "name": "data",
              "type": "bytes"
            },
            {
              "components": [
                {
                  "internalType": "uint64",
                  "name": "blockHeight",
                  "type": "uint64"
                },
                {
                  "internalType": "uint64",
                  "name": "timestamp",
                  "type": "uint64"
                }
              ],
              "internalType": "struct IbcTimeout",
              "name": "timeout",
              "type": "tuple"
            }
          ],
          "internalType": "struct IbcPacket",
          "name": "packet",
          "type": "tuple"
        }
      ],
      "name": "onRecvPacket",
      "outputs": [
        {
          "components": [
            {
              "internalType": "bool",
              "name": "success",
              "type": "bool"
            },
            {
              "internalType": "bytes",
              "name": "data",
              "type": "bytes"
            }
          ],
          "internalType": "struct AckPacket",
          "name": "ackPacket",
          "type": "tuple"
        }
      ],
      "stateMutability": "nonpayable",
      "type": "function"
    },
    {
      "inputs": [
        {
          "components": [
            {
              "components": [
                {
                  "internalType": "string",
                  "name": "portId",
                  "type": "string"
                },
                {
                  "internalType": "bytes32",
                  "name": "channelId",
                  "type": "bytes32"
                }
              ],
              "internalType": "struct IbcEndpoint",
              "name": "src",
              "type": "tuple"
            },
            {
              "components": [
                {
                  "internalType": "string",
                  "name": "portId",
                  "type": "string"
                },
                {
                  "internalType": "bytes32",
                  "name": "channelId",
                  "type": "bytes32"
                }
              ],
              "internalType": "struct IbcEndpoint",
              "name": "dest",
              "type": "tuple"
            },
            {
              "internalType": "uint64",
              "name": "sequence",
              "type": "uint64"
            },
            {
              "internalType": "bytes",
              "name": "data",
              "type": "bytes"
            },
            {
              "components": [
                {
                  "internalType": "uint64",
                  "name": "blockHeight",
                  "type": "uint64"
                },
                {
                  "internalType": "uint64",
                  "name": "timestamp",
                  "type": "uint64"
                }
              ],
              "internalType": "struct IbcTimeout",
              "name": "timeout",
              "type": "tuple"
            }
          ],
          "internalType": "struct IbcPacket",
          "name": "packet",
          "type": "tuple"
        }
      ],
      "name": "onTimeoutPacket",
      "outputs": [],
      "stateMutability": "nonpayable",
      "type": "function"
    },
    {
      "inputs": [],
      "name": "owner",
      "outputs": [
        {
          "internalType": "address",
          "name": "",
          "type": "address"
        }
      ],
      "stateMutability": "view",
      "type": "function"
    },
    {
      "inputs": [
        {
          "internalType": "uint256",
          "name": "",
          "type": "uint256"
        }
      ],
      "name": "recvedPackets",
      "outputs": [
        {
          "components": [
            {
              "internalType": "string",
              "name": "portId",
              "type": "string"
            },
            {
              "internalType": "bytes32",
              "name": "channelId",
              "type": "bytes32"
            }
          ],
          "internalType": "struct IbcEndpoint",
          "name": "src",
          "type": "tuple"
        },
        {
          "components": [
            {
              "internalType": "string",
              "name": "portId",
              "type": "string"
            },
            {
              "internalType": "bytes32",
              "name": "channelId",
              "type": "bytes32"
            }
          ],
          "internalType": "struct IbcEndpoint",
          "name": "dest",
          "type": "tuple"
        },
        {
          "internalType": "uint64",
          "name": "sequence",
          "type": "uint64"
        },
        {
          "internalType": "bytes",
          "name": "data",
          "type": "bytes"
        },
        {
          "components": [
            {
              "internalType": "uint64",
              "name": "blockHeight",
              "type": "uint64"
            },
            {
              "internalType": "uint64",
              "name": "timestamp",
              "type": "uint64"
            }
          ],
          "internalType": "struct IbcTimeout",
          "name": "timeout",
          "type": "tuple"
        }
      ],
      "stateMutability": "view",
      "type": "function"
    },
    {
      "inputs": [],
      "name": "renounceOwnership",
      "outputs": [],
      "stateMutability": "nonpayable",
      "type": "function"
    },
    {
      "inputs": [
        {
          "internalType": "contract IbcDispatcher",
          "name": "dispatcher",
          "type": "address"
        },
        {
          "internalType": "string",
          "name": "message",
          "type": "string"
        },
        {
          "internalType": "bytes32",
          "name": "channelId",
          "type": "bytes32"
        },
        {
          "internalType": "uint64",
          "name": "timeoutTimestamp",
          "type": "uint64"
        },
        {
          "components": [
            {
              "internalType": "uint256",
              "name": "recvFee",
              "type": "uint256"
            },
            {
              "internalType": "uint256",
              "name": "ackFee",
              "type": "uint256"
            },
            {
              "internalType": "uint256",
              "name": "timeoutFee",
              "type": "uint256"
            }
          ],
          "internalType": "struct PacketFee",
          "name": "fee",
          "type": "tuple"
        }
      ],
      "name": "sendMessage",
      "outputs": [],
      "stateMutability": "payable",
      "type": "function"
    },
    {
      "inputs": [],
      "name": "supplyCollateral",
      "outputs": [],
      "stateMutability": "payable",
      "type": "function"
    },
    {
      "inputs": [
        {
          "internalType": "address",
          "name": "_token",
          "type": "address"
        },
        {
          "internalType": "uint256",
          "name": "_amount",
          "type": "uint256"
        }
      ],
      "name": "supplyFunds",
      "outputs": [],
      "stateMutability": "nonpayable",
      "type": "function"
    },
    {
      "inputs": [],
      "name": "symbol",
      "outputs": [
        {
          "internalType": "string",
          "name": "",
          "type": "string"
        }
      ],
      "stateMutability": "view",
      "type": "function"
    },
    {
      "inputs": [
        {
          "internalType": "uint256",
          "name": "",
          "type": "uint256"
        }
      ],
      "name": "timeoutPackets",
      "outputs": [
        {
          "components": [
            {
              "internalType": "string",
              "name": "portId",
              "type": "string"
            },
            {
              "internalType": "bytes32",
              "name": "channelId",
              "type": "bytes32"
            }
          ],
          "internalType": "struct IbcEndpoint",
          "name": "src",
          "type": "tuple"
        },
        {
          "components": [
            {
              "internalType": "string",
              "name": "portId",
              "type": "string"
            },
            {
              "internalType": "bytes32",
              "name": "channelId",
              "type": "bytes32"
            }
          ],
          "internalType": "struct IbcEndpoint",
          "name": "dest",
          "type": "tuple"
        },
        {
          "internalType": "uint64",
          "name": "sequence",
          "type": "uint64"
        },
        {
          "internalType": "bytes",
          "name": "data",
          "type": "bytes"
        },
        {
          "components": [
            {
              "internalType": "uint64",
              "name": "blockHeight",
              "type": "uint64"
            },
            {
              "internalType": "uint64",
              "name": "timestamp",
              "type": "uint64"
            }
          ],
          "internalType": "struct IbcTimeout",
          "name": "timeout",
          "type": "tuple"
        }
      ],
      "stateMutability": "view",
      "type": "function"
    },
    {
      "inputs": [
        {
          "internalType": "address",
          "name": "",
          "type": "address"
        }
      ],
      "name": "tokenPrices",
      "outputs": [
        {
          "internalType": "uint256",
          "name": "",
          "type": "uint256"
        }
      ],
      "stateMutability": "view",
      "type": "function"
    },
    {
      "inputs": [],
      "name": "totalSupply",
      "outputs": [
        {
          "internalType": "uint256",
          "name": "",
          "type": "uint256"
        }
      ],
      "stateMutability": "view",
      "type": "function"
    },
    {
      "inputs": [
        {
          "internalType": "address",
          "name": "to",
          "type": "address"
        },
        {
          "internalType": "uint256",
          "name": "amount",
          "type": "uint256"
        }
      ],
      "name": "transfer",
      "outputs": [],
      "stateMutability": "nonpayable",
      "type": "function"
    },
    {
      "inputs": [
        {
          "internalType": "address",
          "name": "from",
          "type": "address"
        },
        {
          "internalType": "address",
          "name": "to",
          "type": "address"
        },
        {
          "internalType": "uint256",
          "name": "amount",
          "type": "uint256"
        }
      ],
      "name": "transferFrom",
      "outputs": [],
      "stateMutability": "nonpayable",
      "type": "function"
    },
    {
      "inputs": [
        {
          "internalType": "address",
          "name": "newOwner",
          "type": "address"
        }
      ],
      "name": "transferOwnership",
      "outputs": [],
      "stateMutability": "nonpayable",
      "type": "function"
    },
    {
      "inputs": [
        {
          "internalType": "bytes32",
          "name": "channelId",
          "type": "bytes32"
        },
        {
          "internalType": "contract IbcDispatcher",
          "name": "dispatcher",
          "type": "address"
        }
      ],
      "name": "triggerChannelClose",
      "outputs": [],
      "stateMutability": "nonpayable",
      "type": "function"
    }
  ],
  "bytecode": "0x60806040526040518060400160405280601681526020017f4c656e64696e67426f72726f77696e6720546f6b656e00000000000000000000815250600190816200004a9190620008c1565b506040518060400160405280600481526020017f4c42544b0000000000000000000000000000000000000000000000000000000081525060029081620000919190620008c1565b50670de0b6b3a764000060035566038d7ea4c68000600455605060055560405180604001604052806040518060400160405280600381526020017f312e30000000000000000000000000000000000000000000000000000000000081525081526020016040518060400160405280600381526020017f322e300000000000000000000000000000000000000000000000000000000000815250815250600f9060026200013f929190620004e9565b5060405180604001604052807f312e30000000000000000000000000000000000000000000000000000000000081526020017f322e3000000000000000000000000000000000000000000000000000000000008152506010906002620001a792919062000549565b50348015620001b557600080fd5b50604051620044f4380380620044f48339818101604052810190620001db919062000a12565b620001fb620001ef6200041d60201b60201c565b6200042560201b60201c565b600354600660003073ffffffffffffffffffffffffffffffffffffffff1673ffffffffffffffffffffffffffffffffffffffff1681526020019081526020016000208190555082600a6000600160ff16815260200190815260200160002060006101000a81548173ffffffffffffffffffffffffffffffffffffffff021916908373ffffffffffffffffffffffffffffffffffffffff16021790555081600a6000600260ff16815260200190815260200160002060006101000a81548173ffffffffffffffffffffffffffffffffffffffff021916908373ffffffffffffffffffffffffffffffffffffffff16021790555080600a6000600360ff16815260200190815260200160002060006101000a81548173ffffffffffffffffffffffffffffffffffffffff021916908373ffffffffffffffffffffffffffffffffffffffff1602179055506101f4600960008473ffffffffffffffffffffffffffffffffffffffff1673ffffffffffffffffffffffffffffffffffffffff168152602001908152602001600020819055506064600960008573ffffffffffffffffffffffffffffffffffffffff1673ffffffffffffffffffffffffffffffffffffffff168152602001908152602001600020819055506107d0600960008373ffffffffffffffffffffffffffffffffffffffff1673ffffffffffffffffffffffffffffffffffffffff1681526020019081526020016000208190555050505062000a6e565b600033905090565b60008060009054906101000a900473ffffffffffffffffffffffffffffffffffffffff169050816000806101000a81548173ffffffffffffffffffffffffffffffffffffffff021916908373ffffffffffffffffffffffffffffffffffffffff1602179055508173ffffffffffffffffffffffffffffffffffffffff168173ffffffffffffffffffffffffffffffffffffffff167f8be0079c531659141344cd1fd0a4f28419497f9722a3daafe3b4186f6b6457e060405160405180910390a35050565b82805482825590600052602060002090810192821562000536579160200282015b8281111562000535578251829081620005249190620008c1565b50916020019190600101906200050a565b5b5090506200054591906200059b565b5090565b82805482825590600052602060002090810192821562000588579160200282015b82811115620005875782518255916020019190600101906200056a565b5b509050620005979190620005c3565b5090565b5b80821115620005bf5760008181620005b59190620005e2565b506001016200059c565b5090565b5b80821115620005de576000816000905550600101620005c4565b5090565b508054620005f090620006b0565b6000825580601f1062000604575062000625565b601f01602090049060005260206000209081019062000624919062000628565b5b50565b5b808211156200064357600081600090555060010162000629565b5090565b600081519050919050565b7f4e487b7100000000000000000000000000000000000000000000000000000000600052604160045260246000fd5b7f4e487b7100000000000000000000000000000000000000000000000000000000600052602260045260246000fd5b60006002820490506001821680620006c957607f821691505b602082108103620006df57620006de62000681565b5b50919050565b60008190508160005260206000209050919050565b60006020601f8301049050919050565b600082821b905092915050565b600060088302620007497fffffffffffffffffffffffffffffffffffffffffffffffffffffffffffffffff826200070a565b6200075586836200070a565b95508019841693508086168417925050509392505050565b6000819050919050565b6000819050919050565b6000620007a26200079c62000796846200076d565b62000777565b6200076d565b9050919050565b6000819050919050565b620007be8362000781565b620007d6620007cd82620007a9565b84845462000717565b825550505050565b600090565b620007ed620007de565b620007fa818484620007b3565b505050565b5b81811015620008225762000816600082620007e3565b60018101905062000800565b5050565b601f82111562000871576200083b81620006e5565b6200084684620006fa565b8101602085101562000856578190505b6200086e6200086585620006fa565b830182620007ff565b50505b505050565b600082821c905092915050565b6000620008966000198460080262000876565b1980831691505092915050565b6000620008b1838362000883565b9150826002028217905092915050565b620008cc8262000647565b67ffffffffffffffff811115620008e857620008e762000652565b5b620008f48254620006b0565b6200090182828562000826565b600060209050601f83116001811462000939576000841562000924578287015190505b620009308582620008a3565b865550620009a0565b601f1984166200094986620006e5565b60005b8281101562000973578489015182556001820191506020850194506020810190506200094c565b868310156200099357848901516200098f601f89168262000883565b8355505b6001600288020188555050505b505050505050565b600080fd5b600073ffffffffffffffffffffffffffffffffffffffff82169050919050565b6000620009da82620009ad565b9050919050565b620009ec81620009cd565b8114620009f857600080fd5b50565b60008151905062000a0c81620009e1565b92915050565b60008060006060848603121562000a2e5762000a2d620009a8565b5b600062000a3e86828701620009fb565b935050602062000a5186828701620009fb565b925050604062000a6486828701620009fb565b9150509250925092565b613a768062000a7e6000396000f3fe6080604052600436106101815760003560e01c806375ef2a74116100d1578063b1b9d9631161008a578063e0a37bb611610064578063e0a37bb61461057e578063f12b758a146105a7578063f2fde38b146105e8578063f45cf5e41461061157610181565b8063b1b9d963146104db578063b33c257714610518578063bb3f9f8d1461054157610181565b806375ef2a74146103ec5780638da5cb5b146103f657806395d89b4114610421578063a6c50b4d1461044c578063a9059cbb14610475578063b058e81a1461049e57610181565b806343e80e341161013e5780635fe39e0d116101185780635fe39e0d146103535780636330ad1e1461037c57806370a0823114610398578063715018a6146103d557610181565b806343e80e34146102c05780634eeb7391146102e95780635224372c1461032a57610181565b806306fdde031461018657806318160ddd146101b1578063204120bc146101dc57806323b872dd146102195780632653b6d2146102425780634252ae9b1461027f575b600080fd5b34801561019257600080fd5b5061019b61063a565b6040516101a8919061201e565b60405180910390f35b3480156101bd57600080fd5b506101c66106c8565b6040516101d39190612059565b60405180910390f35b3480156101e857600080fd5b5061020360048036038101906101fe91906120dc565b6106ce565b6040516102109190612059565b60405180910390f35b34801561022557600080fd5b50610240600480360381019061023b9190612135565b6106e6565b005b34801561024e57600080fd5b506102696004803603810190610264919061229e565b61087e565b604051610276919061201e565b60405180910390f35b34801561028b57600080fd5b506102a660048036038101906102a191906123ae565b610a56565b6040516102b7959493929190612527565b60405180910390f35b3480156102cc57600080fd5b506102e760048036038101906102e2919061258f565b610cf2565b005b3480156102f557600080fd5b50610310600480360381019061030b91906123ae565b610e6a565b604051610321959493929190612527565b60405180910390f35b34801561033657600080fd5b50610351600480360381019061034c9190612135565b611106565b005b34801561035f57600080fd5b5061037a600480360381019061037591906125cf565b611251565b005b610396600480360381019061039191906126d1565b61130d565b005b3480156103a457600080fd5b506103bf60048036038101906103ba91906120dc565b6113bc565b6040516103cc9190612059565b60405180910390f35b3480156103e157600080fd5b506103ea611405565b005b6103f4611419565b005b34801561040257600080fd5b5061040b611503565b604051610418919061277a565b60405180910390f35b34801561042d57600080fd5b5061043661152c565b604051610443919061201e565b60405180910390f35b34801561045857600080fd5b50610473600480360381019061046e9190612795565b6115ba565b005b34801561048157600080fd5b5061049c6004803603810190610497919061258f565b6116ca565b005b3480156104aa57600080fd5b506104c560048036038101906104c09190612828565b611861565b6040516104d29190612913565b60405180910390f35b3480156104e757600080fd5b5061050260048036038101906104fd919061296e565b6119c1565b60405161050f919061277a565b60405180910390f35b34801561052457600080fd5b5061053f600480360381019061053a9190612828565b6119f4565b005b34801561054d57600080fd5b50610568600480360381019061056391906123ae565b611a31565b60405161057591906129aa565b60405180910390f35b34801561058a57600080fd5b506105a560048036038101906105a091906129c5565b611a55565b005b3480156105b357600080fd5b506105ce60048036038101906105c991906123ae565b611acc565b6040516105df959493929190612527565b60405180910390f35b3480156105f457600080fd5b5061060f600480360381019061060a91906120dc565b611d68565b005b34801561061d57600080fd5b5061063860048036038101906106339190612828565b611deb565b005b6001805461064790612a34565b80601f016020809104026020016040519081016040528092919081815260200182805461067390612a34565b80156106c05780601f10610695576101008083540402835291602001916106c0565b820191906000526020600020905b8154815290600101906020018083116106a357829003601f168201915b505050505081565b60035481565b60096020528060005260406000206000915090505481565b80600660008573ffffffffffffffffffffffffffffffffffffffff1673ffffffffffffffffffffffffffffffffffffffff168152602001908152602001600020541015610768576040517f08c379a000000000000000000000000000000000000000000000000000000000815260040161075f90612ab1565b60405180910390fd5b80600660008573ffffffffffffffffffffffffffffffffffffffff1673ffffffffffffffffffffffffffffffffffffffff16815260200190815260200160002060008282546107b79190612b00565b9250508190555080600660008473ffffffffffffffffffffffffffffffffffffffff1673ffffffffffffffffffffffffffffffffffffffff168152602001908152602001600020600082825461080d9190612b34565b925050819055508173ffffffffffffffffffffffffffffffffffffffff168373ffffffffffffffffffffffffffffffffffffffff167fddf252ad1be2c89b69c2b068fc378daa952ba7f163c4a11628f55a4df523b3ef836040516108719190612059565b60405180910390a3505050565b6060600886869050116108c6576040517f08c379a00000000000000000000000000000000000000000000000000000000081526004016108bd90612bb4565b60405180910390fd5b60006040516020016108d790612c05565b604051602081830303815290604052805190602001208c8c604051602001610900929190612c4e565b6040516020818303038152906040528051906020012014610922578b8b610925565b83835b8080601f016020809104026020016040519081016040528093929190818152602001838380828437600081840152601f19601f82011690508083019250505050505050915060005b600f80549050811015610a0657600f818154811061098e5761098d612c67565b5b906000526020600020016040516020016109a89190612d2e565b60405160208183030381529060405280519060200120836040516020016109cf9190612d76565b60405160208183030381529060405280519060200120036109f35760019150610a06565b80806109fe90612d8d565b91505061096d565b5080610a47576040517f08c379a0000000000000000000000000000000000000000000000000000000008152600401610a3e90612e21565b60405180910390fd5b509a9950505050505050505050565b600c8181548110610a6657600080fd5b906000526020600020906007020160009150905080600001604051806040016040529081600082018054610a9990612a34565b80601f0160208091040260200160405190810160405280929190818152602001828054610ac590612a34565b8015610b125780601f10610ae757610100808354040283529160200191610b12565b820191906000526020600020905b815481529060010190602001808311610af557829003601f168201915b505050505081526020016001820154815250509080600201604051806040016040529081600082018054610b4590612a34565b80601f0160208091040260200160405190810160405280929190818152602001828054610b7190612a34565b8015610bbe5780601f10610b9357610100808354040283529160200191610bbe565b820191906000526020600020905b815481529060010190602001808311610ba157829003601f168201915b50505050508152602001600182015481525050908060040160009054906101000a900467ffffffffffffffff1690806005018054610bfb90612a34565b80601f0160208091040260200160405190810160405280929190818152602001828054610c2790612a34565b8015610c745780601f10610c4957610100808354040283529160200191610c74565b820191906000526020600020905b815481529060010190602001808311610c5757829003601f168201915b505050505090806006016040518060400160405290816000820160009054906101000a900467ffffffffffffffff1667ffffffffffffffff1667ffffffffffffffff1681526020016000820160089054906101000a900467ffffffffffffffff1667ffffffffffffffff1667ffffffffffffffff1681525050905085565b6000600960008473ffffffffffffffffffffffffffffffffffffffff1673ffffffffffffffffffffffffffffffffffffffff1681526020019081526020016000205411610d3e57600080fd5b8173ffffffffffffffffffffffffffffffffffffffff166323b872dd3330846040518463ffffffff1660e01b8152600401610d7b93929190612e41565b600060405180830381600087803b158015610d9557600080fd5b505af1158015610da9573d6000803e3d6000fd5b505050503073ffffffffffffffffffffffffffffffffffffffff166323b872dd3033600960008773ffffffffffffffffffffffffffffffffffffffff1673ffffffffffffffffffffffffffffffffffffffff1681526020019081526020016000205485610e169190612e78565b6040518463ffffffff1660e01b8152600401610e3493929190612e41565b600060405180830381600087803b158015610e4e57600080fd5b505af1158015610e62573d6000803e3d6000fd5b505050505050565b600d8181548110610e7a57600080fd5b906000526020600020906007020160009150905080600001604051806040016040529081600082018054610ead90612a34565b80601f0160208091040260200160405190810160405280929190818152602001828054610ed990612a34565b8015610f265780601f10610efb57610100808354040283529160200191610f26565b820191906000526020600020905b815481529060010190602001808311610f0957829003601f168201915b505050505081526020016001820154815250509080600201604051806040016040529081600082018054610f5990612a34565b80601f0160208091040260200160405190810160405280929190818152602001828054610f8590612a34565b8015610fd25780601f10610fa757610100808354040283529160200191610fd2565b820191906000526020600020905b815481529060010190602001808311610fb557829003601f168201915b50505050508152602001600182015481525050908060040160009054906101000a900467ffffffffffffffff169080600501805461100f90612a34565b80601f016020809104026020016040519081016040528092919081815260200182805461103b90612a34565b80156110885780601f1061105d57610100808354040283529160200191611088565b820191906000526020600020905b81548152906001019060200180831161106b57829003601f168201915b505050505090806006016040518060400160405290816000820160009054906101000a900467ffffffffffffffff1667ffffffffffffffff1667ffffffffffffffff1681526020016000820160089054906101000a900467ffffffffffffffff1667ffffffffffffffff1667ffffffffffffffff1681525050905085565b60006064600960008673ffffffffffffffffffffffffffffffffffffffff1673ffffffffffffffffffffffffffffffffffffffff168152602001908152602001600020546111549190612e78565b6050836111619190612e78565b61116b9190612ee9565b90503073ffffffffffffffffffffffffffffffffffffffff166323b872dd3330856040518463ffffffff1660e01b81526004016111aa93929190612e41565b600060405180830381600087803b1580156111c457600080fd5b505af11580156111d8573d6000803e3d6000fd5b505050508373ffffffffffffffffffffffffffffffffffffffff166323b872dd3085846040518463ffffffff1660e01b815260040161121993929190612e41565b600060405180830381600087803b15801561123357600080fd5b505af1158015611247573d6000803e3d6000fd5b5050505050505050565b6000805b600e805490508110156112c55785600e828154811061127757611276612c67565b5b9060005260206000200154036112b257600e818154811061129b5761129a612c67565b5b9060005260206000200160009055600191506112c5565b80806112bd90612d8d565b915050611255565b5080611306576040517f08c379a00000000000000000000000000000000000000000000000000000000081526004016112fd90612f66565b60405180910390fd5b5050505050565b6000816040013582602001351161132857816040013561132e565b81602001355b90508673ffffffffffffffffffffffffffffffffffffffff1663ca034bff82846000013561135c9190612b34565b86898988886040518763ffffffff1660e01b8152600401611381959493929190613033565b6000604051808303818588803b15801561139a57600080fd5b505af11580156113ae573d6000803e3d6000fd5b505050505050505050505050565b6000600660008373ffffffffffffffffffffffffffffffffffffffff1673ffffffffffffffffffffffffffffffffffffffff168152602001908152602001600020549050919050565b61140d611e28565b6114176000611ea6565b565b3073ffffffffffffffffffffffffffffffffffffffff166323b872dd3033600454346114459190612ee9565b6040518463ffffffff1660e01b815260040161146393929190612e41565b600060405180830381600087803b15801561147d57600080fd5b505af1158015611491573d6000803e3d6000fd5b50505050600860008154809291906114a890612d8d565b91905055503360076000600854815260200190815260200160002060006101000a81548173ffffffffffffffffffffffffffffffffffffffff021916908373ffffffffffffffffffffffffffffffffffffffff160217905550565b60008060009054906101000a900473ffffffffffffffffffffffffffffffffffffffff16905090565b6002805461153990612a34565b80601f016020809104026020016040519081016040528092919081815260200182805461156590612a34565b80156115b25780601f10611587576101008083540402835291602001916115b2565b820191906000526020600020905b81548152906001019060200180831161159557829003601f168201915b505050505081565b6000805b600f8054905081101561165957600f81815481106115df576115de612c67565b5b906000526020600020016040516020016115f99190612d2e565b604051602081830303815290604052805190602001208484604051602001611622929190612c4e565b60405160208183030381529060405280519060200120036116465760019150611659565b808061165190612d8d565b9150506115be565b508061169a576040517f08c379a000000000000000000000000000000000000000000000000000000000815260040161169190612e21565b60405180910390fd5b600e8590806001815401808255809150506001900390600052602060002001600090919091909150555050505050565b80600660003373ffffffffffffffffffffffffffffffffffffffff1673ffffffffffffffffffffffffffffffffffffffff16815260200190815260200160002054101561174c576040517f08c379a000000000000000000000000000000000000000000000000000000000815260040161174390612ab1565b60405180910390fd5b80600660003373ffffffffffffffffffffffffffffffffffffffff1673ffffffffffffffffffffffffffffffffffffffff168152602001908152602001600020600082825461179b9190612b00565b9250508190555080600660008473ffffffffffffffffffffffffffffffffffffffff1673ffffffffffffffffffffffffffffffffffffffff16815260200190815260200160002060008282546117f19190612b34565b925050819055508173ffffffffffffffffffffffffffffffffffffffff163373ffffffffffffffffffffffffffffffffffffffff167fddf252ad1be2c89b69c2b068fc378daa952ba7f163c4a11628f55a4df523b3ef836040516118559190612059565b60405180910390a35050565b611869611f72565b600b82908060018154018082558091505060019003906000526020600020906007020160009091909190915081816118a19190613861565b50506000600a6000600360ff16815260200190815260200160002060009054906101000a900473ffffffffffffffffffffffffffffffffffffffff1690503073ffffffffffffffffffffffffffffffffffffffff16635224372c82600760006001815260200190815260200160002060009054906101000a900473ffffffffffffffffffffffffffffffffffffffff166161a86040518463ffffffff1660e01b8152600401611952939291906138aa565b600060405180830381600087803b15801561196c57600080fd5b505af1158015611980573d6000803e3d6000fd5b5050505060405180604001604052806001151581526020016040516020016119a79061392d565b604051602081830303815290604052815250915050919050565b600a6020528060005260406000206000915054906101000a900473ffffffffffffffffffffffffffffffffffffffff1681565b600d8190806001815401808255809150506001900390600052602060002090600702016000909190919091508181611a2c9190613861565b505050565b600e8181548110611a4157600080fd5b906000526020600020016000915090505481565b611a5d611e28565b8073ffffffffffffffffffffffffffffffffffffffff16638b24b4cb836040518263ffffffff1660e01b8152600401611a9691906129aa565b600060405180830381600087803b158015611ab057600080fd5b505af1158015611ac4573d6000803e3d6000fd5b505050505050565b600b8181548110611adc57600080fd5b906000526020600020906007020160009150905080600001604051806040016040529081600082018054611b0f90612a34565b80601f0160208091040260200160405190810160405280929190818152602001828054611b3b90612a34565b8015611b885780601f10611b5d57610100808354040283529160200191611b88565b820191906000526020600020905b815481529060010190602001808311611b6b57829003601f168201915b505050505081526020016001820154815250509080600201604051806040016040529081600082018054611bbb90612a34565b80601f0160208091040260200160405190810160405280929190818152602001828054611be790612a34565b8015611c345780601f10611c0957610100808354040283529160200191611c34565b820191906000526020600020905b815481529060010190602001808311611c1757829003601f168201915b50505050508152602001600182015481525050908060040160009054906101000a900467ffffffffffffffff1690806005018054611c7190612a34565b80601f0160208091040260200160405190810160405280929190818152602001828054611c9d90612a34565b8015611cea5780601f10611cbf57610100808354040283529160200191611cea565b820191906000526020600020905b815481529060010190602001808311611ccd57829003601f168201915b505050505090806006016040518060400160405290816000820160009054906101000a900467ffffffffffffffff1667ffffffffffffffff1667ffffffffffffffff1681526020016000820160089054906101000a900467ffffffffffffffff1667ffffffffffffffff1667ffffffffffffffff1681525050905085565b611d70611e28565b600073ffffffffffffffffffffffffffffffffffffffff168173ffffffffffffffffffffffffffffffffffffffff1603611ddf576040517f08c379a0000000000000000000000000000000000000000000000000000000008152600401611dd6906139b4565b60405180910390fd5b611de881611ea6565b50565b600c8190806001815401808255809150506001900390600052602060002090600702016000909190919091508181611e239190613861565b505050565b611e30611f6a565b73ffffffffffffffffffffffffffffffffffffffff16611e4e611503565b73ffffffffffffffffffffffffffffffffffffffff1614611ea4576040517f08c379a0000000000000000000000000000000000000000000000000000000008152600401611e9b90613a20565b60405180910390fd5b565b60008060009054906101000a900473ffffffffffffffffffffffffffffffffffffffff169050816000806101000a81548173ffffffffffffffffffffffffffffffffffffffff021916908373ffffffffffffffffffffffffffffffffffffffff1602179055508173ffffffffffffffffffffffffffffffffffffffff168173ffffffffffffffffffffffffffffffffffffffff167f8be0079c531659141344cd1fd0a4f28419497f9722a3daafe3b4186f6b6457e060405160405180910390a35050565b600033905090565b6040518060400160405280600015158152602001606081525090565b600081519050919050565b600082825260208201905092915050565b60005b83811015611fc8578082015181840152602081019050611fad565b60008484015250505050565b6000601f19601f8301169050919050565b6000611ff082611f8e565b611ffa8185611f99565b935061200a818560208601611faa565b61201381611fd4565b840191505092915050565b600060208201905081810360008301526120388184611fe5565b905092915050565b6000819050919050565b61205381612040565b82525050565b600060208201905061206e600083018461204a565b92915050565b600080fd5b600080fd5b600073ffffffffffffffffffffffffffffffffffffffff82169050919050565b60006120a98261207e565b9050919050565b6120b98161209e565b81146120c457600080fd5b50565b6000813590506120d6816120b0565b92915050565b6000602082840312156120f2576120f1612074565b5b6000612100848285016120c7565b91505092915050565b61211281612040565b811461211d57600080fd5b50565b60008135905061212f81612109565b92915050565b60008060006060848603121561214e5761214d612074565b5b600061215c868287016120c7565b935050602061216d868287016120c7565b925050604061217e86828701612120565b9150509250925092565b600080fd5b600080fd5b600080fd5b60008083601f8401126121ad576121ac612188565b5b8235905067ffffffffffffffff8111156121ca576121c961218d565b5b6020830191508360018202830111156121e6576121e5612192565b5b9250929050565b600381106121fa57600080fd5b50565b60008135905061220c816121ed565b92915050565b60008083601f84011261222857612227612188565b5b8235905067ffffffffffffffff8111156122455761224461218d565b5b60208301915083602082028301111561226157612260612192565b5b9250929050565b6000819050919050565b61227b81612268565b811461228657600080fd5b50565b60008135905061229881612272565b92915050565b60008060008060008060008060008060c08b8d0312156122c1576122c0612074565b5b60008b013567ffffffffffffffff8111156122df576122de612079565b5b6122eb8d828e01612197565b9a509a505060206122fe8d828e016121fd565b98505060408b013567ffffffffffffffff81111561231f5761231e612079565b5b61232b8d828e01612212565b975097505060608b013567ffffffffffffffff81111561234e5761234d612079565b5b61235a8d828e01612197565b9550955050608061236d8d828e01612289565b93505060a08b013567ffffffffffffffff81111561238e5761238d612079565b5b61239a8d828e01612197565b92509250509295989b9194979a5092959850565b6000602082840312156123c4576123c3612074565b5b60006123d284828501612120565b91505092915050565b600082825260208201905092915050565b60006123f782611f8e565b61240181856123db565b9350612411818560208601611faa565b61241a81611fd4565b840191505092915050565b61242e81612268565b82525050565b6000604083016000830151848203600086015261245182826123ec565b91505060208301516124666020860182612425565b508091505092915050565b600067ffffffffffffffff82169050919050565b61248e81612471565b82525050565b600081519050919050565b600082825260208201905092915050565b60006124bb82612494565b6124c5818561249f565b93506124d5818560208601611faa565b6124de81611fd4565b840191505092915050565b6124f281612471565b82525050565b60408201600082015161250e60008501826124e9565b50602082015161252160208501826124e9565b50505050565b600060c08201905081810360008301526125418188612434565b905081810360208301526125558187612434565b90506125646040830186612485565b818103606083015261257681856124b0565b905061258560808301846124f8565b9695505050505050565b600080604083850312156125a6576125a5612074565b5b60006125b4858286016120c7565b92505060206125c585828601612120565b9150509250929050565b600080600080606085870312156125e9576125e8612074565b5b60006125f787828801612289565b945050602085013567ffffffffffffffff81111561261857612617612079565b5b61262487828801612197565b9350935050604061263787828801612289565b91505092959194509250565b600061264e8261209e565b9050919050565b61265e81612643565b811461266957600080fd5b50565b60008135905061267b81612655565b92915050565b61268a81612471565b811461269557600080fd5b50565b6000813590506126a781612681565b92915050565b600080fd5b6000606082840312156126c8576126c76126ad565b5b81905092915050565b60008060008060008060e087890312156126ee576126ed612074565b5b60006126fc89828a0161266c565b965050602087013567ffffffffffffffff81111561271d5761271c612079565b5b61272989828a01612197565b9550955050604061273c89828a01612289565b935050606061274d89828a01612698565b925050608061275e89828a016126b2565b9150509295509295509295565b6127748161209e565b82525050565b600060208201905061278f600083018461276b565b92915050565b600080600080606085870312156127af576127ae612074565b5b60006127bd87828801612289565b94505060206127ce87828801612289565b935050604085013567ffffffffffffffff8111156127ef576127ee612079565b5b6127fb87828801612197565b925092505092959194509250565b600060c0828403121561281f5761281e6126ad565b5b81905092915050565b60006020828403121561283e5761283d612074565b5b600082013567ffffffffffffffff81111561285c5761285b612079565b5b61286884828501612809565b91505092915050565b60008115159050919050565b61288681612871565b82525050565b600082825260208201905092915050565b60006128a882612494565b6128b2818561288c565b93506128c2818560208601611faa565b6128cb81611fd4565b840191505092915050565b60006040830160008301516128ee600086018261287d565b5060208301518482036020860152612906828261289d565b9150508091505092915050565b6000602082019050818103600083015261292d81846128d6565b905092915050565b600060ff82169050919050565b61294b81612935565b811461295657600080fd5b50565b60008135905061296881612942565b92915050565b60006020828403121561298457612983612074565b5b600061299284828501612959565b91505092915050565b6129a481612268565b82525050565b60006020820190506129bf600083018461299b565b92915050565b600080604083850312156129dc576129db612074565b5b60006129ea85828601612289565b92505060206129fb8582860161266c565b9150509250929050565b7f4e487b7100000000000000000000000000000000000000000000000000000000600052602260045260246000fd5b60006002820490506001821680612a4c57607f821691505b602082108103612a5f57612a5e612a05565b5b50919050565b7f4e6f7420656e6f75676820746f6b656e73000000000000000000000000000000600082015250565b6000612a9b601183611f99565b9150612aa682612a65565b602082019050919050565b60006020820190508181036000830152612aca81612a8e565b9050919050565b7f4e487b7100000000000000000000000000000000000000000000000000000000600052601160045260246000fd5b6000612b0b82612040565b9150612b1683612040565b9250828203905081811115612b2e57612b2d612ad1565b5b92915050565b6000612b3f82612040565b9150612b4a83612040565b9250828201905080821115612b6257612b61612ad1565b5b92915050565b7f496e76616c696420636f756e7465727061727479506f72744964000000000000600082015250565b6000612b9e601a83611f99565b9150612ba982612b68565b602082019050919050565b60006020820190508181036000830152612bcd81612b91565b9050919050565b600081905092915050565b50565b6000612bef600083612bd4565b9150612bfa82612bdf565b600082019050919050565b6000612c1082612be2565b9150819050919050565b82818337600083830152505050565b6000612c358385612bd4565b9350612c42838584612c1a565b82840190509392505050565b6000612c5b828486612c29565b91508190509392505050565b7f4e487b7100000000000000000000000000000000000000000000000000000000600052603260045260246000fd5b60008190508160005260206000209050919050565b60008154612cb881612a34565b612cc28186612bd4565b94506001821660008114612cdd5760018114612cf257612d25565b60ff1983168652811515820286019350612d25565b612cfb85612c96565b60005b83811015612d1d57815481890152600182019150602081019050612cfe565b838801955050505b50505092915050565b6000612d3a8284612cab565b915081905092915050565b6000612d5082611f8e565b612d5a8185612bd4565b9350612d6a818560208601611faa565b80840191505092915050565b6000612d828284612d45565b915081905092915050565b6000612d9882612040565b91507fffffffffffffffffffffffffffffffffffffffffffffffffffffffffffffffff8203612dca57612dc9612ad1565b5b600182019050919050565b7f556e737570706f727465642076657273696f6e00000000000000000000000000600082015250565b6000612e0b601383611f99565b9150612e1682612dd5565b602082019050919050565b60006020820190508181036000830152612e3a81612dfe565b9050919050565b6000606082019050612e56600083018661276b565b612e63602083018561276b565b612e70604083018461204a565b949350505050565b6000612e8382612040565b9150612e8e83612040565b9250828202612e9c81612040565b91508282048414831517612eb357612eb2612ad1565b5b5092915050565b7f4e487b7100000000000000000000000000000000000000000000000000000000600052601260045260246000fd5b6000612ef482612040565b9150612eff83612040565b925082612f0f57612f0e612eba565b5b828204905092915050565b7f4368616e6e656c206e6f7420666f756e64000000000000000000000000000000600082015250565b6000612f50601183611f99565b9150612f5b82612f1a565b602082019050919050565b60006020820190508181036000830152612f7f81612f43565b9050919050565b6000612f92838561249f565b9350612f9f838584612c1a565b612fa883611fd4565b840190509392505050565b6000612fc26020840184612120565b905092915050565b612fd381612040565b82525050565b60608201612fea6000830183612fb3565b612ff76000850182612fca565b506130056020830183612fb3565b6130126020850182612fca565b506130206040830183612fb3565b61302d6040850182612fca565b50505050565b600060c082019050613048600083018861299b565b818103602083015261305b818688612f86565b905061306a6040830185612485565b6130776060830184612fd9565b9695505050505050565b600080fd5b600080fd5b600080fd5b6000823560016040038336030381126130ac576130ab613081565b5b80830191505092915050565b600080833560016020038436030381126130d5576130d4613081565b5b80840192508235915067ffffffffffffffff8211156130f7576130f6613086565b5b6020830192506001820236038313156131135761311261308b565b5b509250929050565b600082905092915050565b7f4e487b7100000000000000000000000000000000000000000000000000000000600052604160045260246000fd5b60006020601f8301049050919050565b600082821b905092915050565b6000600883026131a27fffffffffffffffffffffffffffffffffffffffffffffffffffffffffffffffff82613165565b6131ac8683613165565b95508019841693508086168417925050509392505050565b6000819050919050565b60006131e96131e46131df84612040565b6131c4565b612040565b9050919050565b6000819050919050565b613203836131ce565b61321761320f826131f0565b848454613172565b825550505050565b600090565b61322c61321f565b6132378184846131fa565b505050565b5b8181101561325b57613250600082613224565b60018101905061323d565b5050565b601f8211156132a05761327181612c96565b61327a84613155565b81016020851015613289578190505b61329d61329585613155565b83018261323c565b50505b505050565b600082821c905092915050565b60006132c3600019846008026132a5565b1980831691505092915050565b60006132dc83836132b2565b9150826002028217905092915050565b6132f6838361311b565b67ffffffffffffffff81111561330f5761330e613126565b5b6133198254612a34565b61332482828561325f565b6000601f8311600181146133535760008415613341578287013590505b61334b85826132d0565b8655506133b3565b601f19841661336186612c96565b60005b8281101561338957848901358255600182019150602085019450602081019050613364565b868310156133a657848901356133a2601f8916826132b2565b8355505b6001600288020188555050505b50505050505050565b6133c78383836132ec565b505050565b600081356133d981612272565b80915050919050565b60008160001b9050919050565b60007fffffffffffffffffffffffffffffffffffffffffffffffffffffffffffffffff61341b846133e2565b9350801983169250808416831791505092915050565b600061343c82612268565b9050919050565b60008160001c9050919050565b600061345b82613443565b9050919050565b61346b82613431565b61347e61347782613450565b83546133ef565b8255505050565b600081016000830161349781856130b8565b6134a28183866133bc565b505050506001810160208301806134b8816133cc565b90506134c48184613462565b5050505050565b6134d58282613485565b5050565b600081356134e681612681565b80915050919050565b600067ffffffffffffffff613503846133e2565b9350801983169250808416831791505092915050565b600061353461352f61352a84612471565b6131c4565b612471565b9050919050565b6000819050919050565b61354e82613519565b61356161355a8261353b565b83546134ef565b8255505050565b6000808335600160200384360303811261358557613584613081565b5b80840192508235915067ffffffffffffffff8211156135a7576135a6613086565b5b6020830192506001820236038313156135c3576135c261308b565b5b509250929050565b600082905092915050565b60008190508160005260206000209050919050565b601f82111561362c576135fd816135d6565b61360684613155565b81016020851015613615578190505b61362961362185613155565b83018261323c565b50505b505050565b61363b83836135cb565b67ffffffffffffffff81111561365457613653613126565b5b61365e8254612a34565b6136698282856135eb565b6000601f8311600181146136985760008415613686578287013590505b61369085826132d0565b8655506136f8565b601f1984166136a6866135d6565b60005b828110156136ce578489013582556001820191506020850194506020810190506136a9565b868310156136eb57848901356136e7601f8916826132b2565b8355505b6001600288020188555050505b50505050505050565b61370c838383613631565b505050565b60008160401b9050919050565b60006fffffffffffffffff000000000000000061373a84613711565b9350801983169250808416831791505092915050565b61375982613519565b61376c6137658261353b565b835461371e565b8255505050565b600081016000830180613785816134d9565b90506137918184613545565b5050506000810160208301806137a6816134d9565b90506137b28184613750565b5050505050565b6137c38282613773565b5050565b60008101600083016137d98185613090565b6137e381846134cb565b50505060028101602083016137f88185613090565b61380281846134cb565b505050600481016040830180613817816134d9565b90506138238184613545565b50505060058101606083016138388185613568565b613843818386613701565b5050505060068101608083018061385a81846137b9565b5050505050565b61386b82826137c7565b5050565b6000819050919050565b600061389461388f61388a8461386f565b6131c4565b612040565b9050919050565b6138a481613879565b82525050565b60006060820190506138bf600083018661276b565b6138cc602083018561276b565b6138d9604083018461389b565b949350505050565b7f7b2022706f6c6c5f6964223a20312c2022766f746564223a2033207d00000000600082015250565b6000613917601c83612bd4565b9150613922826138e1565b601c82019050919050565b60006139388261390a565b9150819050919050565b7f4f776e61626c653a206e6577206f776e657220697320746865207a65726f206160008201527f6464726573730000000000000000000000000000000000000000000000000000602082015250565b600061399e602683611f99565b91506139a982613942565b604082019050919050565b600060208201905081810360008301526139cd81613991565b9050919050565b7f4f776e61626c653a2063616c6c6572206973206e6f7420746865206f776e6572600082015250565b6000613a0a602083611f99565b9150613a15826139d4565b602082019050919050565b60006020820190508181036000830152613a39816139fd565b905091905056fea2646970667358221220fd4d087fa2bf93306191213391837f29fc9f82114a0db915353e0e54c993a04f64736f6c63430008130033",
  "linkReferences": {},
  "deployedLinkReferences": {}
}