{
  "_format": "hh-sol-artifact-1",
  "contractName": "IbcGlobalToken",
  "sourceName": "contracts/IbcGlobalToken.sol",
  "abi": [
    {
      "inputs": [],
      "stateMutability": "nonpayable",
      "type": "constructor"
    },
    {
      "anonymous": false,
      "inputs": [
        {
          "indexed": true,
          "internalType": "address",
          "name": "_from",
          "type": "address"
        },
        {
          "indexed": true,
          "internalType": "address",
          "name": "_to",
          "type": "address"
        },
        {
          "indexed": false,
          "internalType": "uint256",
          "name": "_value",
          "type": "uint256"
        }
      ],
      "name": "Transfer",
      "type": "event"
    },
    {
      "inputs": [
        {
          "internalType": "address",
          "name": "account",
          "type": "address"
        }
      ],
      "name": "balanceOf",
      "outputs": [
        {
          "internalType": "uint256",
          "name": "",
          "type": "uint256"
        }
      ],
      "stateMutability": "view",
      "type": "function"
    },
    {
      "inputs": [],
      "name": "name",
      "outputs": [
        {
          "internalType": "string",
          "name": "",
          "type": "string"
        }
      ],
      "stateMutability": "view",
      "type": "function"
    },
    {
      "inputs": [],
      "name": "owner",
      "outputs": [
        {
          "internalType": "address",
          "name": "",
          "type": "address"
        }
      ],
      "stateMutability": "view",
      "type": "function"
    },
    {
      "inputs": [],
      "name": "symbol",
      "outputs": [
        {
          "internalType": "string",
          "name": "",
          "type": "string"
        }
      ],
      "stateMutability": "view",
      "type": "function"
    },
    {
      "inputs": [],
      "name": "totalSupply",
      "outputs": [
        {
          "internalType": "uint256",
          "name": "",
          "type": "uint256"
        }
      ],
      "stateMutability": "view",
      "type": "function"
    },
    {
      "inputs": [
        {
          "internalType": "address",
          "name": "to",
          "type": "address"
        },
        {
          "internalType": "uint256",
          "name": "amount",
          "type": "uint256"
        }
      ],
      "name": "transfer",
      "outputs": [],
      "stateMutability": "nonpayable",
      "type": "function"
    },
    {
      "inputs": [
        {
          "internalType": "address",
          "name": "from",
          "type": "address"
        },
        {
          "internalType": "address",
          "name": "to",
          "type": "address"
        },
        {
          "internalType": "uint256",
          "name": "amount",
          "type": "uint256"
        }
      ],
      "name": "transferFrom",
      "outputs": [],
      "stateMutability": "nonpayable",
      "type": "function"
    }
  ],
  "bytecode": "0x60806040526040518060400160405280601081526020017f49424320476c6f62616c20546f6b656e00000000000000000000000000000000815250600090816200004a9190620003ad565b506040518060400160405280600481526020017f494243470000000000000000000000000000000000000000000000000000000081525060019081620000919190620003ad565b5061c350600255348015620000a557600080fd5b50600254600460003373ffffffffffffffffffffffffffffffffffffffff1673ffffffffffffffffffffffffffffffffffffffff1681526020019081526020016000208190555033600360006101000a81548173ffffffffffffffffffffffffffffffffffffffff021916908373ffffffffffffffffffffffffffffffffffffffff16021790555062000494565b600081519050919050565b7f4e487b7100000000000000000000000000000000000000000000000000000000600052604160045260246000fd5b7f4e487b7100000000000000000000000000000000000000000000000000000000600052602260045260246000fd5b60006002820490506001821680620001b557607f821691505b602082108103620001cb57620001ca6200016d565b5b50919050565b60008190508160005260206000209050919050565b60006020601f8301049050919050565b600082821b905092915050565b600060088302620002357fffffffffffffffffffffffffffffffffffffffffffffffffffffffffffffffff82620001f6565b620002418683620001f6565b95508019841693508086168417925050509392505050565b6000819050919050565b6000819050919050565b60006200028e62000288620002828462000259565b62000263565b62000259565b9050919050565b6000819050919050565b620002aa836200026d565b620002c2620002b98262000295565b84845462000203565b825550505050565b600090565b620002d9620002ca565b620002e68184846200029f565b505050565b5b818110156200030e5762000302600082620002cf565b600181019050620002ec565b5050565b601f8211156200035d576200032781620001d1565b6200033284620001e6565b8101602085101562000342578190505b6200035a6200035185620001e6565b830182620002eb565b50505b505050565b600082821c905092915050565b6000620003826000198460080262000362565b1980831691505092915050565b60006200039d83836200036f565b9150826002028217905092915050565b620003b88262000133565b67ffffffffffffffff811115620003d457620003d36200013e565b5b620003e082546200019c565b620003ed82828562000312565b600060209050601f83116001811462000425576000841562000410578287015190505b6200041c85826200038f565b8655506200048c565b601f1984166200043586620001d1565b60005b828110156200045f5784890151825560018201915060208501945060208101905062000438565b868310156200047f57848901516200047b601f8916826200036f565b8355505b6001600288020188555050505b505050505050565b610a1a80620004a46000396000f3fe608060405234801561001057600080fd5b506004361061007d5760003560e01c806370a082311161005b57806370a08231146100da5780638da5cb5b1461010a57806395d89b4114610128578063a9059cbb146101465761007d565b806306fdde031461008257806318160ddd146100a057806323b872dd146100be575b600080fd5b61008a610162565b60405161009791906106b2565b60405180910390f35b6100a86101f0565b6040516100b591906106ed565b60405180910390f35b6100d860048036038101906100d39190610797565b6101f6565b005b6100f460048036038101906100ef91906107ea565b61038e565b60405161010191906106ed565b60405180910390f35b6101126103d7565b60405161011f9190610826565b60405180910390f35b6101306103fd565b60405161013d91906106b2565b60405180910390f35b610160600480360381019061015b9190610841565b61048b565b005b6000805461016f906108b0565b80601f016020809104026020016040519081016040528092919081815260200182805461019b906108b0565b80156101e85780601f106101bd576101008083540402835291602001916101e8565b820191906000526020600020905b8154815290600101906020018083116101cb57829003601f168201915b505050505081565b60025481565b80600460008573ffffffffffffffffffffffffffffffffffffffff1673ffffffffffffffffffffffffffffffffffffffff168152602001908152602001600020541015610278576040517f08c379a000000000000000000000000000000000000000000000000000000000815260040161026f9061092d565b60405180910390fd5b80600460008573ffffffffffffffffffffffffffffffffffffffff1673ffffffffffffffffffffffffffffffffffffffff16815260200190815260200160002060008282546102c7919061097c565b9250508190555080600460008473ffffffffffffffffffffffffffffffffffffffff1673ffffffffffffffffffffffffffffffffffffffff168152602001908152602001600020600082825461031d91906109b0565b925050819055508173ffffffffffffffffffffffffffffffffffffffff168373ffffffffffffffffffffffffffffffffffffffff167fddf252ad1be2c89b69c2b068fc378daa952ba7f163c4a11628f55a4df523b3ef8360405161038191906106ed565b60405180910390a3505050565b6000600460008373ffffffffffffffffffffffffffffffffffffffff1673ffffffffffffffffffffffffffffffffffffffff168152602001908152602001600020549050919050565b600360009054906101000a900473ffffffffffffffffffffffffffffffffffffffff1681565b6001805461040a906108b0565b80601f0160208091040260200160405190810160405280929190818152602001828054610436906108b0565b80156104835780601f1061045857610100808354040283529160200191610483565b820191906000526020600020905b81548152906001019060200180831161046657829003601f168201915b505050505081565b80600460003373ffffffffffffffffffffffffffffffffffffffff1673ffffffffffffffffffffffffffffffffffffffff16815260200190815260200160002054101561050d576040517f08c379a00000000000000000000000000000000000000000000000000000000081526004016105049061092d565b60405180910390fd5b80600460003373ffffffffffffffffffffffffffffffffffffffff1673ffffffffffffffffffffffffffffffffffffffff168152602001908152602001600020600082825461055c919061097c565b9250508190555080600460008473ffffffffffffffffffffffffffffffffffffffff1673ffffffffffffffffffffffffffffffffffffffff16815260200190815260200160002060008282546105b291906109b0565b925050819055508173ffffffffffffffffffffffffffffffffffffffff163373ffffffffffffffffffffffffffffffffffffffff167fddf252ad1be2c89b69c2b068fc378daa952ba7f163c4a11628f55a4df523b3ef8360405161061691906106ed565b60405180910390a35050565b600081519050919050565b600082825260208201905092915050565b60005b8381101561065c578082015181840152602081019050610641565b60008484015250505050565b6000601f19601f8301169050919050565b600061068482610622565b61068e818561062d565b935061069e81856020860161063e565b6106a781610668565b840191505092915050565b600060208201905081810360008301526106cc8184610679565b905092915050565b6000819050919050565b6106e7816106d4565b82525050565b600060208201905061070260008301846106de565b92915050565b600080fd5b600073ffffffffffffffffffffffffffffffffffffffff82169050919050565b60006107388261070d565b9050919050565b6107488161072d565b811461075357600080fd5b50565b6000813590506107658161073f565b92915050565b610774816106d4565b811461077f57600080fd5b50565b6000813590506107918161076b565b92915050565b6000806000606084860312156107b0576107af610708565b5b60006107be86828701610756565b93505060206107cf86828701610756565b92505060406107e086828701610782565b9150509250925092565b600060208284031215610800576107ff610708565b5b600061080e84828501610756565b91505092915050565b6108208161072d565b82525050565b600060208201905061083b6000830184610817565b92915050565b6000806040838503121561085857610857610708565b5b600061086685828601610756565b925050602061087785828601610782565b9150509250929050565b7f4e487b7100000000000000000000000000000000000000000000000000000000600052602260045260246000fd5b600060028204905060018216806108c857607f821691505b6020821081036108db576108da610881565b5b50919050565b7f4e6f7420656e6f75676820746f6b656e73000000000000000000000000000000600082015250565b600061091760118361062d565b9150610922826108e1565b602082019050919050565b600060208201905081810360008301526109468161090a565b9050919050565b7f4e487b7100000000000000000000000000000000000000000000000000000000600052601160045260246000fd5b6000610987826106d4565b9150610992836106d4565b92508282039050818111156109aa576109a961094d565b5b92915050565b60006109bb826106d4565b91506109c6836106d4565b92508282019050808211156109de576109dd61094d565b5b9291505056fea26469706673582212203d5c774594d9c0b40dc5df187217907df42b2d241c96a86cf10b32a703eaf72764736f6c63430008130033",
  "linkReferences": {},
  "deployedLinkReferences": {}
}