{
  "_format": "hh-sol-artifact-1",
  "contractName": "Mars",
  "sourceName": "contracts/vibc-core/Mars.sol",
  "abi": [
    {
      "anonymous": false,
      "inputs": [
        {
          "indexed": true,
          "internalType": "address",
          "name": "previousOwner",
          "type": "address"
        },
        {
          "indexed": true,
          "internalType": "address",
          "name": "newOwner",
          "type": "address"
        }
      ],
      "name": "OwnershipTransferred",
      "type": "event"
    },
    {
      "inputs": [
        {
          "internalType": "uint256",
          "name": "",
          "type": "uint256"
        }
      ],
      "name": "ackPackets",
      "outputs": [
        {
          "components": [
            {
              "internalType": "string",
              "name": "portId",
              "type": "string"
            },
            {
              "internalType": "bytes32",
              "name": "channelId",
              "type": "bytes32"
            }
          ],
          "internalType": "struct IbcEndpoint",
          "name": "src",
          "type": "tuple"
        },
        {
          "components": [
            {
              "internalType": "string",
              "name": "portId",
              "type": "string"
            },
            {
              "internalType": "bytes32",
              "name": "channelId",
              "type": "bytes32"
            }
          ],
          "internalType": "struct IbcEndpoint",
          "name": "dest",
          "type": "tuple"
        },
        {
          "internalType": "uint64",
          "name": "sequence",
          "type": "uint64"
        },
        {
          "internalType": "bytes",
          "name": "data",
          "type": "bytes"
        },
        {
          "components": [
            {
              "internalType": "uint64",
              "name": "blockHeight",
              "type": "uint64"
            },
            {
              "internalType": "uint64",
              "name": "timestamp",
              "type": "uint64"
            }
          ],
          "internalType": "struct IbcTimeout",
          "name": "timeout",
          "type": "tuple"
        }
      ],
      "stateMutability": "view",
      "type": "function"
    },
    {
      "inputs": [
        {
          "internalType": "uint256",
          "name": "",
          "type": "uint256"
        }
      ],
      "name": "connectedChannels",
      "outputs": [
        {
          "internalType": "bytes32",
          "name": "",
          "type": "bytes32"
        }
      ],
      "stateMutability": "view",
      "type": "function"
    },
    {
      "inputs": [
        {
          "internalType": "contract IbcDispatcher",
          "name": "dispatcher",
          "type": "address"
        },
        {
          "internalType": "string",
          "name": "message",
          "type": "string"
        },
        {
          "internalType": "bytes32",
          "name": "channelId",
          "type": "bytes32"
        },
        {
          "internalType": "uint64",
          "name": "timeoutTimestamp",
          "type": "uint64"
        },
        {
          "components": [
            {
              "internalType": "uint256",
              "name": "recvFee",
              "type": "uint256"
            },
            {
              "internalType": "uint256",
              "name": "ackFee",
              "type": "uint256"
            },
            {
              "internalType": "uint256",
              "name": "timeoutFee",
              "type": "uint256"
            }
          ],
          "internalType": "struct PacketFee",
          "name": "fee",
          "type": "tuple"
        }
      ],
      "name": "greet",
      "outputs": [],
      "stateMutability": "payable",
      "type": "function"
    },
    {
      "inputs": [
        {
          "components": [
            {
              "components": [
                {
                  "internalType": "string",
                  "name": "portId",
                  "type": "string"
                },
                {
                  "internalType": "bytes32",
                  "name": "channelId",
                  "type": "bytes32"
                }
              ],
              "internalType": "struct IbcEndpoint",
              "name": "src",
              "type": "tuple"
            },
            {
              "components": [
                {
                  "internalType": "string",
                  "name": "portId",
                  "type": "string"
                },
                {
                  "internalType": "bytes32",
                  "name": "channelId",
                  "type": "bytes32"
                }
              ],
              "internalType": "struct IbcEndpoint",
              "name": "dest",
              "type": "tuple"
            },
            {
              "internalType": "uint64",
              "name": "sequence",
              "type": "uint64"
            },
            {
              "internalType": "bytes",
              "name": "data",
              "type": "bytes"
            },
            {
              "components": [
                {
                  "internalType": "uint64",
                  "name": "blockHeight",
                  "type": "uint64"
                },
                {
                  "internalType": "uint64",
                  "name": "timestamp",
                  "type": "uint64"
                }
              ],
              "internalType": "struct IbcTimeout",
              "name": "timeout",
              "type": "tuple"
            }
          ],
          "internalType": "struct IbcPacket",
          "name": "packet",
          "type": "tuple"
        }
      ],
      "name": "onAcknowledgementPacket",
      "outputs": [],
      "stateMutability": "nonpayable",
      "type": "function"
    },
    {
      "inputs": [
        {
          "internalType": "bytes32",
          "name": "channelId",
          "type": "bytes32"
        },
        {
          "internalType": "string",
          "name": "counterpartyPortId",
          "type": "string"
        },
        {
          "internalType": "bytes32",
          "name": "counterpartyChannelId",
          "type": "bytes32"
        }
      ],
      "name": "onCloseIbcChannel",
      "outputs": [],
      "stateMutability": "nonpayable",
      "type": "function"
    },
    {
      "inputs": [
        {
          "internalType": "bytes32",
          "name": "channelId",
          "type": "bytes32"
        },
        {
          "internalType": "bytes32",
          "name": "counterpartyChannelId",
          "type": "bytes32"
        },
        {
          "internalType": "string",
          "name": "counterpartyVersion",
          "type": "string"
        }
      ],
      "name": "onConnectIbcChannel",
      "outputs": [],
      "stateMutability": "nonpayable",
      "type": "function"
    },
    {
      "inputs": [
        {
          "internalType": "string",
          "name": "version",
          "type": "string"
        },
        {
          "internalType": "enum ChannelOrder",
          "name": "ordering",
          "type": "uint8"
        },
        {
          "internalType": "string[]",
          "name": "connectionHops",
          "type": "string[]"
        },
        {
          "internalType": "string",
          "name": "counterpartyPortId",
          "type": "string"
        },
        {
          "internalType": "bytes32",
          "name": "counterpartyChannelId",
          "type": "bytes32"
        },
        {
          "internalType": "string",
          "name": "counterpartyVersion",
          "type": "string"
        }
      ],
      "name": "onOpenIbcChannel",
      "outputs": [
        {
          "internalType": "string",
          "name": "selectedVersion",
          "type": "string"
        }
      ],
      "stateMutability": "nonpayable",
      "type": "function"
    },
    {
      "inputs": [
        {
          "components": [
            {
              "components": [
                {
                  "internalType": "string",
                  "name": "portId",
                  "type": "string"
                },
                {
                  "internalType": "bytes32",
                  "name": "channelId",
                  "type": "bytes32"
                }
              ],
              "internalType": "struct IbcEndpoint",
              "name": "src",
              "type": "tuple"
            },
            {
              "components": [
                {
                  "internalType": "string",
                  "name": "portId",
                  "type": "string"
                },
                {
                  "internalType": "bytes32",
                  "name": "channelId",
                  "type": "bytes32"
                }
              ],
              "internalType": "struct IbcEndpoint",
              "name": "dest",
              "type": "tuple"
            },
            {
              "internalType": "uint64",
              "name": "sequence",
              "type": "uint64"
            },
            {
              "internalType": "bytes",
              "name": "data",
              "type": "bytes"
            },
            {
              "components": [
                {
                  "internalType": "uint64",
                  "name": "blockHeight",
                  "type": "uint64"
                },
                {
                  "internalType": "uint64",
                  "name": "timestamp",
                  "type": "uint64"
                }
              ],
              "internalType": "struct IbcTimeout",
              "name": "timeout",
              "type": "tuple"
            }
          ],
          "internalType": "struct IbcPacket",
          "name": "packet",
          "type": "tuple"
        }
      ],
      "name": "onRecvPacket",
      "outputs": [
        {
          "components": [
            {
              "internalType": "bool",
              "name": "success",
              "type": "bool"
            },
            {
              "internalType": "bytes",
              "name": "data",
              "type": "bytes"
            }
          ],
          "internalType": "struct AckPacket",
          "name": "ackPacket",
          "type": "tuple"
        }
      ],
      "stateMutability": "nonpayable",
      "type": "function"
    },
    {
      "inputs": [
        {
          "components": [
            {
              "components": [
                {
                  "internalType": "string",
                  "name": "portId",
                  "type": "string"
                },
                {
                  "internalType": "bytes32",
                  "name": "channelId",
                  "type": "bytes32"
                }
              ],
              "internalType": "struct IbcEndpoint",
              "name": "src",
              "type": "tuple"
            },
            {
              "components": [
                {
                  "internalType": "string",
                  "name": "portId",
                  "type": "string"
                },
                {
                  "internalType": "bytes32",
                  "name": "channelId",
                  "type": "bytes32"
                }
              ],
              "internalType": "struct IbcEndpoint",
              "name": "dest",
              "type": "tuple"
            },
            {
              "internalType": "uint64",
              "name": "sequence",
              "type": "uint64"
            },
            {
              "internalType": "bytes",
              "name": "data",
              "type": "bytes"
            },
            {
              "components": [
                {
                  "internalType": "uint64",
                  "name": "blockHeight",
                  "type": "uint64"
                },
                {
                  "internalType": "uint64",
                  "name": "timestamp",
                  "type": "uint64"
                }
              ],
              "internalType": "struct IbcTimeout",
              "name": "timeout",
              "type": "tuple"
            }
          ],
          "internalType": "struct IbcPacket",
          "name": "packet",
          "type": "tuple"
        }
      ],
      "name": "onTimeoutPacket",
      "outputs": [],
      "stateMutability": "nonpayable",
      "type": "function"
    },
    {
      "inputs": [],
      "name": "owner",
      "outputs": [
        {
          "internalType": "address",
          "name": "",
          "type": "address"
        }
      ],
      "stateMutability": "view",
      "type": "function"
    },
    {
      "inputs": [
        {
          "internalType": "uint256",
          "name": "",
          "type": "uint256"
        }
      ],
      "name": "recvedPackets",
      "outputs": [
        {
          "components": [
            {
              "internalType": "string",
              "name": "portId",
              "type": "string"
            },
            {
              "internalType": "bytes32",
              "name": "channelId",
              "type": "bytes32"
            }
          ],
          "internalType": "struct IbcEndpoint",
          "name": "src",
          "type": "tuple"
        },
        {
          "components": [
            {
              "internalType": "string",
              "name": "portId",
              "type": "string"
            },
            {
              "internalType": "bytes32",
              "name": "channelId",
              "type": "bytes32"
            }
          ],
          "internalType": "struct IbcEndpoint",
          "name": "dest",
          "type": "tuple"
        },
        {
          "internalType": "uint64",
          "name": "sequence",
          "type": "uint64"
        },
        {
          "internalType": "bytes",
          "name": "data",
          "type": "bytes"
        },
        {
          "components": [
            {
              "internalType": "uint64",
              "name": "blockHeight",
              "type": "uint64"
            },
            {
              "internalType": "uint64",
              "name": "timestamp",
              "type": "uint64"
            }
          ],
          "internalType": "struct IbcTimeout",
          "name": "timeout",
          "type": "tuple"
        }
      ],
      "stateMutability": "view",
      "type": "function"
    },
    {
      "inputs": [],
      "name": "renounceOwnership",
      "outputs": [],
      "stateMutability": "nonpayable",
      "type": "function"
    },
    {
      "inputs": [
        {
          "internalType": "uint256",
          "name": "",
          "type": "uint256"
        }
      ],
      "name": "timeoutPackets",
      "outputs": [
        {
          "components": [
            {
              "internalType": "string",
              "name": "portId",
              "type": "string"
            },
            {
              "internalType": "bytes32",
              "name": "channelId",
              "type": "bytes32"
            }
          ],
          "internalType": "struct IbcEndpoint",
          "name": "src",
          "type": "tuple"
        },
        {
          "components": [
            {
              "internalType": "string",
              "name": "portId",
              "type": "string"
            },
            {
              "internalType": "bytes32",
              "name": "channelId",
              "type": "bytes32"
            }
          ],
          "internalType": "struct IbcEndpoint",
          "name": "dest",
          "type": "tuple"
        },
        {
          "internalType": "uint64",
          "name": "sequence",
          "type": "uint64"
        },
        {
          "internalType": "bytes",
          "name": "data",
          "type": "bytes"
        },
        {
          "components": [
            {
              "internalType": "uint64",
              "name": "blockHeight",
              "type": "uint64"
            },
            {
              "internalType": "uint64",
              "name": "timestamp",
              "type": "uint64"
            }
          ],
          "internalType": "struct IbcTimeout",
          "name": "timeout",
          "type": "tuple"
        }
      ],
      "stateMutability": "view",
      "type": "function"
    },
    {
      "inputs": [
        {
          "internalType": "address",
          "name": "newOwner",
          "type": "address"
        }
      ],
      "name": "transferOwnership",
      "outputs": [],
      "stateMutability": "nonpayable",
      "type": "function"
    },
    {
      "inputs": [
        {
          "internalType": "bytes32",
          "name": "channelId",
          "type": "bytes32"
        },
        {
          "internalType": "contract IbcDispatcher",
          "name": "dispatcher",
          "type": "address"
        }
      ],
      "name": "triggerChannelClose",
      "outputs": [],
      "stateMutability": "nonpayable",
      "type": "function"
    }
  ],
  "bytecode": "0x608060405260405180604001604052806040518060400160405280600381526020017f312e30000000000000000000000000000000000000000000000000000000000081525081526020016040518060400160405280600381526020017f322e30000000000000000000000000000000000000000000000000000000000081525081525060059060026200009592919062000196565b50348015620000a357600080fd5b50620000c4620000b8620000ca60201b60201c565b620000d260201b60201c565b620005e4565b600033905090565b60008060009054906101000a900473ffffffffffffffffffffffffffffffffffffffff169050816000806101000a81548173ffffffffffffffffffffffffffffffffffffffff021916908373ffffffffffffffffffffffffffffffffffffffff1602179055508173ffffffffffffffffffffffffffffffffffffffff168173ffffffffffffffffffffffffffffffffffffffff167f8be0079c531659141344cd1fd0a4f28419497f9722a3daafe3b4186f6b6457e060405160405180910390a35050565b828054828255906000526020600020908101928215620001e3579160200282015b82811115620001e2578251829081620001d19190620004fd565b5091602001919060010190620001b7565b5b509050620001f29190620001f6565b5090565b5b808211156200021a57600081816200021091906200021e565b50600101620001f7565b5090565b5080546200022c90620002ec565b6000825580601f1062000240575062000261565b601f01602090049060005260206000209081019062000260919062000264565b5b50565b5b808211156200027f57600081600090555060010162000265565b5090565b600081519050919050565b7f4e487b7100000000000000000000000000000000000000000000000000000000600052604160045260246000fd5b7f4e487b7100000000000000000000000000000000000000000000000000000000600052602260045260246000fd5b600060028204905060018216806200030557607f821691505b6020821081036200031b576200031a620002bd565b5b50919050565b60008190508160005260206000209050919050565b60006020601f8301049050919050565b600082821b905092915050565b600060088302620003857fffffffffffffffffffffffffffffffffffffffffffffffffffffffffffffffff8262000346565b62000391868362000346565b95508019841693508086168417925050509392505050565b6000819050919050565b6000819050919050565b6000620003de620003d8620003d284620003a9565b620003b3565b620003a9565b9050919050565b6000819050919050565b620003fa83620003bd565b620004126200040982620003e5565b84845462000353565b825550505050565b600090565b620004296200041a565b62000436818484620003ef565b505050565b5b818110156200045e57620004526000826200041f565b6001810190506200043c565b5050565b601f821115620004ad57620004778162000321565b620004828462000336565b8101602085101562000492578190505b620004aa620004a18562000336565b8301826200043b565b50505b505050565b600082821c905092915050565b6000620004d260001984600802620004b2565b1980831691505092915050565b6000620004ed8383620004bf565b9150826002028217905092915050565b620005088262000283565b67ffffffffffffffff8111156200052457620005236200028e565b5b620005308254620002ec565b6200053d82828562000462565b600060209050601f83116001811462000575576000841562000560578287015190505b6200056c8582620004df565b865550620005dc565b601f198416620005858662000321565b60005b82811015620005af5784890151825560018201915060208501945060208101905062000588565b86831015620005cf5784890151620005cb601f891682620004bf565b8355505b6001600288020188555050505b505050505050565b612b9b80620005f46000396000f3fe6080604052600436106100e85760003560e01c8063a6c50b4d1161008a578063e0a37bb611610059578063e0a37bb6146102ff578063f12b758a14610328578063f2fde38b14610369578063f45cf5e414610392576100e8565b8063a6c50b4d14610233578063b058e81a1461025c578063b33c257714610299578063bb3f9f8d146102c2576100e8565b80634eeb7391116100c65780634eeb7391146101875780635fe39e0d146101c8578063715018a6146101f15780638da5cb5b14610208576100e8565b80631c8360ed146100ed5780632653b6d2146101095780634252ae9b14610146575b600080fd5b61010760048036038101906101029190611514565b6103bb565b005b34801561011557600080fd5b50610130600480360381019061012b9190611629565b61046a565b60405161013d91906117c9565b60405180910390f35b34801561015257600080fd5b5061016d60048036038101906101689190611821565b610642565b60405161017e959493929190611986565b60405180910390f35b34801561019357600080fd5b506101ae60048036038101906101a99190611821565b6108de565b6040516101bf959493929190611986565b60405180910390f35b3480156101d457600080fd5b506101ef60048036038101906101ea91906119ee565b610b7a565b005b3480156101fd57600080fd5b50610206610c36565b005b34801561021457600080fd5b5061021d610c4a565b60405161022a9190611a71565b60405180910390f35b34801561023f57600080fd5b5061025a60048036038101906102559190611a8c565b610c73565b005b34801561026857600080fd5b50610283600480360381019061027e9190611b1f565b610d83565b6040516102909190611c0a565b60405180910390f35b3480156102a557600080fd5b506102c060048036038101906102bb9190611b1f565b610e01565b005b3480156102ce57600080fd5b506102e960048036038101906102e49190611821565b610e3e565b6040516102f69190611c3b565b60405180910390f35b34801561030b57600080fd5b5061032660048036038101906103219190611c56565b610e62565b005b34801561033457600080fd5b5061034f600480360381019061034a9190611821565b610ed9565b604051610360959493929190611986565b60405180910390f35b34801561037557600080fd5b50610390600480360381019061038b9190611cc2565b611175565b005b34801561039e57600080fd5b506103b960048036038101906103b49190611b1f565b6111f8565b005b600081604001358260200135116103d65781604001356103dc565b81602001355b90508673ffffffffffffffffffffffffffffffffffffffff1663ca034bff82846000013561040a9190611d1e565b86898988886040518763ffffffff1660e01b815260040161042f959493929190611e0e565b6000604051808303818588803b15801561044857600080fd5b505af115801561045c573d6000803e3d6000fd5b505050505050505050505050565b6060600886869050116104b2576040517f08c379a00000000000000000000000000000000000000000000000000000000081526004016104a990611ea8565b60405180910390fd5b60006040516020016104c390611ef9565b604051602081830303815290604052805190602001208c8c6040516020016104ec929190611f33565b604051602081830303815290604052805190602001201461050e578b8b610511565b83835b8080601f016020809104026020016040519081016040528093929190818152602001838380828437600081840152601f19601f82011690508083019250505050505050915060005b6005805490508110156105f2576005818154811061057a57610579611f4c565b5b906000526020600020016040516020016105949190612073565b60405160208183030381529060405280519060200120836040516020016105bb91906120bb565b60405160208183030381529060405280519060200120036105df57600191506105f2565b80806105ea906120d2565b915050610559565b5080610633576040517f08c379a000000000000000000000000000000000000000000000000000000000815260040161062a90612166565b60405180910390fd5b509a9950505050505050505050565b6002818154811061065257600080fd5b90600052602060002090600702016000915090508060000160405180604001604052908160008201805461068590611faa565b80601f01602080910402602001604051908101604052809291908181526020018280546106b190611faa565b80156106fe5780601f106106d3576101008083540402835291602001916106fe565b820191906000526020600020905b8154815290600101906020018083116106e157829003601f168201915b50505050508152602001600182015481525050908060020160405180604001604052908160008201805461073190611faa565b80601f016020809104026020016040519081016040528092919081815260200182805461075d90611faa565b80156107aa5780601f1061077f576101008083540402835291602001916107aa565b820191906000526020600020905b81548152906001019060200180831161078d57829003601f168201915b50505050508152602001600182015481525050908060040160009054906101000a900467ffffffffffffffff16908060050180546107e790611faa565b80601f016020809104026020016040519081016040528092919081815260200182805461081390611faa565b80156108605780601f1061083557610100808354040283529160200191610860565b820191906000526020600020905b81548152906001019060200180831161084357829003601f168201915b505050505090806006016040518060400160405290816000820160009054906101000a900467ffffffffffffffff1667ffffffffffffffff1667ffffffffffffffff1681526020016000820160089054906101000a900467ffffffffffffffff1667ffffffffffffffff1667ffffffffffffffff1681525050905085565b600381815481106108ee57600080fd5b90600052602060002090600702016000915090508060000160405180604001604052908160008201805461092190611faa565b80601f016020809104026020016040519081016040528092919081815260200182805461094d90611faa565b801561099a5780601f1061096f5761010080835404028352916020019161099a565b820191906000526020600020905b81548152906001019060200180831161097d57829003601f168201915b5050505050815260200160018201548152505090806002016040518060400160405290816000820180546109cd90611faa565b80601f01602080910402602001604051908101604052809291908181526020018280546109f990611faa565b8015610a465780601f10610a1b57610100808354040283529160200191610a46565b820191906000526020600020905b815481529060010190602001808311610a2957829003601f168201915b50505050508152602001600182015481525050908060040160009054906101000a900467ffffffffffffffff1690806005018054610a8390611faa565b80601f0160208091040260200160405190810160405280929190818152602001828054610aaf90611faa565b8015610afc5780601f10610ad157610100808354040283529160200191610afc565b820191906000526020600020905b815481529060010190602001808311610adf57829003601f168201915b505050505090806006016040518060400160405290816000820160009054906101000a900467ffffffffffffffff1667ffffffffffffffff1667ffffffffffffffff1681526020016000820160089054906101000a900467ffffffffffffffff1667ffffffffffffffff1667ffffffffffffffff1681525050905085565b6000805b600480549050811015610bee578560048281548110610ba057610b9f611f4c565b5b906000526020600020015403610bdb5760048181548110610bc457610bc3611f4c565b5b906000526020600020016000905560019150610bee565b8080610be6906120d2565b915050610b7e565b5080610c2f576040517f08c379a0000000000000000000000000000000000000000000000000000000008152600401610c26906121d2565b60405180910390fd5b5050505050565b610c3e611235565b610c4860006112b3565b565b60008060009054906101000a900473ffffffffffffffffffffffffffffffffffffffff16905090565b6000805b600580549050811015610d125760058181548110610c9857610c97611f4c565b5b90600052602060002001604051602001610cb29190612073565b604051602081830303815290604052805190602001208484604051602001610cdb929190611f33565b6040516020818303038152906040528051906020012003610cff5760019150610d12565b8080610d0a906120d2565b915050610c77565b5080610d53576040517f08c379a0000000000000000000000000000000000000000000000000000000008152600401610d4a90612166565b60405180910390fd5b60048590806001815401808255809150506001900390600052602060002001600090919091909150555050505050565b610d8b61137f565b60018290806001815401808255809150506001900390600052602060002090600702016000909190919091508181610dc391906129d2565b50506040518060400160405280600115158152602001604051602001610de890612a52565b6040516020818303038152906040528152509050919050565b60038190806001815401808255809150506001900390600052602060002090600702016000909190919091508181610e3991906129d2565b505050565b60048181548110610e4e57600080fd5b906000526020600020016000915090505481565b610e6a611235565b8073ffffffffffffffffffffffffffffffffffffffff16638b24b4cb836040518263ffffffff1660e01b8152600401610ea39190611c3b565b600060405180830381600087803b158015610ebd57600080fd5b505af1158015610ed1573d6000803e3d6000fd5b505050505050565b60018181548110610ee957600080fd5b906000526020600020906007020160009150905080600001604051806040016040529081600082018054610f1c90611faa565b80601f0160208091040260200160405190810160405280929190818152602001828054610f4890611faa565b8015610f955780601f10610f6a57610100808354040283529160200191610f95565b820191906000526020600020905b815481529060010190602001808311610f7857829003601f168201915b505050505081526020016001820154815250509080600201604051806040016040529081600082018054610fc890611faa565b80601f0160208091040260200160405190810160405280929190818152602001828054610ff490611faa565b80156110415780601f1061101657610100808354040283529160200191611041565b820191906000526020600020905b81548152906001019060200180831161102457829003601f168201915b50505050508152602001600182015481525050908060040160009054906101000a900467ffffffffffffffff169080600501805461107e90611faa565b80601f01602080910402602001604051908101604052809291908181526020018280546110aa90611faa565b80156110f75780601f106110cc576101008083540402835291602001916110f7565b820191906000526020600020905b8154815290600101906020018083116110da57829003601f168201915b505050505090806006016040518060400160405290816000820160009054906101000a900467ffffffffffffffff1667ffffffffffffffff1667ffffffffffffffff1681526020016000820160089054906101000a900467ffffffffffffffff1667ffffffffffffffff1667ffffffffffffffff1681525050905085565b61117d611235565b600073ffffffffffffffffffffffffffffffffffffffff168173ffffffffffffffffffffffffffffffffffffffff16036111ec576040517f08c379a00000000000000000000000000000000000000000000000000000000081526004016111e390612ad9565b60405180910390fd5b6111f5816112b3565b50565b6002819080600181540180825580915050600190039060005260206000209060070201600090919091909150818161123091906129d2565b505050565b61123d611377565b73ffffffffffffffffffffffffffffffffffffffff1661125b610c4a565b73ffffffffffffffffffffffffffffffffffffffff16146112b1576040517f08c379a00000000000000000000000000000000000000000000000000000000081526004016112a890612b45565b60405180910390fd5b565b60008060009054906101000a900473ffffffffffffffffffffffffffffffffffffffff169050816000806101000a81548173ffffffffffffffffffffffffffffffffffffffff021916908373ffffffffffffffffffffffffffffffffffffffff1602179055508173ffffffffffffffffffffffffffffffffffffffff168173ffffffffffffffffffffffffffffffffffffffff167f8be0079c531659141344cd1fd0a4f28419497f9722a3daafe3b4186f6b6457e060405160405180910390a35050565b600033905090565b6040518060400160405280600015158152602001606081525090565b600080fd5b600080fd5b600073ffffffffffffffffffffffffffffffffffffffff82169050919050565b60006113d0826113a5565b9050919050565b60006113e2826113c5565b9050919050565b6113f2816113d7565b81146113fd57600080fd5b50565b60008135905061140f816113e9565b92915050565b600080fd5b600080fd5b600080fd5b60008083601f84011261143a57611439611415565b5b8235905067ffffffffffffffff8111156114575761145661141a565b5b6020830191508360018202830111156114735761147261141f565b5b9250929050565b6000819050919050565b61148d8161147a565b811461149857600080fd5b50565b6000813590506114aa81611484565b92915050565b600067ffffffffffffffff82169050919050565b6114cd816114b0565b81146114d857600080fd5b50565b6000813590506114ea816114c4565b92915050565b600080fd5b60006060828403121561150b5761150a6114f0565b5b81905092915050565b60008060008060008060e087890312156115315761153061139b565b5b600061153f89828a01611400565b965050602087013567ffffffffffffffff8111156115605761155f6113a0565b5b61156c89828a01611424565b9550955050604061157f89828a0161149b565b935050606061159089828a016114db565b92505060806115a189828a016114f5565b9150509295509295509295565b600381106115bb57600080fd5b50565b6000813590506115cd816115ae565b92915050565b60008083601f8401126115e9576115e8611415565b5b8235905067ffffffffffffffff8111156116065761160561141a565b5b6020830191508360208202830111156116225761162161141f565b5b9250929050565b60008060008060008060008060008060c08b8d03121561164c5761164b61139b565b5b60008b013567ffffffffffffffff81111561166a576116696113a0565b5b6116768d828e01611424565b9a509a505060206116898d828e016115be565b98505060408b013567ffffffffffffffff8111156116aa576116a96113a0565b5b6116b68d828e016115d3565b975097505060608b013567ffffffffffffffff8111156116d9576116d86113a0565b5b6116e58d828e01611424565b955095505060806116f88d828e0161149b565b93505060a08b013567ffffffffffffffff811115611719576117186113a0565b5b6117258d828e01611424565b92509250509295989b9194979a5092959850565b600081519050919050565b600082825260208201905092915050565b60005b83811015611773578082015181840152602081019050611758565b60008484015250505050565b6000601f19601f8301169050919050565b600061179b82611739565b6117a58185611744565b93506117b5818560208601611755565b6117be8161177f565b840191505092915050565b600060208201905081810360008301526117e38184611790565b905092915050565b6000819050919050565b6117fe816117eb565b811461180957600080fd5b50565b60008135905061181b816117f5565b92915050565b6000602082840312156118375761183661139b565b5b60006118458482850161180c565b91505092915050565b600082825260208201905092915050565b600061186a82611739565b611874818561184e565b9350611884818560208601611755565b61188d8161177f565b840191505092915050565b6118a18161147a565b82525050565b600060408301600083015184820360008601526118c4828261185f565b91505060208301516118d96020860182611898565b508091505092915050565b6118ed816114b0565b82525050565b600081519050919050565b600082825260208201905092915050565b600061191a826118f3565b61192481856118fe565b9350611934818560208601611755565b61193d8161177f565b840191505092915050565b611951816114b0565b82525050565b60408201600082015161196d6000850182611948565b5060208201516119806020850182611948565b50505050565b600060c08201905081810360008301526119a081886118a7565b905081810360208301526119b481876118a7565b90506119c360408301866118e4565b81810360608301526119d5818561190f565b90506119e46080830184611957565b9695505050505050565b60008060008060608587031215611a0857611a0761139b565b5b6000611a168782880161149b565b945050602085013567ffffffffffffffff811115611a3757611a366113a0565b5b611a4387828801611424565b93509350506040611a568782880161149b565b91505092959194509250565b611a6b816113c5565b82525050565b6000602082019050611a866000830184611a62565b92915050565b60008060008060608587031215611aa657611aa561139b565b5b6000611ab48782880161149b565b9450506020611ac58782880161149b565b935050604085013567ffffffffffffffff811115611ae657611ae56113a0565b5b611af287828801611424565b925092505092959194509250565b600060c08284031215611b1657611b156114f0565b5b81905092915050565b600060208284031215611b3557611b3461139b565b5b600082013567ffffffffffffffff811115611b5357611b526113a0565b5b611b5f84828501611b00565b91505092915050565b60008115159050919050565b611b7d81611b68565b82525050565b600082825260208201905092915050565b6000611b9f826118f3565b611ba98185611b83565b9350611bb9818560208601611755565b611bc28161177f565b840191505092915050565b6000604083016000830151611be56000860182611b74565b5060208301518482036020860152611bfd8282611b94565b9150508091505092915050565b60006020820190508181036000830152611c248184611bcd565b905092915050565b611c358161147a565b82525050565b6000602082019050611c506000830184611c2c565b92915050565b60008060408385031215611c6d57611c6c61139b565b5b6000611c7b8582860161149b565b9250506020611c8c85828601611400565b9150509250929050565b611c9f816113c5565b8114611caa57600080fd5b50565b600081359050611cbc81611c96565b92915050565b600060208284031215611cd857611cd761139b565b5b6000611ce684828501611cad565b91505092915050565b7f4e487b7100000000000000000000000000000000000000000000000000000000600052601160045260246000fd5b6000611d29826117eb565b9150611d34836117eb565b9250828201905080821115611d4c57611d4b611cef565b5b92915050565b82818337600083830152505050565b6000611d6d83856118fe565b9350611d7a838584611d52565b611d838361177f565b840190509392505050565b6000611d9d602084018461180c565b905092915050565b611dae816117eb565b82525050565b60608201611dc56000830183611d8e565b611dd26000850182611da5565b50611de06020830183611d8e565b611ded6020850182611da5565b50611dfb6040830183611d8e565b611e086040850182611da5565b50505050565b600060c082019050611e236000830188611c2c565b8181036020830152611e36818688611d61565b9050611e4560408301856118e4565b611e526060830184611db4565b9695505050505050565b7f496e76616c696420636f756e7465727061727479506f72744964000000000000600082015250565b6000611e92601a83611744565b9150611e9d82611e5c565b602082019050919050565b60006020820190508181036000830152611ec181611e85565b9050919050565b600081905092915050565b50565b6000611ee3600083611ec8565b9150611eee82611ed3565b600082019050919050565b6000611f0482611ed6565b9150819050919050565b6000611f1a8385611ec8565b9350611f27838584611d52565b82840190509392505050565b6000611f40828486611f0e565b91508190509392505050565b7f4e487b7100000000000000000000000000000000000000000000000000000000600052603260045260246000fd5b7f4e487b7100000000000000000000000000000000000000000000000000000000600052602260045260246000fd5b60006002820490506001821680611fc257607f821691505b602082108103611fd557611fd4611f7b565b5b50919050565b60008190508160005260206000209050919050565b60008154611ffd81611faa565b6120078186611ec8565b9450600182166000811461202257600181146120375761206a565b60ff198316865281151582028601935061206a565b61204085611fdb565b60005b8381101561206257815481890152600182019150602081019050612043565b838801955050505b50505092915050565b600061207f8284611ff0565b915081905092915050565b600061209582611739565b61209f8185611ec8565b93506120af818560208601611755565b80840191505092915050565b60006120c7828461208a565b915081905092915050565b60006120dd826117eb565b91507fffffffffffffffffffffffffffffffffffffffffffffffffffffffffffffffff820361210f5761210e611cef565b5b600182019050919050565b7f556e737570706f727465642076657273696f6e00000000000000000000000000600082015250565b6000612150601383611744565b915061215b8261211a565b602082019050919050565b6000602082019050818103600083015261217f81612143565b9050919050565b7f4368616e6e656c206e6f7420666f756e64000000000000000000000000000000600082015250565b60006121bc601183611744565b91506121c782612186565b602082019050919050565b600060208201905081810360008301526121eb816121af565b9050919050565b600080fd5b600080fd5b600080fd5b60008235600160400383360303811261221d5761221c6121f2565b5b80830191505092915050565b60008083356001602003843603038112612246576122456121f2565b5b80840192508235915067ffffffffffffffff821115612268576122676121f7565b5b602083019250600182023603831315612284576122836121fc565b5b509250929050565b600082905092915050565b7f4e487b7100000000000000000000000000000000000000000000000000000000600052604160045260246000fd5b60006020601f8301049050919050565b600082821b905092915050565b6000600883026123137fffffffffffffffffffffffffffffffffffffffffffffffffffffffffffffffff826122d6565b61231d86836122d6565b95508019841693508086168417925050509392505050565b6000819050919050565b600061235a612355612350846117eb565b612335565b6117eb565b9050919050565b6000819050919050565b6123748361233f565b61238861238082612361565b8484546122e3565b825550505050565b600090565b61239d612390565b6123a881848461236b565b505050565b5b818110156123cc576123c1600082612395565b6001810190506123ae565b5050565b601f821115612411576123e281611fdb565b6123eb846122c6565b810160208510156123fa578190505b61240e612406856122c6565b8301826123ad565b50505b505050565b600082821c905092915050565b600061243460001984600802612416565b1980831691505092915050565b600061244d8383612423565b9150826002028217905092915050565b612467838361228c565b67ffffffffffffffff8111156124805761247f612297565b5b61248a8254611faa565b6124958282856123d0565b6000601f8311600181146124c457600084156124b2578287013590505b6124bc8582612441565b865550612524565b601f1984166124d286611fdb565b60005b828110156124fa578489013582556001820191506020850194506020810190506124d5565b868310156125175784890135612513601f891682612423565b8355505b6001600288020188555050505b50505050505050565b61253883838361245d565b505050565b6000813561254a81611484565b80915050919050565b60008160001b9050919050565b60007fffffffffffffffffffffffffffffffffffffffffffffffffffffffffffffffff61258c84612553565b9350801983169250808416831791505092915050565b60006125ad8261147a565b9050919050565b60008160001c9050919050565b60006125cc826125b4565b9050919050565b6125dc826125a2565b6125ef6125e8826125c1565b8354612560565b8255505050565b60008101600083016126088185612229565b61261381838661252d565b505050506001810160208301806126298161253d565b905061263581846125d3565b5050505050565b61264682826125f6565b5050565b60008135612657816114c4565b80915050919050565b600067ffffffffffffffff61267484612553565b9350801983169250808416831791505092915050565b60006126a56126a061269b846114b0565b612335565b6114b0565b9050919050565b6000819050919050565b6126bf8261268a565b6126d26126cb826126ac565b8354612660565b8255505050565b600080833560016020038436030381126126f6576126f56121f2565b5b80840192508235915067ffffffffffffffff821115612718576127176121f7565b5b602083019250600182023603831315612734576127336121fc565b5b509250929050565b600082905092915050565b60008190508160005260206000209050919050565b601f82111561279d5761276e81612747565b612777846122c6565b81016020851015612786578190505b61279a612792856122c6565b8301826123ad565b50505b505050565b6127ac838361273c565b67ffffffffffffffff8111156127c5576127c4612297565b5b6127cf8254611faa565b6127da82828561275c565b6000601f83116001811461280957600084156127f7578287013590505b6128018582612441565b865550612869565b601f19841661281786612747565b60005b8281101561283f5784890135825560018201915060208501945060208101905061281a565b8683101561285c5784890135612858601f891682612423565b8355505b6001600288020188555050505b50505050505050565b61287d8383836127a2565b505050565b60008160401b9050919050565b60006fffffffffffffffff00000000000000006128ab84612882565b9350801983169250808416831791505092915050565b6128ca8261268a565b6128dd6128d6826126ac565b835461288f565b8255505050565b6000810160008301806128f68161264a565b905061290281846126b6565b5050506000810160208301806129178161264a565b905061292381846128c1565b5050505050565b61293482826128e4565b5050565b600081016000830161294a8185612201565b612954818461263c565b50505060028101602083016129698185612201565b612973818461263c565b5050506004810160408301806129888161264a565b905061299481846126b6565b50505060058101606083016129a981856126d9565b6129b4818386612872565b505050506006810160808301806129cb818461292a565b5050505050565b6129dc8282612938565b5050565b7f7b20226163636f756e74223a20226163636f756e74222c20227265706c79223a60008201527f2022676f7420746865206d65737361676522207d000000000000000000000000602082015250565b6000612a3c603483611ec8565b9150612a47826129e0565b603482019050919050565b6000612a5d82612a2f565b9150819050919050565b7f4f776e61626c653a206e6577206f776e657220697320746865207a65726f206160008201527f6464726573730000000000000000000000000000000000000000000000000000602082015250565b6000612ac3602683611744565b9150612ace82612a67565b604082019050919050565b60006020820190508181036000830152612af281612ab6565b9050919050565b7f4f776e61626c653a2063616c6c6572206973206e6f7420746865206f776e6572600082015250565b6000612b2f602083611744565b9150612b3a82612af9565b602082019050919050565b60006020820190508181036000830152612b5e81612b22565b905091905056fea264697066735822122031ba0c5c1ce410b66c4430d2af2b39f04e77b5c2c87e415a26b2f0e7433a99e664736f6c63430008130033",
  "linkReferences": {},
  "deployedLinkReferences": {}
}