{
  "_format": "hh-sol-artifact-1",
  "contractName": "DummyVerifier",
  "sourceName": "contracts/vibc-core/DummyVerifier.sol",
  "abi": [
    {
      "inputs": [
        {
          "components": [
            {
              "internalType": "uint256",
              "name": "app_hash",
              "type": "uint256"
            },
            {
              "internalType": "uint256",
              "name": "valset_hash",
              "type": "uint256"
            },
            {
              "internalType": "uint256",
              "name": "time",
              "type": "uint256"
            },
            {
              "internalType": "uint256",
              "name": "height",
              "type": "uint256"
            }
          ],
          "internalType": "struct ConsensusState",
          "name": "consensusState",
          "type": "tuple"
        },
        {
          "components": [
            {
              "internalType": "uint64",
              "name": "proofHeight",
              "type": "uint64"
            },
            {
              "internalType": "bytes",
              "name": "proof",
              "type": "bytes"
            }
          ],
          "internalType": "struct Proof",
          "name": "proof",
          "type": "tuple"
        },
        {
          "internalType": "bytes",
          "name": "key",
          "type": "bytes"
        },
        {
          "internalType": "bytes",
          "name": "expectedValue",
          "type": "bytes"
        }
      ],
      "name": "verifyMembership",
      "outputs": [
        {
          "internalType": "bool",
          "name": "",
          "type": "bool"
        }
      ],
      "stateMutability": "pure",
      "type": "function"
    },
    {
      "inputs": [
        {
          "components": [
            {
              "internalType": "uint256",
              "name": "app_hash",
              "type": "uint256"
            },
            {
              "internalType": "uint256",
              "name": "valset_hash",
              "type": "uint256"
            },
            {
              "internalType": "uint256",
              "name": "time",
              "type": "uint256"
            },
            {
              "internalType": "uint256",
              "name": "height",
              "type": "uint256"
            }
          ],
          "internalType": "struct ConsensusState",
          "name": "consensusState",
          "type": "tuple"
        },
        {
          "components": [
            {
              "internalType": "uint64",
              "name": "proofHeight",
              "type": "uint64"
            },
            {
              "internalType": "bytes",
              "name": "proof",
              "type": "bytes"
            }
          ],
          "internalType": "struct Proof",
          "name": "proof",
          "type": "tuple"
        },
        {
          "internalType": "bytes",
          "name": "key",
          "type": "bytes"
        }
      ],
      "name": "verifyNonMembership",
      "outputs": [
        {
          "internalType": "bool",
          "name": "",
          "type": "bool"
        }
      ],
      "stateMutability": "pure",
      "type": "function"
    },
    {
      "inputs": [
        {
          "components": [
            {
              "internalType": "uint256",
              "name": "app_hash",
              "type": "uint256"
            },
            {
              "internalType": "uint256",
              "name": "valset_hash",
              "type": "uint256"
            },
            {
              "internalType": "uint256",
              "name": "time",
              "type": "uint256"
            },
            {
              "internalType": "uint256",
              "name": "height",
              "type": "uint256"
            }
          ],
          "internalType": "struct ConsensusState",
          "name": "trustedState",
          "type": "tuple"
        },
        {
          "components": [
            {
              "components": [
                {
                  "internalType": "uint256",
                  "name": "app_hash",
                  "type": "uint256"
                },
                {
                  "internalType": "uint256",
                  "name": "valset_hash",
                  "type": "uint256"
                },
                {
                  "internalType": "uint256",
                  "name": "time",
                  "type": "uint256"
                },
                {
                  "internalType": "uint256",
                  "name": "height",
                  "type": "uint256"
                }
              ],
              "internalType": "struct ConsensusState",
              "name": "consensusState",
              "type": "tuple"
            },
            {
              "components": [
                {
                  "internalType": "uint256[2]",
                  "name": "a",
                  "type": "uint256[2]"
                },
                {
                  "internalType": "uint256[2][2]",
                  "name": "b",
                  "type": "uint256[2][2]"
                },
                {
                  "internalType": "uint256[2]",
                  "name": "c",
                  "type": "uint256[2]"
                }
              ],
              "internalType": "struct ZkProof",
              "name": "zkProof",
              "type": "tuple"
            }
          ],
          "internalType": "struct UpdateClientMsg",
          "name": "updateClientMsg",
          "type": "tuple"
        }
      ],
      "name": "verifyUpdateClientMsg",
      "outputs": [
        {
          "internalType": "bool",
          "name": "",
          "type": "bool"
        }
      ],
      "stateMutability": "pure",
      "type": "function"
    }
  ],
  "bytecode": "0x608060405234801561001057600080fd5b50610cb4806100206000396000f3fe608060405234801561001057600080fd5b50600436106100415760003560e01c8063122d651b146100465780633b427df114610076578063c9b73c6c146100a6575b600080fd5b610060600480360381019061005b9190610475565b6100d6565b60405161006d9190610520565b60405180910390f35b610090600480360381019061008b919061055b565b61013c565b60405161009d9190610520565b60405180910390f35b6100c060048036038101906100bb919061059c565b6101c2565b6040516100cd9190610520565b60405180910390f35b600080838390501161011d576040517f08c379a0000000000000000000000000000000000000000000000000000000008152600401610114906106bc565b60405180910390fd5b600084806020019061012f91906106eb565b9050119050949350505050565b60008082600001803603810190610153919061088d565b905061016e838036038101906101699190610ad2565b610270565b6101ad576040517f08c379a00000000000000000000000000000000000000000000000000000000081526004016101a490610b4c565b60405180910390fd5b83606001358160600151101591505092915050565b6000808585905011610209576040517f08c379a0000000000000000000000000000000000000000000000000000000008152600401610200906106bc565b60405180910390fd5b6000838390501161024f576040517f08c379a000000000000000000000000000000000000000000000000000000000815260040161024690610bb8565b60405180910390fd5b600086806020019061026191906106eb565b90501190509695505050505050565b600080826000015160000151148061029057506000826000015160200151145b806102a357506000826000015160400151145b806102b657506000826000015160600151145b156102c457600090506103b4565b60005b60028110156103ae57600083602001516000015182600281106102ed576102ec610bd8565b5b6020020151036103015760009150506103b4565b6000836020015160400151826002811061031e5761031d610bd8565b5b6020020151036103325760009150506103b4565b60005b600281101561039a576000846020015160200151836002811061035b5761035a610bd8565b5b6020020151826002811061037257610371610bd8565b5b602002015103610387576000925050506103b4565b808061039290610c36565b915050610335565b5080806103a690610c36565b9150506102c7565b50600190505b919050565b6000604051905090565b600080fd5b600080fd5b600080fd5b6000608082840312156103e8576103e76103cd565b5b81905092915050565b600060408284031215610407576104066103cd565b5b81905092915050565b600080fd5b600080fd5b600080fd5b60008083601f84011261043557610434610410565b5b8235905067ffffffffffffffff81111561045257610451610415565b5b60208301915083600182028301111561046e5761046d61041a565b5b9250929050565b60008060008060c0858703121561048f5761048e6103c3565b5b600061049d878288016103d2565b945050608085013567ffffffffffffffff8111156104be576104bd6103c8565b5b6104ca878288016103f1565b93505060a085013567ffffffffffffffff8111156104eb576104ea6103c8565b5b6104f78782880161041f565b925092505092959194509250565b60008115159050919050565b61051a81610505565b82525050565b60006020820190506105356000830184610511565b92915050565b60006101808284031215610552576105516103cd565b5b81905092915050565b6000806102008385031215610573576105726103c3565b5b6000610581858286016103d2565b92505060806105928582860161053b565b9150509250929050565b60008060008060008060e087890312156105b9576105b86103c3565b5b60006105c789828a016103d2565b965050608087013567ffffffffffffffff8111156105e8576105e76103c8565b5b6105f489828a016103f1565b95505060a087013567ffffffffffffffff811115610615576106146103c8565b5b61062189828a0161041f565b945094505060c087013567ffffffffffffffff811115610644576106436103c8565b5b61065089828a0161041f565b92509250509295509295509295565b600082825260208201905092915050565b7f4b65792063616e6e6f7420626520656d70747900000000000000000000000000600082015250565b60006106a660138361065f565b91506106b182610670565b602082019050919050565b600060208201905081810360008301526106d581610699565b9050919050565b600080fd5b600080fd5b600080fd5b60008083356001602003843603038112610708576107076106dc565b5b80840192508235915067ffffffffffffffff82111561072a576107296106e1565b5b602083019250600182023603831315610746576107456106e6565b5b509250929050565b600080fd5b6000601f19601f8301169050919050565b7f4e487b7100000000000000000000000000000000000000000000000000000000600052604160045260246000fd5b61079c82610753565b810181811067ffffffffffffffff821117156107bb576107ba610764565b5b80604052505050565b60006107ce6103b9565b90506107da8282610793565b919050565b6000819050919050565b6107f2816107df565b81146107fd57600080fd5b50565b60008135905061080f816107e9565b92915050565b60006080828403121561082b5761082a61074e565b5b61083560806107c4565b9050600061084584828501610800565b600083015250602061085984828501610800565b602083015250604061086d84828501610800565b604083015250606061088184828501610800565b60608301525092915050565b6000608082840312156108a3576108a26103c3565b5b60006108b184828501610815565b91505092915050565b600067ffffffffffffffff8211156108d5576108d4610764565b5b602082029050919050565b60006108f36108ee846108ba565b6107c4565b9050806020840283018581111561090d5761090c61041a565b5b835b8181101561093657806109228882610800565b84526020840193505060208101905061090f565b5050509392505050565b600082601f83011261095557610954610410565b5b60026109628482856108e0565b91505092915050565b600067ffffffffffffffff82111561098657610985610764565b5b602082029050919050565b60006109a461099f8461096b565b6107c4565b905080604084028301858111156109be576109bd61041a565b5b835b818110156109e757806109d38882610940565b8452602084019350506040810190506109c0565b5050509392505050565b600082601f830112610a0657610a05610410565b5b6002610a13848285610991565b91505092915050565b60006101008284031215610a3357610a3261074e565b5b610a3d60606107c4565b90506000610a4d84828501610940565b6000830152506040610a61848285016109f1565b60208301525060c0610a7584828501610940565b60408301525092915050565b60006101808284031215610a9857610a9761074e565b5b610aa260406107c4565b90506000610ab284828501610815565b6000830152506080610ac684828501610a1c565b60208301525092915050565b60006101808284031215610ae957610ae86103c3565b5b6000610af784828501610a81565b91505092915050565b7f496e76616c69642075706461746520636c69656e74206d657373616765000000600082015250565b6000610b36601d8361065f565b9150610b4182610b00565b602082019050919050565b60006020820190508181036000830152610b6581610b29565b9050919050565b7f45787065637465642076616c75652063616e6e6f7420626520656d7074790000600082015250565b6000610ba2601e8361065f565b9150610bad82610b6c565b602082019050919050565b60006020820190508181036000830152610bd181610b95565b9050919050565b7f4e487b7100000000000000000000000000000000000000000000000000000000600052603260045260246000fd5b7f4e487b7100000000000000000000000000000000000000000000000000000000600052601160045260246000fd5b6000610c41826107df565b91507fffffffffffffffffffffffffffffffffffffffffffffffffffffffffffffffff8203610c7357610c72610c07565b5b60018201905091905056fea2646970667358221220b1364206526ca7ab9ae524768d870e9192088b62be4ea4179f84d7fadc771ed464736f6c63430008130033",
  "linkReferences": {},
  "deployedLinkReferences": {}
}